:020000040000fa
:080000000002040000000000f2
:020000040000fa
:100400002fc62100cec225000e018800000000008a
:100410000c00070040e32300010020000f0007004c
:10042000000020000000e000020032000000020096
:10043000000000003c0f0200000000000040da0055
:100440000000fe00801c20000000e00002003200de
:10045000002020009001880000000600a102880012
:10046000800078000000eb001a003700e2804000b6
:1004700054a0b4009101ba00e280400054a0b4003e
:100480009102ba00e280400054a0b4000002eb00e8
:10049000472bde00f507b200a6018800602ce100c2
:1004a00008003a000049eb000201e80002003900b0
:1004b0003420ec0002f0a0008301e900f9ff3e00c7
:1004c000040037006128e100010032000082eb00e7
:1004d000040007001101ba000200e000e3ff3a0047
:1004e0000000060004d0a300e20f49001c00390000
:1004f000810278003549ba000201e80002003900a3
:100500003420ec0002f0a0008301e9000f0032006b
:100510002549ba000201e800020039003420ec004d
:1005200002f0a0008301e900080032000400e000ae
:100530000600320015c9ba000201e80002003900c5
:100540003420ec0002f0a0008301e9008180e80083
:1005500054a0b4000300e000e2ff3a0000000600ef
:100560009102ba00055978008301e900f7ff3200d3
:10057000c82ade00055978008301e900f3ff320044
:100580000400e000f1ff320011d9ba00eeff37009d
:100590000040da000000fe000a00fa008001780046
:1005a000e20f500028003e0000e38000e10f500001
:1005b00008003200802320000000e0000500320027
:1005c00004232000252320004623200080017800fa
:1005d00004003700042220002522200046222000ab
:1005e00083222000144090000004e0000400350045
:1005f0008009eb00144090000074a00010429800a5
:10060000154090000028a30003003a001540900018
:100610000024a000904298008001eb000700370002
:10062000154090000008a300fdff320063c0780071
:100630000000fb00000b78008301e800828f51006e
:10064000f7ff3a000800370030002000b0bf9f00dd
:10065000c3bf9f00d1bf9f00e2bf9f006a805700c9
:1006600000c0da006fb99700020078000080fa003d
:10067000000006006022b800060220000000d00042
:100680008180d2000482d2008582d2000000a000c6
:100690000202520083825a0003003100020242002b
:1006a00083824a000000a1000603e900f3ff3a003c
:1006b00000000600881f7800000478005001be008a
:1006c0004000be000400400085804800060149004b
:1006d00087814900009cbe000294be000400e10036
:1006e0000588e1000690e1000798e1000200310072
:1006f000680044001008e8004f047800000006007d
:10070000f4874700889fbe008a9fbe008c9fbe0072
:100710008e1f78000205be000004be00d4b79f0003
:10072000e5b79f00f6b79f0087bf9f000000eb0072
:10073000c0b79f00b0b79f00a0b79f0090b79f00c1
:1007400080b79f000d042000bfb097004fb0970006
:10075000000140000000e0000f003d004f08de00f7
:1007600000007100c0b79f009e00070001003d001f
:1007700012002000a100070001003d00120020002f
:10078000a6000700b1000700b60007000f004000f8
:10079000c8ff0700220037004f08de000006710086
:1007a000ccb79f008f00070001003d001200200021
:1007b0009200070001003d00120020009700070092
:1007c000a20007000fb297009fb297002fb39700c7
:1007d000bfb39700a90007000000520081805a00b3
:1007e00002015b0083815b0080b79f0091b79f008f
:1007f000a2b79f00b3b79f000007eb009f00070060
:100800000020e10001a8e10002b0e10003b8e1002e
:10081000010031001e0020000e005600c0b79f00ee
:100820004fb297000400e0000700350010002000e0
:10083000010020006011b800080470008984700075
:100840000a0571008b8571008d06e900beff3a0034
:100850000400e00003003d00820007000f0040009c
:1008600094ff07004fa897000000e00004003a0042
:100870000fb497009fb497002fb59700bfb59700ae
:10088000940007004f0778004f06be004f05be00da
:100890004f04be004f01b10000000600881f780021
:1008a00018002000881f780095ff07008f87e90057
:1008b0004f04780000000600801feb0090ff070047
:1008c0008f87e90000000600889fbe008a9fbe0057
:1008d0008c1f78006e00070007003d0073000700c2
:1008e000e00f5b00e08f5b0007003d003200070077
:1008f0000006eb00040037003400070002003d0052
:100900002a0007001c00200072000700e3ff070018
:100910000203be000002be000c00e0000100320035
:10092000220007000400be000601be004f0678004a
:100930004f05be004f04be0000000600889fbe00a9
:100940008a9fbe008c1f78005100070005003d0003
:1009500056000700e00f5b00e08f5b0006003d00e3
:10096000040037001900070003003d006000b800d4
:100970006011b8001000070056000700ceff070006
:100980000203be000002be000c00e00001003200c5
:10099000060007000400be000601be004f067800f6
:1009a0004f05be004f04be00000006006000b80006
:1009b0006011b80000003700040250008582580022
:1009c0000603590087835900000006000006eb006b
:1009d000e00f5200e08f5a00e00f5b00e08f5b00f9
:1009e000000006000180400090b79f000001eb006e
:1009f0008fb097000100e0000000060002007000c8
:100a000090b79f000180400080b79f000001eb007d
:100a1000ffa897000100e00000000600020070003f
:100a200080b79f00018040006faa9700cf20de00b2
:100a300001007000f0af9f00040242002500070093
:100a40004f18de000002720000000600e4af9f00b5
:100a50000804440089844c000a054d008b854d0034
:100a6000000006003fb29700cfb297005fb3970037
:100a7000efb3970000fe2f00000006003fb0970084
:100a8000cfb097005fb19700efb19700000006006c
:100a90000205be000004be00e00f5000e08f5800c9
:100aa000e00f5900e08f5900000006006000b80018
:100ab0006011b80008045000898458000a055900e4
:100ac0008b8559001c002000e00f5200e08f5a0077
:100ad000000006000800be000a01be00000006007b
:100ae0000621ef0061088800800888001061a900d5
:100af000000006000a21ef007108880090088800b5
:100b0000000006001421ef00d1088800f0088800da
:100b1000000006001821ef00e108880000098800a5
:100b200000000600810178000002eb000b00370096
:100b3000e44078000104e000030032000402e80011
:100b400093cf5000040032008180fb001380fb0033
:100b500000805000000006008301e800820f520070
:100b6000f3ff3a0000000500889fbe000004be00ad
:100b70000000e00003003a00f8e280000800e00016
:100b8000130032000800be00720007000004440099
:100b90001804e00004003a000000eb00f0e28800d6
:100ba000000478000a0037000800be007c0007003f
:100bb00000004400f0e288001004e000020032006f
:100bc0000058eb00010037000000eb00f0e2880065
:100bd000080078004f04be00000006008000780086
:100be0003004e000feff3a00010050000000e90080
:100bf000000006008001eb000200370061f0790080
:100c00008301e800828f5100fcff3a0000000600db
:100c10008001eb0002003700817178008301e80059
:100c2000828f5100fcff3a00000006000c00fa0021
:100c3000889fbe0000047800cfb09700f0ff270027
:100c4000d0bf9f008004eb0099bf9f0088bf9f002a
:100c5000a8bf9f00200c2000b0bf9f0078815700e4
:100c600070805700610007000fb8970009487800ae
:100c70000fb8970008045000080078004f04be0029
:100c80000080fa000000060000037800800278006f
:100c9000020278008001eb00080037000402e9003e
:100ca00063c07800805a78008301e8000004e00007
:100cb00002003a008000eb0006003700828f5100ee
:100cc000f6ff3a00fbff37000040eb0080f07a00af
:100cd0008100e800848f5000fbff3a000600780096
:100ce0000000060010417800814f510004003200de
:100cf0000000e8000204e000faff3a000000eb0008
:100d00000000060010417800b141510003003a0094
:100d10000000e8000204e000faff3a000300fb00d4
:100d20000000060080017800000178000100370013
:100d30000201e8001204e000fdff3a0031407800b3
:100d4000005978000004e000fcff3a00030078003e
:100d500000000600889fbe008a1f7800000578000a
:100d6000810478000004eb00010037000804e8006b
:100d700068407d000004e000050032008000fb00b8
:100d800009007800d7ff07000000e000f7ff3a00f5
:100d9000080078004f0578004f04be0000000600f0
:100da000889fbe008a1f78000005780081047800c3
:100db0000004eb00010037000804e80068407d00f3
:100dc0000004e000050032008000fb00090078000c
:100dd000c4ff07000000e000f7ff320008007800c1
:100de0004f0578004f04be0000000600fe87470054
:100df000889fbe008a9fbe008c9fbe008e1f780019
:100e0000f0b79f000107780082bf9f000000eb0051
:100e1000a0b79f009f0237008006eb0050c2b300ce
:100e200080cf5000090032000100fb00ffb09700a6
:100e3000a3020700e10f400096023200afb0970016
:100e40008100e800a1b79f00920237009e40780021
:100e5000d0c2b30080cf50000c00320007003c002d
:100e60006d40500080cf50000a0032006b404000bf
:100e700080cf50000e003a000800370000c3b300d6
:100e800080cf50000a003a00060037000d30a00065
:100e9000050037000d00a000030037000d10a00072
:100ea000010037000d20a0000e07e800e7ff370023
:100eb0000d18a300010032000d00a1000d38a300a1
:100ec000010032000d20a1000100fb0002fd2f00f7
:100ed00002004000e90f50000e003e000002eb004f
:100ee000c4b79f0082017800cfb297006a28b9008a
:100ef0001e01fb000001410003014100c2b79f0039
:100f00005e00fb0003004000e90f50000b003e00b4
:100f1000f5ff37000006eb00ccb79f00a0c2b3007e
:100f200080cf500005003a000fb89700c00078004d
:100f300080bf9f00c1b79f000e07e8000001eb00d3
:100f4000b2b79f00e0c2b3009e4f100018003a00f5
:100f50000de0a0008e00e80064405000914f1000aa
:100f600002003200010778000c0037000fba97002a
:100f7000c402780084bf9f00b5b79f000e87e800c9
:100f80000b0037003fb697006a60b90000004100cf
:100f900003004000b0b79f000e07e8001e01fb00f1
:100fa00003fd2f0003004100e90f5000f5ff36005c
:100fb000be407800e1d79f00c0c6b30080cf50008c
:100fc000220032000f003c006940500080cf5000ea
:100fd0007700320004003c000104e00031023200de
:100fe0006b4050000f00370040c6b30080cf500068
:100ff000930032006540400080cf50008b003a00e3
:101000008f00370030c7b30080cf50001a00320085
:1010100007003c006440500080cf500011003200b7
:101020000040e80080cf500080003a000f003700f9
:1010300050c7b30080cf50008000320063404000b2
:1010400080cf500079003a000900370000002800e6
:101050000d48a30001003a000001200080867600c0
:10106000d3ff37000d60a000750037000d50a000c1
:101070000d70a000720037008fb897004100780013
:1010800081bf9f00000478000000e00001003a00ea
:1010900088c021008004eb00010037008104e800d3
:1010a00089007800088044001004e000fbff3a004b
:1010b0003fb197000200e00003003200890f5100a9
:1010c00001003100820478000002eb00e4af9f00d1
:1010d000cfb29700898f520002003600098052007b
:1010e000e0af9f004368de00e10660001b003a00ad
:1010f0000d06780009003700ffb0970000022000bd
:10110000ef010700e10f4000030032002fb097000d
:101110000000e800a0b79f000c06e800efa89700c9
:10112000810f5600f4ff3a000081eb00e2af9f0010
:101130000a003700880078003100fb0001047800c5
:10114000ffb09700de010700e10f4000030032000e
:101150002fb297000402e800a4b79f000900e9003d
:1011600080047800e10f4000f2ff3a000006eb0037
:101170000d00e0000a003a00c6013700ffb09700fa
:1011800000022000ce010700e10f40000300320002
:10119000afb297008502e800a5b79f000c06e800f3
:1011a0006fa89700800f5600f4ff3a00b90137008e
:1011b0008fb897004100780081bf9f00cf80de008c
:1011c00001017800820178000205be000004be0023
:1011d0000203be000002be004822de00482edd00f1
:1011e00004027600e4d79f000d48a3000a003200f5
:1011f0000404e00008003200e14f42000600320023
:1012000071fd2f00018047000448780018409800c5
:101210002900200002003700f0d79f0019002000ad
:1012200072fd2f0002844700a1ff370064fd2f00ec
:1012300004844700190020009dff37000d0cb30007
:101240000d007800000cb20028003a000d00e0000c
:1012500005003d008fba97004505be004504be005d
:1012600085bf9f00140037000d48a3000b0032001b
:101270000fbe97004c00be008cbf9f004f89de0060
:10128000cf91de000002be000203780082037800e6
:101290000605be000404be00070037008fb89700a3
:1012a0004100780081bf9f0000047800cfc4de00b9
:1012b000090578008a057800e00f5400e08f5c0093
:1012c000e00f5d00e08f5d001f003d003d00b300ba
:1012d0006000b8006011b80008045000898458000c
:1012e0000a0559008b855900170037000d00e000f2
:1012f00005003d000fb997004205be004204be0044
:1013000082bf9f00100037000d48a3000700320085
:101310000fba97004400be0084bf9f006011b80060
:101320000205be000004be00070037008fba970018
:101330004500780085bf9f00000478000900200068
:101340000a0020000b0020003fb697000c00e000d0
:1013500007003a00e00f5400e08f5c00e00f5d00f2
:10136000e08f5d0002003a0010002000b0b79f003f
:101370008d007800010cb200e1b79f00000420004e
:10138000808f50003000320003003c000100e0007c
:101390000800320040003700000820006fb19700bd
:1013a000800f510014003200000c2000800f51000b
:1013b00039003a0014c0b30065b121000b003700ba
:1013c0000400fb004300dd00050040005001be00aa
:1013d0004000be000040e10001c8e10002d0e10091
:1013e00003d8e1002b0039000442e800f44f52001a
:1013f000f3ff3a0027003700000120000100200021
:101400006011b80014c0b3000040e10001c8e10061
:1014100002d0e10003d8e1001e00390045002000a1
:101420000000d0008180d2000281d2008381d200ee
:101430008502e900faff3a000442e800f04f52004a
:10144000f1ff3a0013003700800020000100200067
:101450006011b80014c0b3000040e10001c8e10011
:1014600002d0e10003d8e1000a0039003c0020006e
:101470000000d0008180d2000281d2008381d2009e
:101480000c06e900faff3a000442e800f54f52006a
:10149000f1ff3a00e4d79f00efd097000100fb0076
:1014a0003fb19700820f500002003d00e2d79f003d
:1014b000040037003fb29700800f520001003d004a
:1014c000b0b79f00cfb297000500e00004003200e3
:1014d00063806600020032008502e900c5b79f0004
:1014e0000de8a3000b0032004fb697003fb0970005
:1014f000800f560003003c008000eb00c1b79f0046
:10150000040037004fb197003fb29700040151002b
:10151000c2b79f00efd297000500fb000006eb006a
:10152000dcaf9f00cfb09700808f500002003400e6
:1015300000805000d0af9f000d28a300370032007c
:10154000e18066000d18a3000c003200d0022000dc
:101550000100e00001003a000080e900ffb09700c0
:10156000d7000700e10f40000e0032002fb19700b6
:101570000201e800a2b79f000a0037000100e00066
:1015800008003200ffb0970000022000cc000700e6
:10159000e10f4000030032002fb297000402e80080
:1015a000a4b79f00dfaa97000500e0000f003200fb
:1015b0000006eb00ffb0970000032000c00007000a
:1015c000e10f4000030032002fb097000000e80058
:1015d000a0b79f000c06e800dfa89700810f560017
:1015e000f4ff3a000001eb00d2af9f003fb297003a
:1015f000c320dd00e0b021008080400091b79f0053
:101600004220dd006400500080b79f006320b900d5
:10161000f0af9f006306500084003700dfaa9700f8
:101620000500e00011003200688066000f003a00fb
:1016300000067800ffb0970000022000a00007001d
:10164000e10f4000030032002fb097000000e800d7
:10165000a0b79f000c06e800dfa89700810f560096
:10166000f4ff3a000001eb00d2af9f00e18066007a
:101670000d18a3000c003200d00220000100e00091
:1016800001003a000080e900ffb097008c000700dd
:10169000e10f4000d5ff32002fb297000402e800ae
:1016a000a4b79f00d1ff37000100e000cfff320058
:1016b000ffb097000002200081000700e10f40000a
:1016c000caff3200afb297008502e800a5b79f00bd
:1016d000c6ff370000042000efb09700808f500055
:1016e0003100320003003c000100e000080032003d
:1016f0003e003700000820006fb19700800f5100b6
:1017000011003200000c2000800f510037003a0019
:101710001fb097003002be002003be000800be00cc
:101720000a01be005dfc0700a400200005002000a7
:101730006033b80060fc070004c3b30004424000fb
:10174000e4d79f0029003700f5c02100d5b79f00de
:101750000d58a30002003a0000c22100d0b79f003c
:1017600014002000050020006033b8008fb09700ff
:101770008100e900050033000402d0008582d20018
:101780000683d2008783d200f9ff37000800be002d
:101790000a01be0041fc07006f0060005fb19700c6
:1017a000624078001000370014002000050020007f
:1017b0006033b8000c0078000000e9000500330039
:1017c0000402d0008582d2000683d2008783d20033
:1017d000f9ff37000800be000a01be002ffc070019
:1017e000674060000043b000e0d79f00efd0970053
:1017f0000100fb00ffb0970031000700e10f40003f
:10180000030032002fb197000201e800a2b79f0049
:101810001fb297006802520094b79f008fb29700e2
:10182000e482520085b79f0063065600d0ff2f0068
:101830003fb197000090b9007faa970000004200d6
:1018400063005000800f5600a2ff3a000d38a3003d
:1018500010003200dfaa97000500e0000d00340000
:101860000006eb00ffb09700000220001400070004
:10187000e10f4000030032002fb097000000e800a5
:10188000a0b79f000c06e800dfa89700810f560064
:10189000f4ff3a00be407800e1d79f000104e00069
:1018a0005dfd3a002fb097004f0778004f06be004d
:1018b0004f05be004f04be00ef01b100000006005e
:1018c000889fbe000001780001047800b1009000fc
:1018d0000118a3003d0032000198a30003003a0064
:1018e000180090000000e00038003a000190a000cd
:1018f0003104980082047800f90fb20018009000bb
:101900000000e00002003a0028009000000c78007f
:10191000ea8f540006003a00380090000078a300d7
:1019200003003a0088007800d0002000e4ff0700a0
:101930009800900058009000808f50000b003200fb
:101940000100e80010049800180078000958780099
:10195000000c780011c0b300c0c521000148780018
:10196000ea8f540006003200190037008800780022
:10197000094078001900070080047800140037003f
:10198000380090000088a300110032001801900078
:10199000a800900048009000fffa0700980090000f
:1019a000810f500004003200380090000003b300a3
:1019b000300498008084eb000000eb0010049800d5
:1019c00028009000000c7800010037008084eb00b4
:1019d000090078004f04be00000006000200fa0073
:1019e000889fbe00a0ff9f0001047800b100900016
:1019f000810478000904b200020032000000fb00fc
:101a0000360037000118a30005003a000103b300b7
:101a100031049800190498000080eb002f00370073
:101a2000580090000000e00006003a0048009000d6
:101a300012002000e6805700d7fa0700190498002a
:101a400024003700280090000000e00008003a0061
:101a500080c5210020049800000c780020002000a0
:101a600050049800100498000130a0003104980040
:101a700018019000a800900048009000c6fa0700e6
:101a800028009000000c78000080eb001004980003
:101a900018007800aff8970001587800000c780023
:101aa0002ff89700ea4f50000a003a0038009000e3
:101ab0000088a3000700320018019000a8009000e1
:101ac00048009000b4fa070019049800a80090009c
:101ad000010c7800aff897000100fb004f04be0036
:081ae0000080fa00000006007e
:020000040000fa
:020000040005f5
:0457f400fffc0000b6
:020000040000fa
:020000040005f5
:0457f800be1b0000d4
:020000040000fa
:020000040005f5
:0457fc006b3f0000ff
:020000040000fa
:10000800c8020000c8020000c8020000c8020000c0
:10001800c8020000c8020000c8020000c8020000b0
:10002800c8020000c8020000c8020000c8020000a0
:10003800c8020000c8020000c802000050260000e4
:10004800f2270000c8020000641d0000b42600006a
:1000580036270000c8020000c8020000c8020000dd
:10006800c8020000c8020000c8020000c802000060
:10007800c8020000c8020000c8020000c802000050
:10008800c8020000c8020000c80200006a29000077
:100098000c2b0000c802000056280000d8280000d9
:1000a800c8020000c8020000c8020000c802000020
:1000b800c8020000c8020000c8020000c802000010
:1000c800c8020000c8020000c8020000c802000000
:1000d800c8020000c8020000c8020000c8020000f0
:1000e800c8020000c8020000c8020000c8020000e0
:1000f800c8020000c8020000c8020000c8020000d0
:10010800c8020000c8020000c8020000c8020000bf
:10011800c8020000c8020000c8020000c8020000af
:10012800c8020000c8020000c8020000c80200009f
:10013800c8020000c8020000c8020000c80200008f
:10014800c8020000c8020000c8020000c80200007f
:10015800c8020000c8020000c8020000c80200006f
:10016800c8020000c8020000ce290000502a000082
:10017800c8020000c8020000c8020000c80200004f
:10018800702b0000f22b0000c8020000c80200001b
:10019800c8020000c8020000c8020000c80200002f
:1001a800c8020000c8020000c8020000c80200001f
:1001b800c8020000c8020000c8020000c80200000f
:1001c800c8020000c8020000c8020000c8020000ff
:1001d800c8020000c8020000c8020000c8020000ef
:1001e800c8020000c8020000c8020000c8020000df
:0801f800c8020000c80200006b
:020000040000fa
:10020800c8020000c8020000c8020000c8020000be
:10021800c8020000c8020000c8020000c8020000ae
:10022800c8020000c8020000c8020000c80200009e
:10023800c8020000c8020000c802000050260000e2
:10024800f2270000c8020000641d0000b426000068
:1002580036270000c8020000c8020000c8020000db
:10026800c8020000c8020000c8020000c80200005e
:10027800c8020000c8020000c8020000c80200004e
:10028800c8020000c8020000c80200006a29000075
:100298000c2b0000c802000056280000d8280000d7
:1002a800c8020000c8020000c8020000c80200001e
:1002b800c8020000c8020000c8020000c80200000e
:1002c800c8020000c8020000c8020000c8020000fe
:1002d800c8020000c8020000c8020000c8020000ee
:1002e800c8020000c8020000c8020000c8020000de
:1002f800c8020000c8020000c8020000c8020000ce
:10030800c8020000c8020000c8020000c8020000bd
:10031800c8020000c8020000c8020000c8020000ad
:10032800c8020000c8020000c8020000c80200009d
:10033800c8020000c8020000c8020000c80200008d
:10034800c8020000c8020000c8020000c80200007d
:10035800c8020000c8020000c8020000c80200006d
:10036800c8020000c8020000ce290000502a000080
:10037800c8020000c8020000c8020000c80200004d
:10038800702b0000f22b0000c8020000c802000019
:10039800c8020000c8020000c8020000c80200002d
:1003a800c8020000c8020000c8020000c80200001d
:1003b800c8020000c8020000c8020000c80200000d
:1003c800c8020000c8020000c8020000c8020000fd
:1003d800c8020000c8020000c8020000c8020000ed
:1003e800c8020000c8020000c8020000c8020000dd
:0803f800c8020000c802000069
:020000040000fa
:101ae8004f460000460000000000000032330000ae
:101af8003200000000010000323300003200000014
:101b080000010000343800003548000000030000e0
:101b1800345800005846000000040000313000002e
:101b28003000000000000000000000006400000019
:101b3800000000003330000030000000000000000a
:101b4800000000002c0100000000000036300000fa
:101b580030000000000000000000000058020000f3
:101b680000000000313200003030000000000000aa
:101b780000000000b0040000000000003234000043
:101b88003030000000000000000000006009000084
:101b98000000000034380000303000000000000071
:101ba80000000000c01200000000000039360000ec
:101bb8003030000000000000000000008025000018
:101bc8000000000031340000343000003000000014
:101bd800000000004038000000000000313900001b
:101be800323000003000000000000000004b000010
:101bf80000000000333800003430000030000000de
:101c080000000000009600000000000035370000ca
:101c180036300000300000000000000000e1000045
:101c28000000000031310000353200003030000083
:101c38000000000000c20000010000003132000076
:101c480038300000303000000000000000f40000d0
:101c5800010000003235000036300000303000004e
:101c68000000000000e800000300000084070000f6
:101c7800a4050000c2050000c60500000c0700000e
:101c88002c0500004a0500004e0500001000000069
:101c9800300000005105000055050000100000004c
:101ca8003000000055050000550500000102000045
:101cb80004080000503000003100000050300000df
:101cc80032000000503000003300000050300000a7
:101cd8003400000050300000783a0000003a00005c
:101ce800003a0000383a00004e3a0000313a00004d
:101cf80030000000302e0000302e000032000000be
:101d08005030000031000000503000003200000068
:101d18005030000033000000503000003400000054
:101d28007c00000053500000570000005350000092
:101d3800430000005645000052000000494e0000d4
:101d480049000000f2ff0000f3520000434f00007a
:101d58004d52000053540000f4f50000f500000057
:101d6800f2ff0000f3520000434f00004d53000003
:101d780050570000f4000000f5f5000000000000d6
:101d8800000000000000000000000000000000004b
:101d9800000000000000000000000000000000003b
:101da8000000000000f20000fff3000052430000b2
:101db8004f4d00004552000052f40000002500007d
:101dc8003033000075f50000f500000025300000f4
:101dd800337500003a580000583a00002573000097
:101de8003a25000073f50000f5000000f2ff00003e
:101df800f3520000434f00004d4900004e490000d7
:101e0800f44d0000787c000000f20000fff30000b1
:101e1800524300004f4d00005645000052f40000a8
:101e28004d7800003a000000f2ff0000f352000075
:101e3800434f00004d53000050430000f44d000094
:101e4800787c000000f20000fff30000524300001d
:101e58004f4d00005350000052f400004d78000030
:101e68007c00000050300000256300003a000000ac
:020000040000fa
:101e78002004fa00c6040700250a07000040eb000a
:101e88000cfbb700c0c32500cf00de0000007800bf
:101e980000f0a10090d88800a1d88800c0c3250010
:101ea800cf00de000000780000f0a10070d88800a4
:101eb80081d888005617070040a7a8003b050700ef
:101ec800000037000060fe00cac2bf006840600022
:101ed8000004e000010032000000fe00ccc2bf0098
:101ee8000042b2000004e0000a003a00dcc2bf0071
:101ef800624060000004e00006003a00dbc2bf0058
:101f0800684060000004e00002003200a3080700f7
:101f1800cca2a8000cdbbf000004e0006c0032007b
:101f280070d8800081d88000ef070700100798005c
:101f380070d8800081d88000800078006a0047004f
:101f4800f501090031187800c03eb100c13eb1006a
:101f58001e0090000000e00004003a0070d88000e5
:101f680081d88000db030700100798001e0090004e
:101f78000000e000070032006a004700cf00de00e2
:101f88000000780000f0a1000001be001e009000d3
:101f98004405070070d8800081d88000c23e200028
:101fa800030020000002d0008202d0000500420099
:101fb8004220a800838048004200a9004220ae00c9
:101fc8004200a8000080d30070d8880081d888001b
:101fd80070d8800081d88000424120000e01410065
:101fe8000089be0004802600034120008e81410044
:101ff8008409780000002000254120008e824200dc
:10200800800a7800614120008e804000110178002c
:10201800214120008e80400091007800810f5100fe
:1020280011003e00624120000e014100920178003b
:10203800224120000e01410012017800828f5100d8
:1020480016003a00434120008e81410013027800b7
:10205800034120008e81410093017800830f5200d4
:1020680001003e000d003700c5c325008441200053
:102078000e024200050a780001002000a04120005d
:102088000e00400001087800834120008e81410045
:102098001301be0072d8880083d8880070d88000e9
:1020a80081d880000002eb00a301800001017800c4
:1020b800a201880004087800a3018800bc01070079
:1020c8000cdbbf000040e9000cfbb700c0010700b3
:1020d8000040eb0040479800090037004e40900050
:1020e800660a07000000e000020032004e4090003f
:1020f8002e0607004e4090000040e8004047980038
:102108004e409000e34f5000f4ff3600ccc2bf00b1
:102118000042b2000004e00088003200dbc2bf00c9
:10212800684060000004e00084003200b0dd8000f8
:1021380030079800b0dd800040079800be0090008e
:102148004e009000808f50007c003a003e009000c6
:102158000000e00079003200dcc2bf00614060008e
:102168000004e00002003a00dc02a8007300370017
:10217800e2c2bf0001c8b300014060000004e000f3
:102188006e003200cca2a90041e2a9009540a90046
:102198008540a900012420009140780030ceb3008a
:1021a80000c060000044a00040e2b70041e2a8007f
:1021b8005b003700e0dd8000f1dd800093018000e6
:1021c800010178009201880010407800930188008e
:1021d8000080fb0040128800e0dd8000f1dd800017
:1021e8000000d0002000b0004220a800e080480095
:1021f8004220ae004200a8000080d300e0dd880045
:10220800f1dd8800e4dd8000f5dd8000c0402000bd
:102218000e0040000488be00f0ff2800cf00de005a
:102228000000780000f0a10003802f00c2412000c8
:102238000e0141000309780015002000e441200048
:102248000e024200050a7800c34120008e81410039
:102258001301be000002d0008202d0000500420037
:102268004220a800838048004200a9004220ae0016
:102278004200a8000080d3000001be008440200076
:102288000e024200028abe00e54020008e82420013
:1022980015007800a54020008e8242009502780043
:1022a800850f500011003e00e04020000e00400065
:1022b80090007800a04020000e0040001000780038
:1022c800808f500016003a00c14020008e804000e8
:1022d80011017800814020008e8040009100780034
:1022e800810f510001003e000d00370003802f00d0
:1022f800424020000e01410003097800150020002b
:10230800644020000e024200050a78004140200087
:102318008e8040001100be00e0dd8800f1dd8800fd
:1023280040c2bf00624060000004e000a1ff32002c
:102338009540a800dc02a900dc22a800cac2bf00a0
:10234800704060000004e00075003a00f2dabf0057
:102358000004e0000500320003c2b3003240200050
:102368000e01410003497800040037008042eb0069
:10237800344020000e024200054a78003040200018
:102388000e00400010407800004f7800f6dabf00d9
:102398000004e000060032001e4178000244a0005c
:1023a800214020008e8040008248780005003700d8
:1023b800f0ceb3001e426000234020008e81410011
:1023c80084497800254020008e824200954278009a
:1023d800054f7800911207000000e00025003a0040
:1023e800f3dabf000004e000060032009e407800e7
:1023f8000134a000104020000e0040000148780081
:102408000500370070cfb3009e41600012402000e5
:102418000e01410003497800144020000e024200da
:1024280014427800044f7800f7dabf000004e00097
:10243800060032001e4078000024a000054020005d
:102448008e824200804a780005003700b0cfb30082
:102458001e416000014020008e80400082487800c4
:10246800034020008e81410093417800034f78009b
:10247800bb003700741207000000e000250032009e
:10248800f4dabf000004e000060032009e42780043
:102498000534a000f43f20000e024200054a7800ef
:1024a8000500370070cfb3001e416000f13f2000e7
:1024b8008e80400082487800f33f20008e814100e2
:1024c80093417800034f7800f8dabf000004e00079
:1024d800060032009e4278000524a000e43f200058
:1024e8000e024200054a780005003700b0cfb3005d
:1024f8001e416000e13f20008e8040008248780045
:10250800e33f20008e81410093417800034f78001b
:102518009300370030cfb3001e4f600090003700a3
:10252800491207000000e00047003a00f4dabf0053
:102538000004e0000500320005c2b300d43f2000cb
:102548000e024200054a7800040037008040eb0084
:10255800d03f20000e00400001487800d23f200004
:102568000e01410012417800024f7800f8dabf00ee
:102578000004e000060032001e4278000444a00077
:10258800c33f20008e814100844978000500370050
:10259800f0ceb3009e406000c53f20008e8242000e
:1025a800814a7800c23f20000e01410012417800a4
:1025b800024f7800f5dabf000004e00006003200a0
:1025c8001e4278000434a000b33f20008e814100f1
:1025d800844978000500370070cfb3009e40600042
:1025e800b53f20008e824200814a7800b23f200029
:1025f8000e01410012417800024f7800f9dabf005d
:102608000004e000060032001e4278000424a00006
:10261800a33f20008e8141008449780005003700df
:10262800b0cfb3009e406000a53f20008e824200dc
:10263800814a7800a23f20000e0141001241780033
:10264800024f780046003700f2dabf000004e000cd
:102658000500320004c2b300933f20008e81410080
:1026680084497800040037000040eb00953f2000c3
:102678008e824200804a7800913f20008e80400080
:1026880091407800014f7800f6dabf000004e000be
:10269800060032009e4178000344a000823f2000db
:1026a8000e0141000349780005003700f0ceb30061
:1026b8009e426000843f20000e024200054a7800d6
:1026c800803f20000e00400010407800004f780046
:1026d800f4dabf000004e000060032001e41780072
:1026e8000234a000713f20008e80400082487800ac
:1026f8000500370070cfb3001e426000733f200012
:102708008e81410084497800753f20008e82420006
:1027180095427800054f7800f8dabf000004e00021
:10272800060032009e4078000124a000603f20008f
:102738000e0040000148780005003700b0cfb30014
:102748009e416000623f20000e014100034978006d
:10275800643f20000e02420014427800044f7800c3
:102768001e81fb00e1168000c0032000008060008d
:10277800800f5100d3fd32000d000700e1168000e4
:1027880030fc2f0000806000e01688009e80fb006f
:10279800e016800000807000e01688000c0007003a
:1027a800c8fd37000000fa0001000700ffff3700ee
:1027b8000000fa000600fc0042c0bf0001ceb300d2
:1027c8000140700042e0b7000080fa0000000600f7
:1027d8000000fa000600fc0042c0bf007f40600015
:1027e80042e0b7000080fa00000006000a00fa0084
:1027f800640147000089be000000eb001007980044
:10280800640047001000be009301800001017800b9
:10281800920188001000780093018800f4005000ad
:10282800640047001002be0074814000cf91de00b2
:1028380002007800830078000001d0008401d000f5
:10284800030041004220a800858048004200a900fa
:102858004220ae004200a8000080d3000042eb00f6
:102868000000d0004000b0004220a800e0804800ee
:102878004220ae004200a8000080d300a3018000df
:1028880001017800a201880004487800a3018800ab
:102898000040eb0010479800640047001000be009d
:1028a8000000d0004002b0004220a800e0804800ac
:1028b8004220ae004200a8000080d3003200200071
:1028c80041e8280095f807000000e00008003a00f9
:1028d8000040eb00004f780023c2bf000080fb00df
:1028e8004200de0061406000104798004500370054
:1028f800640047001000be000000d0004002b00095
:102908004220a800e08048004220ae004200a80013
:102918000080d3003200200081e828007ff80700fb
:102928000000e00008003a0010c0b300004f780033
:1029380033c2bf000080fb004200de00614060003f
:10294800104798002f003700640047001000be00b1
:102958000000d0004002b0004220a800e0804800fb
:102968004220ae004200a8000080d30032002000c0
:10297800c1e8280069f807000000e00008003a00f4
:1029880020c0b300004f780053c2bf000080fb0096
:102998004200de00614060001047980019003700cf
:1029a800640047001000be000000d0004002b000e4
:1029b8004220a800e08048004220ae004200a80063
:1029c8000080d3003200200001e9280053f80700f6
:1029d8000000e00008003a0030c0b300004f780063
:1029e800b3c2bf000080fb004200de00614060000f
:1029f8001047980003003700300020004007980077
:102a0800150037001e409000e14f500010003a00ba
:102a1800640047001000be000000d000c002b000f3
:102a28004220a800e08048004220ae004200a800f2
:102a38000080d300800078001e4078002808070036
:102a4800100798001e019000420798000200370006
:102a580023162000430798004e0090000080fa00db
:102a6800000006000800fa000e81e8000089be0098
:102a78000000eb00000f7800010037001e0fe8008f
:102a88000e80e8001000be0093018000010178006c
:102a980092018800104078009301880060479800f0
:102aa8006e4090000004e0000200320010c0b30045
:102ab80060479800ee4190000e80e8001000be00cc
:102ac8000000d0002000b0004220a800e0804800ac
:102ad8004220ae004200a8000080d3000e81e8002a
:102ae8000089be00034078000004a2000004e00052
:102af80003003a00d0ff2f009e0f1000dfff3600c2
:102b08001e0078000080fa00000006000204fa00a7
:102b1800c23f20000e0141000089be000000eb000a
:102b280020079800e60047000000eb0080087800c6
:102b3800e60047000000eb0090009800e600470020
:102b48000000eb00a0009800e60047000000eb0042
:102b5800b0009800e60047000000eb00c0009800b5
:102b68000040eb0020479800c03f20000e004000c6
:102b78001000be00930180000101780092018800d6
:102b880010007800930188008000e900c03f200011
:102b98000e0040001002be0064814000cf91de00ac
:102ba80002007800830078000001d0008401d00082
:102bb800030041004220a800858048004200a90087
:102bc8004220ae004200a8000080d3000042eb0083
:102bd800a301800001017800a20188000448780060
:102be800a3018800c03f20000e0040001000be0076
:102bf800930180000101780092018800100078009c
:102c0800930188008080e900c03f20000e0040004a
:102c18001002be0064814000cf91de0002007800ff
:102c2800830078000001d0008401d0000300410037
:102c38004220a800858048004200a9004220ae003a
:102c48004200a8000080d3000042eb00a3018000ee
:102c580001017800a201880004487800a3018800d7
:102c6800c03f20000e0040001000be000000d00051
:102c78008000b0004220a800e08048004220ae005a
:102c88004200a8000080d300800078007000470050
:102c9800640040000d00090031587800e000b100e0
:102ca800e100b100c03f20000e0040001000be004f
:102cb8000000d000e001b0004220a800e0804800f9
:102cc8004220ae004200a8000080d30041e928005d
:102cd800a3f7070020079800150037002e40900042
:102ce800e44f50000500360051002000004020004d
:102cf8000e00400001087800710037002e40900057
:102d08000080fb00e6004700000040002e01900014
:102d180002b078002e4090000040e800204798005c
:102d280041e928000000eb008df707002007980014
:102d38002e0090000000e000e8ff3a000040eb00a1
:102d480020479800570037002e4090000080fb0075
:102d5800e600470000004000608078000000e000c6
:102d68004d0032002e4090000004e00016003a00aa
:102d78002e4090000080fb00e60047000000400065
:102d88006080780090407800d0c4b30080cf5000b5
:102d980008003a002e4090000080fb00e600470043
:102da80000004000608078008af70700e20f5000ba
:102db8003900320050002000034020008e8141007d
:102dc800800978003e0037002e4090000080fb000c
:102dd800e600470000004000608078007df70700ab
:102de800304798003e4090000081fb002e40900044
:102df8000080fb00e600470000004000e08078000b
:102e0800700047007200400078f707003e409000cd
:102e18000080fb006e004000f000470064004000a6
:102e28008100400050cfb300804878003e409000b9
:102e38000080fb006f004000f00047006400400085
:102e48008100400050cfb300804878003e40900099
:102e58000080fb0070004000800078007000470090
:102e68000108780070004700cf00de0000007800fd
:102e780000f0a1001a0e0700000f78001e00e00005
:102e8800050032001e017800014020008e804000bd
:102e9800820878000a0037002e4090000040e800c1
:102ea800204798002e409000e44f5000a6ff3600bf
:102eb8000000eb00034020008e814100800978006b
:102ec800014020008e804000110078000080fa0048
:102ed800000006000800fa000e81e8000089be0024
:102ee8000e80e8001000be00930180000000d000b2
:102ef800e000b0004220a800e08048004220ae0078
:102f08004200a8000080d3000101780092018800e7
:102f1800904078009301880040c5b30080cf5000ee
:102f28001b003a000e80e8001000be000000d00030
:102f38006001b0004220a800e08048004220ae00b6
:102f48004200a8000080d3003200200061e9280078
:102f5800f2f607000000e0000a003a000e80e800e0
:102f68001000be0021fe0700000f78001e00e000e0
:102f780082003a000e80e8001000be001b01070026
:102f88007e00370020002000300798007d003700c1
:102f98000e80e8001000be00930180000000d00001
:102fa800e000b0004220a800e08048004220ae00c7
:102fb8004200a8000080d300010178009201880037
:102fc800904078009301880010c5b30080cf50006e
:102fd80027003a000e80e8001000be000000d00074
:102fe8006001b0004220a800e08048004220ae0006
:102ff8004200a8000080d30032002000a1e9280088
:10300800c6f607000000e00004003a000000eb00ec
:10301800000f780032020700580037000e80e800e1
:103028001000be000000d0006001b0004220a800df
:10303800e08048004220ae004200a8000080d30093
:1030480032002000e1e92800b4f607000000e000a3
:1030580004003a000000eb00000f780005020700aa
:103068004600370020002000300798004500370050
:103078000e80e8001000be00930180000000d00020
:10308800e000b0004220a800e08048004220ae00e6
:103098004200a8000080d300010178009201880056
:1030a800904078009301880030c4b30080cf50006e
:1030b8002f003a000e80e8001000be000000d0008b
:1030c8006001b0004220a800e08048004220ae0025
:1030d8004200a8000080d3003200200021ea280026
:1030e8008ef607000000e00008003a000e80e800b5
:1030f8001000be0085fe0700000f78000000eb00fe
:10310800000f7800ac0107001c0037000e80e800b3
:103118001000be000000d0006001b0004220a800ee
:10312800e08048004220ae004200a8000080d300a2
:1031380032002000a1e9280078f607000000e0002e
:1031480008003a000e80e8001000be006ffe07007d
:10315800000f78001e00e00008003a00e0010700b8
:1031680006003700200020003007980005003700cf
:103178002000200030079800020037001e00780069
:10318800300798003e0090000080fa00000006001a
:103198000000fa004227a90042c7bf000042b2005f
:1031a8000004e000fcff32000000eb00102788005c
:1031b8000000eb00202788000000eb003027880083
:1031c8000000eb00502788000000eb006027880013
:1031d8000000eb0060168800cca2a8000000eb00fd
:1031e800e0168800d842a900d862a900d882a900b0
:1031f800d8a2a900d822a900d802a900c8a2a9006b
:10320800e0e2a800c882a800c862a800e402a900f9
:10321800e422a900e442a800e462a800e002a900b0
:10322800e022a900e042a900e062a900316c200078
:103238009140780000ccb30000c060007040b3003b
:10324800c3e6b700816a20009140780000ccb30043
:1032580000c060000024a000a8e6b700916a200022
:103268009140780000ccb30000c060000014a000ba
:10327800a9e6b700a16a20009140780000ccb3000d
:1032880000c06000c040b300aae6b700c30307004f
:10329800616c20009140780000ccb30000c0600051
:1032a8003040b300c6e6b700416a2000914078007c
:1032b80000ccb30000c060007040b300a4e6b700c3
:1032c800516d20009140780000ccb30000c0600030
:1032d800c041b300d5e6b700316a200091407800bc
:1032e80000ccb30000c06000a041b300a3e6b70063
:1032f800916c20009140780000ccb30000c06000c1
:103308005040b300c9e6b700616a200091407800d8
:1033180000ccb30000c060000034a000a6e6b700ef
:10332800b16d20009140780000ccb30000c060006f
:10333800e041b300dbe6b700616b20009140780004
:1033480000ccb30000c060003041b300b6e6b7005f
:1033580022c2bf00f043b20022e2b70032c2bf006f
:10336800f043b20032e2b70052c2bf00f043b200ed
:1033780052e2b700b2c2bf00f043b200b2e2b700f7
:1033880023e2a80023a2a90033e2a80033a2a900df
:1033980053e2a80053a2a900b3e2a800b3a2a9006f
:1033a800570907000080fa00000006000000fa0034
:1033b8003611070080007800ec8f500009003600b5
:1033c8000001eb0060ea280001202000c70e07007a
:1033d800f7fc0700b0dd80000000e800b0dd8800e1
:1033e800fbfc07000080fa00000006001800fa0045
:1033f800740147000089be0030ec2800104f7800a7
:103408000e00e800320120008000eb00fef5070006
:10341800740047001000be000000d000e001b000ba
:103428004220a800e08048004220ae004200a800e8
:103438000080d30005000900305f78006e00b100fd
:103448006000b1001111070080007800ec8f500077
:10345800120036000001eb0040eb2800012020009c
:10346800a20e0700cf70de000e00780000f0a10069
:103478000001eb009d0e07000001eb0000ec2800a6
:1034880001202000990e0700c9fc0700b0dd80006c
:103498000000e800b0dd8800cdfc07000080fa00dd
:1034a800000006000204fa0060bf9b00e03f200015
:1034b8000e0040000288be00411f20008e804000a0
:1034c80030ec2800904878000100e8003201200024
:1034d8008000eb00ccf50700812020008e804000a2
:1034e80030ec2800904878000100e800321f2000e6
:1034f8008000eb00c4f50700e03f20000e0040000c
:103508001000be009301800001017800920188003c
:1035180010007800930188000000e0008b00320062
:10352800e03f20000e0040001000be000042eb000b
:103538000000d000c001b0004220a800e080480090
:103548004220ae004200a8000080d300a301800002
:1035580001017800a201880004487800a3018800ce
:10356800e03f20000e0040001000be0093018000e4
:10357800010178009201880010007800930188000a
:103588008080e900e03f20000e0040001002be00ed
:1035980064814000cf91de0002007800830078004b
:1035a8000001d0008401d000030041004220a8009f
:1035b800858048004200a9004220ae004200a800d1
:1035c8000080d3000042eb00a301800001017800d5
:1035d800a201880004487800a3018800ab10070006
:1035e80080007800ef8f5000710036000001eb007a
:1035f80070ed2800012020003c0e07006eb89300f3
:10360800e10f50000b003200e03f20000e004000a8
:103618001000be009301800001017800920188002b
:103628009000780093018800301f2000808f5000a0
:10363800080036006eb89300801f780030ee28002e
:10364800801f78000e00780076f50700e4875700a1
:1036580033003700e03f20000e0040001000be009d
:103668000000d000e000b0004220a800e080480040
:103678004220ae004200a8000080d30080007800fd
:10368800401f20000e004000720020007cf507005b
:10369800e03f20000e0040001000be0093018000b3
:1036a80001017800920188001000780093018800d9
:1036b8006d015000e03f20000e0040001000be00e9
:1036c8000000d000e001b0004220a800e0804800df
:1036d8004220ae004200a8000080d300800078009d
:1036e800802020000e00400065f5070080202000a3
:1036f8000e004000801f7800401f20000e00400090
:10370800801f78006eb99300821f7800a0ee280011
:10371800801f78000e00780042f50700e887570000
:10372800cf70de000e00780000f0a1000001eb0071
:10373800ee0d07001efc0700b0dd80000000e80069
:10374800b0dd880022fc0700190037004f10070081
:1037580080007800ef8f5000150036000001eb0064
:1037680070ed280001202000e00d0700eeb993005d
:10377800831f780030ee2800801f78000e00780044
:1037880028f50700e4875700cf70de000e007800a8
:1037980000f0a1000001eb00d40d070004fc0700b5
:1037a800b0dd80000000e800b0dd880008fc0700fc
:1037b8000080fa00000006003400fa003310070009
:1037c80000017800e1062000810f51002700360033
:1037d8000001eb00a0ef280001202000c30d070026
:1037e8000040eb00004f7800140037000e00e8009e
:1037f8009e407800070d07001e04e0000800320014
:103808000e01e800124178000204e00004003200d2
:103818001200200040e9280001202000b30d070015
:103828000e00e800cf00de000000780000f0a100e4
:103838000001eb00ad0d07001e4fe80032c0b300d9
:103848009e4f1100e9ff36000001eb0000ec280054
:1038580001202000a50d0700d5fb0700b0dd800082
:103868000000e800b0dd8800d9fb07000080fa00fe
:10387800000006000400fa00041007008000780029
:10388800ef8f5000140036000001eb0090f0280084
:1038980001202000950d0700e0e72800000f7800c0
:1038a80000202000100798000001eb001e00be0059
:1038b8008e0d07000001eb0000ec2800012020001d
:1038c8008a0d0700bafb0700b0dd80000000e800a1
:1038d800b0dd8800befb07000080fa00000006008b
:1038e8003400fa00e90f070000017800e106200023
:1038f800810f51002b0036000001eb0080f12800f9
:1039080001202000790d07000040eb00004f7800ef
:10391800180037000e00e800220320008000eb00aa
:10392800b9f407000e00e8009e407800b90c0700c3
:103938001e04e000080032000e01e8001241780081
:103948000204e000040032001200200040e92800d0
:1039580001202000650d07000e00e800cf00de0002
:103968000000780000f0a1000001eb005f0d0700e7
:103978001e4fe80032c0b3009e4f1100e5ff36002d
:103988000001eb0000ec280001202000570d070083
:1039980087fb0700b0dd80000000e800b0dd88008c
:1039a8008bfb07000080fa00000006000c00fa00fc
:1039b800204f9800e400470030ec28009048780039
:1039c8000100e8008040eb00014878000000e800b2
:1039d8008040eb00014878000000e8008040eb00e0
:1039e800014878000000e8008040eb0001487800ba
:1039f8002e4890001c030700100798009e009000b6
:103a08002e489000fe010700000f78001e00e0001d
:103a180029003a001e0090000000e0002600320055
:103a28009a0f0700800078001e0190007401410081
:103a3800828f5000200039000001eb0070f228004e
:103a480001202000290d07002e4890000080fb006f
:103a58001003b000e4004700801f780060f32800de
:103a6800801f7800010078006ef40700e487570093
:103a780064004700cf00de000000780000f0a100dd
:103a88000001eb00190d07009e0090002e489000e1
:103a9800890207000001eb0000ec2800012020004b
:103aa800120d070042fb0700b0dd80000000e800af
:103ab800b0dd880046fb07000080fa000000060021
:103ac800809fbe00829fbe00849fbe00869fbe006e
:103ad800889fbe001e00fa00ccc2bf000042b200a0
:103ae8000004e000f4003a0040c2a900e0dd8000d4
:103af800f1dd8000930180000101780092018800c7
:103b080010407800930188000080fb004012880074
:103b1800e0dd8000f1dd8000930180000101780084
:103b280092018800104f780093018800e0dd800042
:103b3800f1dd80000000d0002000b0004220a80085
:103b4800e08048004220ae004200a8000080d30078
:103b5800e0dd8800f1dd8800e0dd8000f1dd800037
:103b6800720147000089be0000002900cf00de0076
:103b78000000780000f0a10003802f00330f9800a8
:103b880014002000440f9800f60147001301be00fe
:103b98000002d0008202d000050042004220a800a6
:103ba800838048004200a9004220ae004200a800dd
:103bb8000080d3006e0147000089be008e09900086
:103bc8002e0a9000848f510010003e008e0a90004b
:103bd8002e089000808f520004003a00fe009000ea
:103be8001e099000828f500008003e0003802f00bd
:103bf800530798001400200064079800ea00470063
:103c08001100be00e0dd8800f1dd880052cfb3006e
:103c18009e4f11000b003a000adbbf00eb4f40003b
:103c280008003a00dc22a900b0dd80000000e900ad
:103c3800b0dd88000040eb000afbb7009540a90002
:103c4800a10037001e4078000afbb7009e0037002d
:103c580094d88000a5d8800096d88000a7d8800086
:103c6800930180000600be000101780092018800df
:103c78001004780093018800401280008044780086
:103c880064014400cf91de000200780083007800d0
:103c98008001d0000401d000028041004220a80029
:103ca800858048004200a9004220ae004200a800da
:103cb8000080d300a301800001017800a2018800e0
:103cc80009487800a30188000802e8000600be0041
:103cd800a301800001017800a2018800040878008f
:103ce800a301880040c2a90090d88000a1d8800014
:103cf800930180000101780092018800100078008b
:103d080093018800e10f50006b00360094d88000c2
:103d1800a5d8800090d88000a1d8800093018000a9
:103d28000101780092018800100078009301880052
:103d38000000e90064014000cf91de000200780035
:103d4800830078008001d0000401d0000280410087
:103d58004220a800858048004200a9004220ae0009
:103d68004200a8000080d300930180000101780080
:103d7800920188001040780093018800eb4f4000c2
:103d88004d003a0094d88000a5d8800090d88000d3
:103d9800a1d8800093018000010178009201880079
:103da80010007800930188000080e9006401400059
:103db800cf91de0002007800830078008001d000f7
:103dc8000401d000028041004220a80085804800fc
:103dd8004200a9004220ae004200a8000080d300a3
:103de800930180000101780092018800104078005a
:103df80093018800eb4f40002f003a0090d88000d4
:103e0800a1d88000c23e2000030020000002d0009c
:103e18008202d000050042004220a80083804800aa
:103e28004200a9004220ae004200a8000080d30052
:103e380090d88800a1d8880090d88000a1d88000a8
:103e4800660147000089be0003802600130798001a
:103e58000400200024079800ce0290002e00900055
:103e6800808f520009003e00ce0090002e01900085
:103e7800828f50000d003a00be0190001e02900093
:103e8800848f510001003e0008003700c5c325009b
:103e9800550f980000002000600f9800fa014700b5
:103ea8001301be0092d88800a3d888000cdbbf009d
:103eb8000040e8000cfbb70040c2bf000042b2005f
:103ec8000004e00062ff32008540a9000080fa008b
:103ed8004f04be004f03be004f02be004f01be009c
:103ee8004f00be00004006000600fa00008fbe002a
:103ef8001e00be0093018000010178009201880035
:103f08001000780093018800ec0f500003003e0079
:103f180010002000200798009d0037001e00be00fa
:103f2800930180000000d0008000b0004220a8006b
:103f3800e08048004220ae004200a8000080d30084
:103f480001017800920188001040780093018800f0
:103f5800ee4f40008c003a001e00be009301800026
:103f68000000d000c000b0004220a800e080480057
:103f78004220ae004200a8000080d3000101780072
:103f8800920188001040780093018800ed4f4000ae
:103f98007d003a001e00be00930180000000d000a2
:103fa800c001b0004220a800e08048004220ae00d6
:103fb8004200a8000080d300010178009201880027
:103fc8001040780093018800ec4f40006e003a00e2
:103fd8001e00be0093018000010178009201880054
:103fe80010007800930188000080e9001e02be00de
:103ff80064014000cf91de00020078008300780061
:104008000001d0008401d000030041004220a80034
:10401800858048004200a9004220ae004200a80066
:104028000080d3009301800001017800920188008c
:104038001040780093018800eb4f400052003a008e
:104048001e00be00930180000101780092018800e3
:1040580010007800930188000000e9001e02be00ed
:1040680064014000cf91de000200780083007800f0
:104078000001d0008401d000030041004220a800c4
:10408800858048004200a9004220ae004200a800f6
:104098000080d3009301800001017800920188001c
:1040a8001040780093018800eb4f400036003a003a
:1040b8001e00be00930180000000d0000001b00087
:1040c8004220a800e08048004220ae004200a8003c
:1040d8000080d300010178009201880090407800a8
:1040e8009301880030c4b30080cf500023003a0009
:1040f8001e00be00930180000000d0002001b00027
:104108004220a800e08048004220ae004200a800fb
:104118000080d30001017800920188009040780067
:1041280093018800f0c4b30080cf500013003a0018
:104138001e00be00930180000000d0004001b000c6
:104148004220a800e08048004220ae004200a800bb
:104158000080d30001017800920188009040780027
:1041680093018800d0c4b30080cf500003003a0008
:104178000000eb00200798000500370052002000df
:104188002207980002003700130020002307980038
:104198002e0090000080fa00000006000200fa00dd
:1041a8000000eb00001288000000eb0010128800ed
:1041b8000000eb00201288009540a9004012800002
:1041c800000f7800012420009140780030ceb30021
:1041d80000c060000024a00040e2b70040c2a9006f
:1041e8004302a80042e2a8004402a80041e2a80055
:1041f8008540a9009540a8000080fa00000006004c
:104208001200fa00404f9800710798000000eb0078
:10421800000f78004e4890008080fb00a04b2000e3
:104228000088b9008000780080802000008040006d
:1042380040079800ce009000804b2000008040008e
:1042480010007800800078004e0090003000900048
:104258000080e800008050000000e8003007980067
:10426800be0090007e009000808f5000050039004d
:104278007e009000300798000000eb0020079800af
:10428800040037007e009000be009000010050003e
:10429800200798000000eb00500798001b0037002b
:1042a8005e0090000000e000150032004e00900013
:1042b800b00090005e0090000080e80060c07800c8
:1042c800304798004e009000b00090005e009000cb
:1042d8000000e9000080e80060c0780020479800ee
:1042e8003e409000eb4f400005003a002e40900001
:1042f800eb4f400002003a0030162000000f780013
:104308005e0090000000e80050079800de00900072
:104318003e009000808f5000e1ff39002e00900091
:104328000000e000220032000000eb005007980077
:104338001b0037005e0090000000e000150032000e
:104348005e009000ce009000680040000100400030
:1043580090407800314798005e0090000000e90026
:10436800ce009000680040000100400090407800b6
:10437800214798003e409000eb4f400005003a006e
:104388002e409000eb4f400002003a00301620000b
:10439800000f78005e0090000000e80050079800c9
:1043a800de0090002e009000808f5000e1ff390061
:1043b800301620009e0f10003a003a00fcf8070063
:1043c8004e009000100078008000e9004e00900038
:1043d80001087800fef807004e009000b000900039
:1043e8007e009000008040008080e8004e00900031
:1043f800310098004e00900030019000ce009000ef
:10440800804b20000080400010007800800f510091
:10441800140036004e4890008080fb00a04b20001e
:104428000088b900e80040008080200080814000ba
:104438004e0090003000900000017800ce009000ff
:10444800804b2000008040001000780000005100e0
:10445800008041008000e9004e0090003100980083
:104468000d0037004e00900030019000ce00900003
:10447800804b200000804000100078000080e90098
:10448800800f5100040036004e009000e800400004
:104498004e009000310098001e007800000f980030
:1044a800020037008000eb00010f98000e08900012
:1044b8000080fa00000006000a00fa006047980031
:1044c800410798006e4090008080fb00a04b2000c0
:1044d8000088b900800078008080200000804000bb
:1044e80020079800ae009000804b2000008040001c
:1044f80010007800800078002e00900030009000b6
:104508000080e800008050000000e80010079800d4
:104518009e0090004e009000808f500005003900ea
:104528004e009000100798000000eb00000f780084
:1045380003003700ce0090001e009000008f50004e
:104548002e009000300090000080e800cf00de00d0
:104558000000780000f0a1001e019000630a070027
:104568001e00e000070032002e00900068004000a6
:10457800cf00de000000780000f0a1001e017800e6
:104588005a0a07008af807002e00900010007800e9
:104598008000e9002e009000010878008cf80700e0
:1045a8002e009000b00090004e0090000080400067
:1045b8008080e8002e009000310098002e009000c6
:1045c80030019000ae009000804b20000080400039
:1045d80010007800800f5100140036006e409000e3
:1045e8008080fb00a04b20000088b900e800400054
:1045f80080802000808140002e00900030009000d4
:1046080000017800ae009000804b20000080400040
:104618001000780000005100008041008000e9008f
:104628002e009000310098000d0037002e009000f9
:1046380030019000ae009000804b200000804000c8
:10464800100078000080e900800f51000400360057
:104658002e009000e80040002e00900031009800e5
:104668000080fa00000006000800fa0040479800a1
:104678004e409000e34f5000030036000000eb006e
:10468800300798001f0037004e4090008080fb00e4
:10469800a04b20000088b9008000780080802000ae
:1046a800008f40001e007800100078000000e00035
:1046b80003003a000000eb003007980011003700b3
:1046c8001e00780030009000104078000080fb0049
:1046d800100798001e0090004800dd0010079800a1
:1046e8001e00780030009000104090008080fb0091
:1046f8001e00900001004000100798001e00900066
:10470800300798003e0090000080fa000000060084
:104718004200fa000040eb00004f780042003700ea
:104728009e80fb00a04b20000088b9008000780024
:1047380080802000808040000000eb008008780026
:104748009e81fb001e82fb009e80fb00a04b200088
:104758000088b900e8004000808020000081400007
:10476800a04b200000a0b900e60040008080200097
:104778000080400002087800a04b200000a0b9008b
:10478800e600400080802000008040001001780092
:10479800a04b20000098b9008080e80080802000ad
:1047a80000804000020878001e81fb009e80fb000c
:1047b800a04b20000088b900e8004000808020005d
:1047c800008040008081e800a04b20000090b900e4
:1047d800e40040008080200000804000030878004a
:1047e8009e81fb009e80fb00a04b20000088b90042
:1047f800e80040008080200080804000f04a2000cf
:1048080000814000a04b20000098b900800078008b
:10481800804b200080804000808020000080400085
:10482800020878001e4fe80030c0b3009e4f100009
:10483800bbff36000000eb0000de880001402d00c1
:10484800711f98001200200002279800e103200041
:104858008e8040001100be0010de880021de880036
:1048680002402d00521f980010002000601f980081
:10487800a10320008e8040001100be0030de8800b9
:1048880041de880002402d00321f980010002000f1
:10489800401f9800610320008e8040001100be0078
:1048a80050de880061de8800f27f2f00121f98001a
:1048b80010002000201f9800220320000e01410054
:1048c8001200be0070de880081de88000000eb0068
:1048d80090de880000002b0070179800110020005f
:1048e800011f9800e10220008e8040001100be00e8
:1048f800a0de8800b1de880002002b005217980065
:104908001000200060179800a10220008e8040004f
:104918001100be00c0de8800d1de880002002b0036
:1049280032179800100020004017980061022000fc
:104938008e8040001100be00e0de8800f1de8800b5
:10494800f23f2d0012179800100020002017980041
:10495800220220000e0141001200be0000df880084
:1049680011df88000000eb0020df880000c028006d
:10497800700f98001100200001179800fe004700f2
:104988001100be0030df880041df880002c0280027
:10499800520f980010002000600f9800fa0047009e
:1049a8001100be0050df880061df880002c02800c7
:1049b800320f980010002000400f9800f6004700c2
:1049c8001100be0070df880081df8800f2ff2a0036
:1049d800120f980010002000200f98007201470065
:1049e8001200be0090df8800a1df88000000eb0005
:1049f800b0df8800008026007007980001002000c2
:104a0800010f9800ee0047001100be00c0df8800cb
:104a1800d1df88000280260052079800000020009d
:104a280060079800ea0047001100be00e0df880038
:104a3800f1df88000280260032079800000020007d
:104a480040079800e60047001100be0000e088001b
:104a580011e08800f2bf280012079800100020001b
:104a6800200798000e81e8001200be0020e08800b0
:104a780031e088000080fa00000006000600fa0015
:104a8800404798004e4090008080fb00a04b2000db
:104a98000088b900800078008080200000804000f5
:104aa80090007800110798004e4090008080fb002d
:104ab800a04b20000088b90080007800808020008a
:104ac80000804000100f78001e0090009e0f5000dc
:104ad800ecff3a001e0090000080fa00000006007b
:104ae8000e00fa0040479800310798004e409000a9
:104af800e34f5000030036000000eb006007980009
:104b0800620037003e00900032f00700000f780086
:104b18004e4090000080fb00500798005e00900017
:104b2800e10f5000120032005e009000e20f5000ca
:104b38001a0032005e0090000000e0000100320020
:104b4800210037007e0b0700100798001e00900018
:104b58009e0f5000030031001016200060079800d7
:104b68004a0037003e009000440907002000370043
:104b7800a00b0700100798001e0090009e0f500021
:104b88000300310010162000600798003f0037002e
:104b98003e009000ba09070015003700c20b070055
:104ba800100798001e0090009e0f5000030031006f
:104bb8001016200060079800340037003e0090006f
:104bc800300a07000a003700e40b070010079800b6
:104bd8001e0090009e0f50000300310010162000a8
:104be80060079800290037003e009000a60a0700d9
:104bf8004e4090000080fb00400798004e00900057
:104c0800e10f5000150032004e009000e10f5000f7
:104c180004003c004e0090000000e0000800320054
:104c2800180037004e009000e20f50000d003200cf
:104c38004e009000e30f50001100320011003700c1
:104c48008c0807000000e000020032009560a9000f
:104c5800cd22a8009580a8000a00370097e0a80098
:104c680008003700920807000000e0000200320048
:104c78009e40a900f522a8009e60a8000100370008
:104c88009f20a8000000eb00600798006e009000cd
:104c98000080fa0000000600809fbe000000fa00b5
:104ca80011e1a90084e0a900404080000000e8006c
:104cb8004040880061408000504080000080e8004b
:104cc800808f500007003900604080008000780025
:104cd800504080000080e8000080500000408800bc
:104ce8000700370061408000504080000080e800e5
:104cf80080805000004b2000008040000040880069
:104d080051408000004080004800de008048780064
:104d18005140800000408000904098006040800032
:104d28005040880051408000006680000080e90003
:104d3800808f50000200360000812000504088001b
:104d4800504080000080e800604088000040eb0090
:104d5800f6fab7000080fa004f00be0000400600d7
:104d6800809fbe00821f78000000fa0010c0b300c8
:104d7800f6fab70011e1a9008080200080d78800ea
:104d88002f00370022c2bf00624060000004e0002c
:104d980008003a0022c2bf00684060000004e0003a
:104da80004003a0022c2bf00644060000004e00032
:104db8000d00320080d78000a000900030118000e4
:104dc800804878002222a9002262a9002242a90074
:104dd80081d7800080d78000100090000080e80014
:104de800a00098001600370080d78000a00090002f
:104df800301180008048780080d78000a0009000a3
:104e08008100e800210098002001900081d78000ef
:104e1800804b20000080400010007800800f510077
:104e28000400360080d7800081d78000e8804000e9
:104e3800210098000000eb003008880011e1a8006c
:104e480022c2bf00614060000004e000cdff3a00cc
:104e58008560a9000080fa004f0178004f00be006d
:104e6800004006003600f800809fbe00829fbe000a
:104e7800849fbe00869fbe000800fa0010c0b300e1
:104e8800f2fab7003000370050de800061de8000a3
:104e98009301800001017800920188001040780099
:104ea800930188000080fb002011880050de8000fc
:104eb80061de80000000d0002000b0004220a80081
:104ec800e08048004220ae004200a8000080d300e5
:104ed80050de880061de880050de800061de8000e0
:104ee800640147000089be0070de800081de80001a
:104ef800008fbe00be0090001e019000828f5000ff
:104f080008003e003e0090009e009000810f500077
:104f18000a003a002e0190009e0f510001003e0049
:104f28000600370000402d00cf00de0000007800aa
:104f380000f0a10050de880061de880000de8000fd
:104f48000000e90000de880000de80000000e000cc
:104f58000400320023c2bf00624060000004e00089
:104f6800c9ff320000de80000000e00002003200cd
:104f78008580a9001200370023c2bf000042b2009a
:104f88000004e00004003a0023a2a80023e2a900dc
:104f98008580a9000a00370023a2a90023e2a800ff
:104fa8009580a9000040eb00f2fab700b1070700ae
:104fb8000000e00002003200cd22a9009560a800a0
:104fc8000080fa004f03be004f02be004f01be0032
:104fd8004f00be003600f90000400600809fbe006a
:104fe8000000fa0013e1a9008500a90010668000fe
:104ff8000000e800106688003166800020668000a6
:105008000080e800808f500007003900306680007b
:1050180080007800206680000080e8000080500052
:105028001040880007003700316680002066800045
:105038000080e80080805000004b20000080400085
:105048001040880021668000104080004800de0083
:1050580080487800216680001040800090409800c9
:10506800306680002066880021668000d08b800032
:105078000080e900808f500002003600a0cc20009c
:1050880020668800206680000080e800306688007e
:105098000040eb00f7fab7000080fa004f00be00ae
:1050a80000400600809fbe00821f78000000fa00c2
:1050b80010c0b300f7fab70013e1a90020cc200014
:1050c80080d788002f00370032c2bf0062406000de
:1050d8000004e00008003a0032c2bf0068406000e7
:1050e8000004e00004003a0032c2bf0064406000df
:1050f8000004e0000d00320080d78000a00090007e
:10510800b0118000804878003222a9003262a900dc
:105118003242a90081d7800080d78000100090001b
:105128000080e800a00098001600370080d78000b3
:10513800a0009000b01180008048780080d78000df
:10514800a00090008100e800210098002001900054
:1051580081d78000804b200000804000100078003c
:10516800800f51000400360080d7800081d780006e
:10517800e8804000210098000000eb0050088800fb
:1051880013e1a80032c2bf00614060000004e000e3
:10519800cdff3a0087c0a9000080fa004f017800cf
:1051a8004f00be0000400600809fbe00829fbe00e8
:1051b8000800fa0010c0b300f3fab7003000370057
:1051c800e0de8000f1de80009301800001017800bc
:1051d8009201880010407800930188000080fb004d
:1051e800a0118800e0de8000f1de80000000d00021
:1051f8002000b0004220a800e08048004220ae0015
:105208004200a8000080d300e0de8800f1de8800bc
:10521800e0de8000f1de8000640147000089be0006
:1052280000df800011df8000008fbe00be0090000c
:105238001e019000828f500008003e003e00900042
:105248009e009000810f50000a003a002e01900045
:105258009e0f510001003e000600370000002b00a1
:10526800cf00de000000780000f0a100e0de88003a
:10527800f1de880090de80000000e90090de880002
:1052880090de80000000e0000400320033c2bf005e
:10529800624060000004e000c9ff320090de800038
:1052a8000000e0000200320087e0a9000300370098
:1052b80097e0a9000040eb00f3fab7000080fa007d
:1052c8004f01be004f00be0000400600809fbe0098
:1052d8000000fa001fe1a9008760a900e08b8000a8
:1052e8000000e800e08b8800018c8000f08b8000d3
:1052f8000080e800808f500007003900008c800093
:1053080080007800f08b80000080e800008050006a
:105318002040880007003700018c8000f08b800057
:105328000080e80080805000004b20000080400092
:1053380020408800f18b8000204080004800de007b
:1053480080487800f18b80002040800090409800d1
:10535800008c8000f08b8800f18b8000a0b1800069
:105368000080e900808f50000200360040182100bc
:10537800f08b8800f08b80000080e800008c8800ab
:105388000040eb00f8fab7000080fa004f00be00ba
:1053980000400600809fbe00821f78000000fa00cf
:1053a80010c0b300f8fab7001fe1a900c017210028
:1053b80080d788002f00370052c2bf0062406000cb
:1053c8000004e00008003a0052c2bf0068406000d4
:1053d8000004e00004003a0052c2bf0064406000cc
:1053e8000004e0000d00320080d78000a00090008b
:1053f800b0128000804878005222a9005262a900a9
:105408005242a90081d7800080d780001000900008
:105418000080e800a00098001600370080d78000c0
:10542800a0009000b01280008048780080d78000eb
:10543800a00090008100e800210098002001900061
:1054480081d78000804b2000008040001000780049
:10545800800f51000400360080d7800081d780007b
:10546800e8804000210098000000eb00a0088800b8
:105478001fe1a80052c2bf00614060000004e000c4
:10548800cdff3a008e40a9000080fa004f01780055
:105498004f00be00004006003600f800809fbe00a6
:1054a800829fbe00849fbe00869fbe000800fa004f
:1054b80010c0b300f4fab7003000370070df800086
:1054c80081df80009301800001017800920188004b
:1054d80010407800930188000080fb00a01288002b
:1054e80070df800081df80000000d0002000b00065
:1054f8004220a800e08048004220ae004200a800f8
:105508000080d30070df880081df880070df8000b2
:1055180081df8000640147000089be0090df8000c1
:10552800a1df8000008fbe00be0090001e01900029
:10553800828f500008003e003e0090009e009000c0
:10554800810f50000a003a002e0190009e0f510072
:1055580001003e000600370000c02800cf00de0032
:105568000000780000f0a10070df880081df88006b
:1055780020df80000000e90020df880020df8000b5
:105588000000e0000400320053c2bf006240600027
:105598000004e000c9ff320020df80000000e000c6
:1055a800020032008e60a9001200370053c2bf000b
:1055b8000042b2000004e00004003a0053a2a80030
:1055c80053e2a9008e60a9000a00370053a2a9007f
:1055d80053e2a8009e60a900350607000000e0001d
:1055e80002003200f522a9009e40a8000040eb000e
:1055f800f4fab7000080fa004f03be004f02be0065
:105608004f01be004f00be003600f9000040060002
:10561800809fbe000000fa0021e1a9008780a90050
:10562800b0b180000000e800b0b18800d1b18000be
:10563800c0b180000080e800808f5000070039006a
:10564800d0b1800080007800c0b180000080e80000
:10565800008050003040880007003700d1b180003a
:10566800c0b180000080e80080805000004b20001e
:105678000080400030408800c1b180003040800088
:105688004800de0080487800c1b1800030408000ca
:1056980090409800d0b18000c0b18800c1b18000ae
:1056a80070d780000080e900808f5000020036002b
:1056b800e0632100c0b18800c0b180000080e8002c
:1056c800d0b188000040eb00f9fab7000080fa007a
:1056d8004f00be0000400600809fbe00821f780079
:1056e8000000fa0010c0b300f9fab70021e1a900e0
:1056f8006063210080d788002f003700b2c2bf0046
:10570800624060000004e00008003a00b2c2bf0036
:10571800684060000004e00004003a00b2c2bf0024
:10572800644060000004e0000d00320080d7800073
:10573800a0009000b015800080487800b222a9002f
:10574800b262a900b242a90081d7800080d7800048
:10575800100090000080e800a000980016003700b4
:1057680080d78000a0009000b015800080487800a5
:1057780080d78000a00090008100e80021009800f8
:105788002001900081d78000804b200000804000dd
:1057980010007800800f51000400360080d7800088
:1057a80081d78000e8804000210098000000eb00cd
:1057b800c008880021e1a800b2c2bf0061406000b3
:1057c8000004e000cdff3a008f00a9000080fa0035
:1057d8004f0178004f00be0000400600809fbe00c9
:1057e800829fbe000800fa0010c0b300f5fab700a7
:1057f8003000370000e0800011e080009301800055
:105808000101780092018800104078009301880017
:105818000080fb00a015880000e0800011e08000f7
:105828000000d0002000b0004220a800e08048001e
:105838004220ae004200a8000080d30000e08800ab
:1058480011e0880000e0800011e08000640147005a
:105858000089be0020e0800031e08000008fbe009b
:10586800be0090001e019000828f500008003e008c
:105878003e0090009e009000810f50000a003a0000
:105888002e0190009e0f510001003e0006003700d7
:1058980000802600cf00de000000780000f0a100a4
:1058a80000e0880011e08800b0df80000000e90017
:1058b800b0df8800b0df80000000e00004003200a4
:1058c800b3c2bf00624060000004e000c9ff3200bc
:1058d800b0df80000000e000020032008f20a90045
:1058e800030037009f20a9000040eb00f5fab7003d
:1058f8000080fa004f01be004f00be0000400600c5
:105908001200fa0021e2a90031e2a90051e2a9003f
:10591800b1e2a9001122200091407800c0cfb30065
:1059280000c0600021e2b7001123200091407800f8
:10593800c0cfb30000c0600031e2b70011252000dd
:1059480091407800c0cfb30000c0600051e2b700ba
:10595800112b200091407800c0cfb30000c0600038
:10596800b1e2b7009560a90097c0a9009e40a900c0
:105978009f00a9002342a9003342a9005342a9006d
:10598800b342a9009580a90097e0a9009e60a900ec
:105998009f20a90002dbbf000004e00004003200e1
:1059a80002dbbf000040e9001057980002003700f2
:1059b8000040eb00105798009e5090002147980037
:1059c8002e4090004200dd0020479800fadabf0020
:1059d8000004e00004003200fadabf000040e900e9
:1059e80000579800020037000040eb00005798006d
:1059f8002e4090008e50900000c040002047980034
:105a08002e4090000080fb0080004000a0e32800aa
:105a180000804000100078004500de006340600010
:105a28000080fb00700798007e0090000000e000f6
:105a380004003200fe009000e18f50001300320095
:105a48002a003700516a20009140780000ccb3004a
:105a580000c06000a5e6b700616a200091407800a8
:105a680000ccb30000c060000034a000a6e6b70078
:105a7800916c20009140780000ccb30000c0600019
