:020000040000fa
:080000000002040000000000f2
:020000040000fa
:100400008ff923000eff27000e0188000000000076
:100410000c000700c01a2500010020000f00070093
:10042000000020000000e000020032000000020096
:100430000000000088290200000000000040da00ef
:100440000000fe00a02120000000e00002003200b9
:10045000002020009001880000000600a102880012
:10046000800078000000eb001a003700e2804000b6
:1004700054a0b4009101ba00e280400054a0b4003e
:100480009102ba00e280400054a0b4000002eb00e8
:10049000472bde00f507b200a6018800602ce100c2
:1004a00008003a000049eb000201e80002003900b0
:1004b0003420ec0002f0a0008301e900f9ff3e00c7
:1004c000040037006128e100010032000082eb00e7
:1004d000040007001101ba000200e000e3ff3a0047
:1004e0000000060004d0a300e20f49001c00390000
:1004f000810278003549ba000201e80002003900a3
:100500003420ec0002f0a0008301e9000f0032006b
:100510002549ba000201e800020039003420ec004d
:1005200002f0a0008301e900080032000400e000ae
:100530000600320015c9ba000201e80002003900c5
:100540003420ec0002f0a0008301e9008180e80083
:1005500054a0b4000300e000e2ff3a0000000600ef
:100560009102ba00055978008301e900f7ff3200d3
:10057000c82ade00055978008301e900f3ff320044
:100580000400e000f1ff320011d9ba00eeff37009d
:100590000040da000000fe000621ef00610888003c
:1005a00080088800000006000a21ef0090088800fb
:1005b000000006001421ef00d1088800f008880030
:1005c000000006001821ef00e108880000098800fb
:1005d000000006006022b800060220000000d000e3
:1005e0008180d2000482d2008582d2000000a00067
:1005f0000202520083825a000300310002024200cc
:1006000083824a000000a1000603e900f3ff3a00dc
:10061000000006000400fa00e0bf9f00e4815700dc
:10062000812978000002eb000f0037006fb89700b7
:10063000904078007fb89700104078000402e800ee
:1006400080cf5000040032008180fb000080fb005e
:1006500000805000070037006fb897000000e800e6
:10066000e0bf9f009309e800820f5200efff3a00bd
:100670000000eb000080fa00000006008001eb00a3
:100680000200370061f079008301e800828f510099
:10069000fcff3a00000006008001eb00020037007a
:1006a000817178008301e800828f5100fcff3a00dd
:1006b000000006008001780000017800010037008a
:1006c0000201e8001204e000fdff3a00314078002a
:1006d000005978000004e000fcff3a0003007800b5
:1006e0000000060010417800814f510004003200e4
:1006f0000000e8000204e000faff3a000000eb000e
:100700000000060010417800b141510003003a009a
:100710000000e8000204e000faff3a000300fb00da
:1007200000000600800078003004e000feff3a0080
:10073000010050000000e90000000600810178007f
:100740000002eb000b003700e44078000104e000f9
:10075000030032000402e80093cf5000040032008e
:100760008180fb001380fb00008050000000060029
:100770008301e800820f5200f3ff3a0000000500f9
:100780000003780080027800020278008001eb000c
:10079000080037000402e90063c07800805a78003e
:1007a0008301e8000004e00002003a008000eb0052
:1007b00006003700828f5100f6ff3a00fbff37003a
:1007c0000040eb0080f07a008100e800848f500048
:1007d000fbff3a000600780000000600889fbe007c
:1007e0000004be000000e00003003a0068608100e1
:1007f0000800e000130032000800be003e030700be
:10080000000444001804e00004003a000000eb007b
:1008100060608900000478000a0037000800be000c
:100820002103070000004400606089001004e0001c
:10083000020032000058eb00010037000000eb001e
:1008400060608900080078004f04be0000000600c8
:100850000c00fa00889fbe0000047800cfb097001b
:10086000f0ff2700d0bf9f008004eb0099bf9f00de
:1008700088bf9f00a8bf9f00200c2000b0bf9f0032
:100880007881570070805700080007000fb8970064
:10089000094878000fb89700080450000800780055
:1008a0004f04be000080fa0000000600fe874700eb
:1008b000889fbe008a9fbe008c9fbe008e1f78005e
:1008c000f0b79f000107780082bf9f000000eb0097
:1008d000a0b79f009f0237008006eb0050c2b30014
:1008e00080cf5000090032000100fb00ffb09700ec
:1008f000a3020700e10f400096023200afb097005c
:100900008100e800a1b79f00920237009e40780066
:10091000d0c2b30080cf50000c00320007003c0072
:100920006d40500080cf50000a0032006b40400004
:1009300080cf50000e003a000800370000c3b3001b
:1009400080cf50000a003a00060037000d30a000aa
:10095000050037000d00a000030037000d10a000b7
:10096000010037000d20a0000e07e800e7ff370068
:100970000d18a300010032000d00a1000d38a300e6
:10098000010032000d20a1000100fb0002fd2f003c
:1009900002004000e90f50000e003e000002eb0094
:1009a000c4b79f0082017800cfb297006a28b900cf
:1009b0001e01fb000001410003014100c2b79f007e
:1009c0005e00fb0003004000e90f50000b003e00fa
:1009d000f5ff37000006eb00ccb79f00a0c2b300c4
:1009e00080cf500005003a000fb89700c000780093
:1009f00080bf9f00c1b79f000e07e8000001eb0019
:100a0000b2b79f00e0c2b3009e4f100018003a003a
:100a10000de0a0008e00e80064405000914f1000ef
:100a200002003200010778000c0037000fba97006f
:100a3000c402780084bf9f00b5b79f000e87e8000e
:100a40000b0037003fb697006a60b9000000410014
:100a500003004000b0b79f000e07e8001e01fb0036
:100a600003fd2f0003004100e90f5000f5ff3600a1
:100a7000be407800e1d79f00c0c6b30080cf5000d1
:100a8000220032000f003c006940500080cf50002f
:100a90007700320004003c000104e0003102320023
:100aa0006b4050000f00370040c6b30080cf5000ad
:100ab000930032006540400080cf50008b003a0028
:100ac0008f00370030c7b30080cf50001a003200cb
:100ad00007003c006440500080cf500011003200fd
:100ae0000040e80080cf500080003a000f0037003f
:100af00050c7b30080cf50008000320063404000f8
:100b000080cf500079003a0009003700000028002b
:100b10000d48a30001003a00000120008086760005
:100b2000d3ff37000d60a000750037000d50a00006
:100b30000d70a000720037008fb897004100780058
:100b400081bf9f00000478000000e00001003a002f
:100b500068bb22008004eb00010037008104e8003c
:100b600089007800088044001004e000fbff3a0090
:100b70003fb197000200e00003003200890f5100ee
:100b800001003100820478000002eb00e4af9f0016
:100b9000cfb29700898f52000200360009805200c0
:100ba000e0af9f004368de00e10660001b003a00f2
:100bb0000d06780009003700ffb097000002200002
:100bc000ef010700e10f4000030032002fb0970053
:100bd0000000e800a0b79f000c06e800efa897000f
:100be000810f5600f4ff3a000081eb00e2af9f0056
:100bf0000a003700880078003100fb00010478000b
:100c0000ffb09700de010700e10f40000300320053
:100c10002fb297000402e800a4b79f000900e90082
:100c200080047800e10f4000f2ff3a000006eb007c
:100c30000d00e0000a003a00c6013700ffb097003f
:100c400000022000ce010700e10f40000300320047
:100c5000afb297008502e800a5b79f000c06e80038
:100c60006fa89700800f5600f4ff3a00b9013700d3
:100c70008fb897004100780081bf9f00cf80de00d1
:100c800001017800820178000205be000004be0068
:100c90000203be000002be004822de00482edd0036
:100ca00004027600e4d79f000d48a3000a0032003a
:100cb0000404e00008003200e14f42000600320068
:100cc00071fd2f000180470004487800184098000b
:100cd0002900200002003700f0d79f0019002000f3
:100ce00072fd2f0002844700a1ff370064fd2f0032
:100cf00004844700190020009dff37000d0cb3004d
:100d00000d007800000cb20028003a000d00e00051
:100d100005003d008fba97004505be004504be00a2
:100d200085bf9f00140037000d48a3000b00320060
:100d30000fbe97004c00be008cbf9f004f89de00a5
:100d4000cf91de000002be0002037800820378002b
:100d50000605be000404be00070037008fb89700e8
:100d60004100780081bf9f0000047800cfc4de00fe
:100d7000090578008a057800e00f5400e08f5c00d8
:100d8000e00f5d00e08f5d001f003d003d00b300ff
:100d90006000b8006011b800080450008984580051
:100da0000a0559008b855900170037000d00e00037
:100db00005003d000fb997004205be004204be0089
:100dc00082bf9f00100037000d48a30007003200cb
:100dd0000fba97004400be0084bf9f006011b800a6
:100de0000205be000004be00070037008fba97005e
:100df0004500780085bf9f000004780009002000ae
:100e00000a0020000b0020003fb697000c00e00015
:100e100007003a00e00f5400e08f5c00e00f5d0037
:100e2000e08f5d0002003a0010002000b0b79f0084
:100e30008d007800010cb200e1b79f000004200093
:100e4000808f50003000320003003c000100e000c1
:100e50000800320040003700000820006fb1970002
:100e6000800f510014003200000c2000800f510050
:100e700039003a0014c0b30065b122000b003700fe
:100e80000400fb004300dd00050040005001be00ef
:100e90004000be000040e10001c8e10002d0e100d6
:100ea00003d8e1002b0039000442e800f44f52005f
:100eb000f3ff3a0027003700000120000100200066
:100ec0006011b80014c0b3000040e10001c8e100a7
:100ed00002d0e10003d8e1001e00390045002000e7
:100ee0000000d0008180d2000281d2008381d20034
:100ef0008502e900faff3a000442e800f04f520090
:100f0000f1ff3a00130037008000200001002000ac
:100f10006011b80014c0b3000040e10001c8e10056
:100f200002d0e10003d8e1000a0039003c002000b3
:100f30000000d0008180d2000281d2008381d200e3
:100f40000c06e900faff3a000442e800f54f5200af
:100f5000f1ff3a00e4d79f00efd097000100fb00bb
:100f60003fb19700820f500002003d00e2d79f0082
:100f7000040037003fb29700800f520001003d008f
:100f8000b0b79f00cfb297000500e0000400320028
:100f900063806600020032008502e900c5b79f0049
:100fa0000de8a3000b0032004fb697003fb097004a
:100fb000800f560003003c008000eb00c1b79f008b
:100fc000040037004fb197003fb297000401510071
:100fd000c2b79f00efd297000500fb000006eb00b0
:100fe000dcaf9f00cfb09700808f5000020034002c
:100ff00000805000d0af9f000d28a30037003200c2
:10100000e18066000d18a3000c003200d002200021
:101010000100e00001003a000080e900ffb0970005
:10102000d7000700e10f40000e0032002fb19700fb
:101030000201e800a2b79f000a0037000100e000ab
:1010400008003200ffb0970000022000cc0007002b
:10105000e10f4000030032002fb297000402e800c5
:10106000a4b79f00dfaa97000500e0000f00320040
:101070000006eb00ffb0970000032000c00007004f
:10108000e10f4000030032002fb097000000e8009d
:10109000a0b79f000c06e800dfa89700810f56005c
:1010a000f4ff3a000001eb00d2af9f003fb297007f
:1010b000c320dd00e0b022008080400091b79f0097
:1010c0004220dd006400500080b79f006320b9001b
:1010d000f0af9f006306500084003700dfaa97003e
:1010e0000500e00011003200688066000f003a0041
:1010f00000067800ffb0970000022000a000070063
:10110000e10f4000030032002fb097000000e8001c
:10111000a0b79f000c06e800dfa89700810f5600db
:10112000f4ff3a000001eb00d2af9f00e1806600bf
:101130000d18a3000c003200d00220000100e000d6
:1011400001003a000080e900ffb097008c00070022
:10115000e10f4000d5ff32002fb297000402e800f3
:10116000a4b79f00d1ff37000100e000cfff32009d
:10117000ffb097000002200081000700e10f40004f
:10118000caff3200afb297008502e800a5b79f0002
:10119000c6ff370000042000efb09700808f50009a
:1011a0003100320003003c000100e0000800320082
:1011b0003e003700000820006fb19700800f5100fb
:1011c00011003200000c2000800f510037003a005f
:1011d0001fb097003002be002003be000800be0012
:1011e0000a01be00f9010700a4002000050020004c
:1011f0006033b800fc01070004c3b30004424000a0
:10120000e4d79f0029003700d5bb2200d5b79f0047
:101210000d58a30002003a00e0bc2200d0b79f00a6
:1012200014002000050020006033b8008fb0970044
:101230008100e900050033000402d0008582d2005d
:101240000683d2008783d200f9ff37000800be0072
:101250000a01be00dd0107006f0060005fb197006a
:1012600062407800100037001400200005002000c4
:101270006033b8000c0078000000e900050033007e
:101280000402d0008582d2000683d2008783d20078
:10129000f9ff37000800be000a01be00cb010700bd
:1012a000674060000043b000e0d79f00efd0970098
:1012b0000100fb00ffb0970031000700e10f400084
:1012c000030032002fb197000201e800a2b79f008f
:1012d0001fb297006802520094b79f008fb2970028
:1012e000e482520085b79f0063065600d0ff2f00ae
:1012f0003fb197000090b9007faa9700000042001c
:1013000063005000800f5600a2ff3a000d38a30082
:1013100010003200dfaa97000500e0000d00340045
:101320000006eb00ffb09700000220001400070049
:10133000e10f4000030032002fb097000000e800ea
:10134000a0b79f000c06e800dfa89700810f5600a9
:10135000f4ff3a00be407800e1d79f000104e000ae
:101360005dfd3a002fb097004f0778004f06be0092
:101370004f05be004f04be00ef01b10000000600a3
:10138000889fbe000001780001047800b100900041
:101390000118a300400032000198a30003003a00a6
:1013a000180090000000e0003b003a000190a0000f
:1013b0003104980082047800f90fb2001800900000
:1013c0000000e00002003a0028009000000c7800c5
:1013d000ea8f540006003a00380090000078a3001d
:1013e00003003a0088007800d0002000e4ff0700e6
:1013f000180290006121b90058009000e8009000a8
:10140000800f5100818f59000b0032000400e8006a
:10141000100498001800780009587800000c780033
:1014200011c0b300a0c0220001487800ea8f540028
:101430000600320019003700880078000940780063
:101440004100070080047800140037003800900045
:101450000088a3001100320018019000a80090003d
:10146000480090007b00070098009000810f50001a
:1014700004003200380090000003b30030049800ec
:101480008084eb000000eb0010049800280090001e
:10149000000c7800010037008084eb000900780020
:1014a0004f04be0000000600889fbe008a9fbe0059
:1014b00080057800010578006044b800020037001c
:1014c00061044400e0844c006b407c000004e000b8
:1014d000050032008000fb000a00780081fc070054
:1014e0000000e000f6ff32000800be004f05be001d
:1014f0004f04be0000000600889fbe008a9fbe0009
:1015000080057800010578006044b80002003700cb
:1015100061044400e0844c006b407c000004e00067
:10152000050032008000fb000a0078006dfc070017
:101530000000e000f6ff3a000800be004f05be00c4
:101540004f04be00000006000200fa00889fbe00a3
:10155000a0ff9f0001047800b10090008104780092
:101560000904b200020032000000fb003600370020
:101570000118a30005003a000103b30031049800ec
:10158000190498000080eb002f00370058009000ed
:101590000000e00006003a00480090001200200021
:1015a000e68057002b00070019049800240037003c
:1015b000280090000000e00008003a0060c022000f
:1015c00020049800000c78002000200050049800af
:1015d000100498000130a000310498001801900018
:1015e000a8009000480090001a0007002800900012
:1015f000000c78000080eb001004980018007800c0
:10160000aff8970001587800000c78002ff8970089
:10161000ea4f50000a003a00380090000088a3000a
:101620000700320018019000a800900048009000c8
:101630000800070019049800a8009000010c780029
:10164000aff897000100fb004f04be000080fa00d5
:10165000000006000a00fa0080017800e20f500046
:1016600028003e0070608100e10f50000800320049
:10167000802320000000e000050032000423200049
:101680002523200046232000800178000400370035
:101690000422200025222000462220008322200050
:1016a000144090000004e000040035008009eb00c5
:1016b000144090000074a000104298001540900063
:1016c0000028a30003003a00154090000024a00069
:1016d000904298008001eb00070037001540900011
:1016e0000008a300fdff320063c078000000fb008b
:1016f000000b78008301e800828f5100f7ff3a0069
:101700000800370030002000b0bf9f00c3bf9f001b
:10171000d1bf9f00e2bf9f006a80570000c0da007f
:101720006fb99700020078000080fa000000060000
:10173000881f7800000478005001be004000be0001
:101740000400400085804800060149008781490067
:10175000009cbe000294be000400e1000588e10088
:101760000690e1000798e1000200310068004400a3
:101770001008e8004f04780000000600f4874700d6
:10178000889fbe008a9fbe008c9fbe008e1f78007f
:101790000205be000004be00d4b79f00e5b79f005d
:1017a000f6b79f0087bf9f000000eb00c0b79f0007
:1017b000b0b79f00a0b79f0090b79f0080b79f0071
:1017c0000d042000bfb097004fb09700000140000b
:1017d0000000e0000f003d004f08de000000710037
:1017e000c0b79f004d00070001003d00120020001f
:1017f0005000070001003d001200200055000700c6
:1018000061000700660007000f004000c8ff0700e6
:10181000220037004f08de0000067100ccb79f00a1
:101820003e00070001003d001200200041000700bb
:1018300001003d0012002000460007005200070092
:101840000fb297009fb297002fb39700bfb39700d6
:10185000590007000000520081805a0002015b001d
:1018600083815b0080b79f0091b79f00a2b79f0064
:10187000b3b79f000007eb004f0007000020e10016
:1018800001a8e10002b0e10003b8e100010031006d
:101890001e0020000e005600c0b79f004fb29700f8
:1018a0000400e000070035001000200001002000c7
:1018b0006011b80008047000898470000a05710086
:1018c0008b8571008d06e900beff3a000400e00040
:1018d00003003d00320007000f00400094ff0700a6
:1018e0004fa897000000e00004003a000fb49700f2
:1018f0009fb497002fb59700bfb597000800be00b2
:101900000a01be004f0778004f06be004f05be001b
:101910004f04be004f01b1000000060001804000ee
:1019200090b79f000001eb008fb097000100e0002e
:10193000000006000200700090b79f000180400088
:1019400080b79f000001eb00ffa897000100e000b6
:10195000000006000200700080b79f000180400078
:101960006faa9700cf20de0001007000f0af9f004b
:10197000040242000800be000a01be004f18de004b
:101980000002720000000600e4af9f00080444005b
:1019900089844c000a054d008b854d00000006002f
:1019a0003fb29700cfb297005fb39700efb39700b5
:1019b00000fe2f00000006003fb09700cfb0970058
:1019c0005fb19700efb1970000000600881f780014
:1019d00018002000881f780068ff07008f87e90043
:1019e0004f04780000000600801feb0063ff070033
:1019f0008f87e90000000600889fbe008a9fbe0016
:101a00008c1f78000205be000004be00e00f5000ed
:101a1000e08f5800e00f5900e08f59000c003d00a6
:101a20006000b8006011b8000804500089845800b4
:101a30000a0559008b8559001c0020001f00070073
:101a400008003d00180007000006eb000500370005
:101a50000006eb001900070002003d000f00070020
:101a60001c0020000800be000a01be00d7ff0700ce
:101a70000203be000002be000c00e00001003200c4
:101a8000060007000400be000601be004f067800f5
:101a90004f05be004f04be00000006006000b80005
:101aa0006011b80000003700040250008582580021
:101ab000060359008783590000000600e00f52001a
:101ac000e08f5a00e00f5b00e08f5b000000060033
:101ad000889fbe008a9fbe008c1f78000205be0052
:101ae0000004be00e00f5000e08f5800e00f5900e6
:101af000e08f59000a003d006000b8006011b80096
:101b000008045000898458000a0559008b85590043
:101b10001c0020001800070007003d0005003700ea
:101b20000006eb001400070003003d006000b80051
:101b30006011b800150007000800be000a01be00d1
:101b4000a9ff07000203be000002be000c00e00077
:101b5000030032006000b8006011b8000b000700fd
:101b60000400be000601be004f0678004f05be000f
:101b70004f04be0000000600e00f5200e08f5a0044
:101b8000e00f5b00e08f5b000000060004025000e5
:101b9000858258000603590087835900000006001b
:020000040000fa
:020000040005f5
:0457f400fffc0000b6
:020000040000fa
:020000040005f5
:0457f800be1b0000d4
:020000040000fa
:020000040005f5
:0457fc006b3f0000ff
:020000040000fa
:10000800c8020000c8020000c8020000c8020000c0
:10001800c8020000c8020000c8020000c8020000b0
:10002800c8020000c8020000c8020000c8020000a0
:10003800c8020000c8020000c80200002c2300000b
:10004800d8240000c80200000c35000090230000ee
:1000580016240000c8020000c8020000c802000000
:10006800c8020000c8020000c8020000c802000060
:10007800c8020000c8020000c8020000c802000050
:10008800c8020000c8020000c80200005a2600008a
:1000980006280000c80200003c250000c225000018
:1000a800c8020000c8020000c8020000c802000020
:1000b800c8020000c8020000c8020000c802000010
:1000c800c8020000c8020000c8020000c802000000
:1000d800c8020000c8020000c8020000c8020000f0
:1000e800c8020000c8020000c8020000c8020000e0
:1000f800c8020000c8020000c8020000c8020000d0
:10010800c8020000c8020000c8020000c8020000bf
:10011800c8020000c8020000c8020000c8020000af
:10012800c8020000c8020000c8020000c80200009f
:10013800c8020000c8020000c8020000c80200008f
:10014800c8020000c8020000c8020000c80200007f
:10015800c8020000c8020000c8020000c80200006f
:10016800c8020000c8020000be26000044270000a4
:10017800c8020000c8020000c8020000c80200004f
:100188006a280000f0280000c8020000c802000029
:10019800c8020000c8020000c8020000c80200002f
:1001a800c8020000c8020000c8020000c80200001f
:1001b800c8020000c8020000c8020000c80200000f
:1001c800c8020000c8020000c8020000c8020000ff
:1001d800c8020000c8020000c8020000c8020000ef
:1001e800c8020000c8020000c8020000c8020000df
:0801f800c8020000c80200006b
:020000040000fa
:10020800c8020000c8020000c8020000c8020000be
:10021800c8020000c8020000c8020000c8020000ae
:10022800c8020000c8020000c8020000c80200009e
:10023800c8020000c8020000c80200002c23000009
:10024800d8240000c80200000c35000090230000ec
:1002580016240000c8020000c8020000c8020000fe
:10026800c8020000c8020000c8020000c80200005e
:10027800c8020000c8020000c8020000c80200004e
:10028800c8020000c8020000c80200005a26000088
:1002980006280000c80200003c250000c225000016
:1002a800c8020000c8020000c8020000c80200001e
:1002b800c8020000c8020000c8020000c80200000e
:1002c800c8020000c8020000c8020000c8020000fe
:1002d800c8020000c8020000c8020000c8020000ee
:1002e800c8020000c8020000c8020000c8020000de
:1002f800c8020000c8020000c8020000c8020000ce
:10030800c8020000c8020000c8020000c8020000bd
:10031800c8020000c8020000c8020000c8020000ad
:10032800c8020000c8020000c8020000c80200009d
:10033800c8020000c8020000c8020000c80200008d
:10034800c8020000c8020000c8020000c80200007d
:10035800c8020000c8020000c8020000c80200006d
:10036800c8020000c8020000be26000044270000a2
:10037800c8020000c8020000c8020000c80200004d
:100388006a280000f0280000c8020000c802000027
:10039800c8020000c8020000c8020000c80200002d
:1003a800c8020000c8020000c8020000c80200001d
:1003b800c8020000c8020000c8020000c80200000d
:1003c800c8020000c8020000c8020000c8020000fd
:1003d800c8020000c8020000c8020000c8020000ed
:1003e800c8020000c8020000c8020000c8020000dd
:0803f800c8020000c802000069
:020000040000fa
:101ba0004f460000460000000000000032330000f5
:101bb000320000000001000032330000320000005b
:101bc0000001000034380000354800000003000028
:101bd0003458000058460000000400003130000076
:101be0003000000000000000000000006400000061
:101bf0000000000033300000300000000000000052
:101c0000000000002c010000000000003630000041
:101c1000300000000000000000000000580200003a
:101c200000000000313200003030000000000000f1
:101c300000000000b004000000000000323400008a
:101c400030300000000000000000000060090000cb
:101c500000000000343800003030000000000000b8
:101c600000000000c0120000000000003936000033
:101c7000303000000000000000000000802500005f
:101c8000000000003134000034300000300000005b
:101c90000000000040380000000000003139000062
:101ca000323000003000000000000000004b000057
:101cb0000000000033380000343000003000000025
:101cc0000000000000960000000000003537000012
:101cd00036300000300000000000000000e100008d
:101ce00000000000313100003532000030300000cb
:101cf0000000000000c200000100000031320000be
:101d000038300000303000000000000000f4000017
:101d10000100000032350000363000003030000095
:101d20000000000000e8000003000000840700003d
:101d3000a4050000c2050000c60500000c07000055
:101d40002c0500004a0500004e05000010000000b0
:101d50003000000051050000550500001000000093
:101d6000300000005505000055050000010200008c
:101d70000408000050300000310000005030000026
:101d800032000000503000003300000050300000ee
:101d90003400000050300000783a0000003a0000a3
:101da000003a0000383a00004e3a0000313a000094
:101db00030000000312e0000312e00003000000005
:101dc00050300000310000005030000032000000b0
:101dd000503000003300000050300000340000009c
:101de0007c000000535000005700000053500000da
:101df000430000005645000052000000494e00001c
:101e000049000000f2ff0000f3520000434f0000c1
:101e10004d52000053540000f4f50000f50000009e
:101e2000f2ff0000f3520000434f00004d5300004a
:101e300050570000f4000000f5f50000000000001d
:101e40000000000000000000000000000000000092
:101e50000000000000000000000000000000000082
:101e60000000000000f20000fff3000052430000f9
:101e70004f4d00004552000052f4000000300000b9
:101e800030310000f5f50000003000003032000075
:101e9000f5f500000030000030330000f5f50000db
:101ea0000030000030350000f5f500000033000080
:101eb00035300000f5f5000000330000353100003a
:101ec000f5f500000033000035320000f5f50000a4
:101ed0000033000035330000f5f50000003300004a
:101ee00035340000f5f50000003300003535000002
:101ef000f5f5000000f20000fff30000524300007f
:101f00004f4d0000494e000049f400004d7800009c
:101f10007c000000f2ff0000f3520000434f00007d
:101f20004d56000045520000f44d0000783a000084
:101f300000f20000fff30000524300004f4d00008c
:101f40005350000043f400004d7800007c00000076
:101f5000f2ff0000f3520000434f00004d53000019
:101f600050520000f44d0000787c0000005000004a
:101f700030250000633a000000f20000fff300008b
:101f8000434300004f4d00005350000043f4000055
:101f90004d7800007c000000434f00004d5f0000c2
:101fa00034000000000100000203000004050000ee
:101fb0000607000008090000ffff0000ffff000007
:101fc000ffff0000ff0a00000b0c00000d0e0000d8
:041fd0000f000000fe
:020000040000fa
:103800000400fa00004f780000c6b3009e4f10007d
:1038100002003400f0cdb3001e4f6000f0c2b300d0
:103820009e4f10000300340060c4b3009e4f100090
:1038300003003400f00f2000100798000700370045
:103840009e00fb0000fd2f008080400020fd28002e
:10385000614078000080fb00100798001e00900077
:103860000080fa0000000600fa03fa0020bf9b0067
:1038700031bf9b000040eb00204f98000000eb00a0
:10388000400798000000eb00300798000040eb0074
:10389000504798000040eb00404798000040eb0084
:1038a000304798000040eb00204798000040eb00b4
:1038b0001047980010c0b300004f78000000eb00e4
:1038c000400798009a00370010c0b300004f7800fe
:1038d000ce0090002eb89300008040009040780009
:1038e000514798000040eb00923f20000e0141003c
:1038f00000497800de409000c0c5b30080cf500082
:1039000004003a0012c0b300913f20008e804000b6
:10391000824878004e0090000000e80040079800c0
:10392000903f20000e004000104078000004e000ae
:1039300078003200ce0090002eb893000080400046
:1039400090407800414798000040eb00823f200003
:103950000e01410000497800ce40900080c7b300be
:1039600080cf500004003a0012c0b300813f200015
:103970008e804000824878004e0090000000e800f1
:1039800040079800803f20000e0040001040780063
:103990000004e00050003200ce0090002eb89300ea
:1039a000008040009040780031479800be40900071
:1039b0004e0090000000e8004007980001407800a9
:1039c0008fff0700204f9800ce0090002eb8930084
:1039d000008040001041780022479800ae409000df
:1039e0004e0090000000e800400798000140780079
:1039f00083ff0700104798002e489000ef4f5000bb
:103a000003003e001e409000ef4f500002003600c1
:103a10000040eb00004f780010c0b3009e4f100034
:103a200010003a003e0190002e4890000080fb00fc
:103a30004400dd008040780000cfb30080c060000b
:103a40001e40900000c04000804078006b0047009e
:103a5000017178003e0090000000e80030079800f7
:103a600033003700be0090006b0047005e419000bd
:103a7000827078003e0090000000e8003007980057
:103a8000be0090006b0047004e41900082707800ad
:103a90003e0090000000e80030079800be00900053
:103aa0006b0047003e419000827078003e0090001d
:103ab0000000e80030079800be0090006b0047004f
:103ac0002e419000827078003e0090000000e800d7
:103ad0003007980016003700be0090006b004700ca
:103ae0005e419000827078003e0090000000e80087
:103af00030079800be0090006b0047004e419000d8
:103b0000827078003e0090000000e80030079800c6
:103b100007003700be0090006b0047005e41900038
:103b2000827078003e0090000000e80030079800a6
:103b3000ce0090003eb89300808f500062ff3900a5
:103b40002eb89300eb0047003e019000cbf2070037
:103b50003e0090000080fa00000006001200fa000b
:103b6000404f9800710798000000eb00000f7800ac
:103b70004e4890008080fb00a04b20000088b900d8
:103b8000800078008080200000804000400798007e
:103b9000ce009000804b2000008040001000780094
:103ba000800078004e009000300090000080e80017
:103bb000008050000000e80030079800be00900030
:103bc0007e009000808f5000050039007e0090003c
:103bd000300798000000eb00200798000400370031
:103be0007e009000be009000010050002007980069
:103bf0000000eb00500798001b0037005e009000ab
:103c00000000e000150032004e009000b00090006f
:103c10005e0090000080e80060c0780030479800a7
:103c20004e009000b00090005e0090000000e9009f
:103c30000080e80060c07800204798003e40900077
:103c4000eb4f400005003a002e409000eb4f400043
:103c500002003a0030162000000f78005e0090004d
:103c60000000e80050079800de0090003e00900041
:103c7000808f5000e1ff39002e0090000000e0002e
:103c8000220032000000eb00500798001b003700b4
:103c90005e0090000000e000150032005e00900021
:103ca000ce00900068004000010040009040780085
:103cb000314798005e0090000000e900ce009000bf
:103cc00068004000010040009040780021479800c3
:103cd0003e409000eb4f400005003a002e4090001f
:103ce000eb4f400002003a0030162000000f780031
:103cf0005e0090000000e80050079800de00900091
:103d00002e009000808f5000e1ff39003016200017
:103d10009e0f10003a003a00dc0607004e009000ab
:103d2000100078008000e9004e0090000108780043
:103d3000de0607004e009000b00090007e0090006c
:103d4000008040008080e8004e0090003100980024
:103d50004e00900030019000ce009000804b20007b
:103d60000080400010007800800f510014003600e1
:103d70004e4890008080fb00a04b20000088b900d6
:103d8000e800400080802000808140004e009000cc
:103d90003000900000017800ce009000804b2000a1
:103da00000804000100078000000510000804100b9
:103db0008000e9004e009000310098000d003700af
:103dc0004e00900030019000ce009000804b20000b
:103dd00000804000100078000080e900800f510052
:103de000040036004e009000e80040004e009000b5
:103df000310098001e007800000f98000200370084
:103e00008000eb00010f98000e0890000080fa007f
:103e1000000006000a00fa00604798004107980079
:103e20006e4090008080fb00a04b20000088b9000d
:103e300080007800808020000080400020079800eb
:103e4000ae009000804b2000008040001000780001
:103e5000800078002e009000300090000080e80084
:103e6000008050000000e800100798009e009000bd
:103e70004e009000808f5000050039004e009000e9
:103e8000100798000000eb00000f780003003700d7
:103e9000ce0090001e009000008f50002e00900079
:103ea000300090000080e800cf00de0000007800c5
:103eb00000f0a1001e019000d51507001e00e000d3
:103ec000070032002e00900068004000cf00de00a6
:103ed0000000780000f0a1001e017800cc1507005a
:103ee0006a0607002e009000100078008000e900ac
:103ef0002e009000010878006c0607002e0090004c
:103f0000b00090004e009000008040008080e800eb
:103f10002e009000310098002e009000300190009b
:103f2000ae009000804b2000008040001000780020
:103f3000800f5100140036006e4090008080fb001e
:103f4000a04b20000088b900e800400080802000dd
:103f5000808140002e009000300090000001780029
:103f6000ae009000804b20000080400010007800e0
:103f700000005100008041008000e9002e00900008
:103f8000310098000d0037002e00900030019000a5
:103f9000ae009000804b20000080400010007800b0
:103fa0000080e900800f5100040036002e009000d0
:103fb000e80040002e009000310098000080fa00d8
:103fc000000006000800fa00404798004e409000ac
:103fd000e34f5000030036000000eb00300798006c
:103fe0001f0037004e4090008080fb00a04b200057
:103ff0000088b9008000780080802000008f400099
:104000001e007800100078000000e00003003a0075
:104010000000eb0030079800110037001e00780008
:1040200030009000104078000080fb0010079800de
:104030001e0090004800dd00100798001e00780068
:1040400030009000104090008080fb001e00900027
:1040500001004000100798001e00900030079800f3
:104060003e0090000080fa00000006004200fa00c6
:104070000040eb00004f7800420037009e80fb00bc
:10408000a04b20000088b9008000780080802000cc
:10409000808040000000eb00800878009e81fb00db
:1040a0001e82fb009e80fb00a04b20000088b90010
:1040b000e80040008080200000814000a04b2000ec
:1040c00000a0b900e6004000808020000080400091
:1040d00002087800a04b200000a0b900e6004000d4
:1040e000808020000080400010017800a04b20005c
:1040f0000098b9008080e8008080200000804000a7
:10410000020878001e81fb009e80fb00a04b20006f
:104110000088b900e8004000808020000080400056
:104120008081e800a04b20000090b900e40040002e
:104130008080200000804000030878009e81fb0002
:104140009e80fb00a04b20000088b900e8004000e2
:104150008080200080804000f04a200000814000e4
:10416000a04b20000098b90080007800804b200010
:10417000808040008080200000804000020878009d
:104180001e4fe80030c0b3009e4f1000bbff36004a
:104190000000eb0050f8880001002800711f980013
:1041a0002200200002279800e10320008e804000ba
:1041b0001100be0060f8880071f888000200280035
:1041c000521f980020002000601f9800a1032000cb
:1041d0008e8040001100be0080f8880091f88800b1
:1041e00002002800321f980020002000401f980085
:1041f000610320008e8040001100be00a0f88800fe
:10420000b1f88800f2ff2900121f9800200020005a
:10421000201f9800220320000e0141001200be0062
:10422000c0f88800d1f888000000eb00e0f88800b2
:1042300000002a007017980021002000011f98003c
:10424000e10220008e8040001100be00f0f88800de
:1042500001f9880002002a0052179800200020006f
:1042600060179800a10220008e8040001100be005f
:1042700010f9880021f9880002002a0032179800fe
:104280002000200040179800610220008e8040002e
:104290001100be0030f9880041f98800f2ff2b00c0
:1042a00012179800200020002017980022022000fa
:1042b0000e0141001200be0050f9880061f988002b
:1042c0000000eb0070f9880000002c00700f9800cf
:1042d0002100200001179800fe0047001100be00d9
:1042e00080f9880091f9880002002c00520f980094
:1042f00020002000600f9800fa0047001100be0067
:10430000a0f98800b1f9880002002c00320f980053
:1043100020002000400f9800f60047001100be006a
:10432000c0f98800d1f98800f2ff2d00120f980023
:1043300020002000200f9800720147001200be00ec
:10434000e0f98800f1f988000000eb0000fa88002d
:1043500000002e007007980021002000010f980037
:10436000ee0047001100be0010fa880021fa880014
:1043700002002e00520798002000200060079800dd
:10438000ea0047001100be0030fa880041fa8800b8
:1043900002002e00320798002000200040079800fd
:1043a000e60047001100be0050fa880061fa88005c
:1043b000f2ff2f001207980020002000200798002d
:1043c0000e81e8001200be0070fa880081fa8800b1
:1043d0000080fa00000006000600fa00404798003e
:1043e0004e4090008080fb00a04b20000088b90068
:1043f00080007800808020000080400090007800dd
:10440000110798004e4090008080fb00a04b2000d8
:104410000088b90080007800808020000080400083
:10442000100f78001e0090009e0f5000ecff3a0025
:104430001e0090000080fa00000006001000fa0044
:104440004047980031079800420798004e4090007e
:10445000e34f5000030036000000eb0070079800a7
:104460007a003700ce0090003e009000fefc07006e
:10447000000f78004e4090000080fb00600798001d
:104480006e009000e10f50001a0032006e009000a4
:10449000e10f500004003c006e0090000000e000be
:1044a00008003200370037006e009000e20f500025
:1044b0001c0032006e009000e30f50002500320017
:1044c00030003700dc160700100798001e0090002f
:1044d0009e0f500003003100101620007007980056
:1044e0005a0037009e0078003e0090009d1407009f
:1044f00027003700fd160700100798001e009000e7
:104500009e0f500003003100101620007007980025
:104510004e0037009e0078003e0090001315070003
:104520001b0037001e170700100798001e009000a0
:104530009e0f5000030031001016200070079800f5
:10454000420037009e0078003e0090008915070069
:104550000f0037003f170700100798001e0090005b
:104560009e0f5000030031001016200070079800c5
:10457000360037009e0078003e009000ff150700cf
:10458000030037000000eb00700798002f00370091
:104590004e4090000080fb00500798005e009000a5
:1045a000e10f5000190032005e009000e10f500052
:1045b00004003c005e0090000000e00008003200b3
:1045c000200037005e009000e20f50001100320022
:1045d0005e009000e30f5000190032001900370010
:1045e000700f07000000e000020032009560a90093
:1045f000cd22a800760f07000000e0000100320085
:10460000cd22a8009580a8000e00370097e0a800f2
:104610000c003700880f07000000e00002003200a5
:104620009e40a900f522a8008e0f07000000e000c0
:1046300001003200f522a8009e60a80001003700aa
:104640009f20a8000000eb00700798007e009000fb
:104650000080fa0000000600809fbe000000fa0003
:1046600011e1a90084e0a900404080000000e800ba
:104670004040880061408000504080000080e80099
:10468000808f500007003900604080008000780073
:10469000504080000080e80000805000004088000a
:1046a0000700370061408000504080000080e80033
:1046b00080805000004b20000080400000408800b7
:1046c00051408000004080004800de0080487800b3
:1046d0005140800000408000904098006040800081
:1046e0005040880051408000006680000080e90052
:1046f000808f50000200360000812000504088006a
:10470000504080000080e800604088000040eb00de
:10471000fafeb7000080fa004f00be00004006001d
:10472000809fbe00821f78000000fa0010c0b30016
:10473000fafeb70011e1a9008080200080d7880030
:104740003100370022c2bf00624060000004e00078
:1047500008003a0022c2bf00684060000004e00088
:1047600004003a0022c2bf00644060000004e00080
:104770000f00320080d78000a00090003011800030
:10478000804878002222a9002262a9002242a900c2
:1047900081d7800080d78000100090000080e80062
:1047a000a00098000040eb00fafeb70016003700aa
:1047b00080d78000a00090003011800080487800f1
:1047c00080d78000a00090008100e80021009800c0
:1047d0002001900081d78000804b200000804000a5
:1047e00010007800800f51000400360080d7800050
:1047f00081d78000e8804000210098000000eb0095
:104800003008880011e1a80022c2bf0061406000aa
:104810000004e000cbff3a008560a9000080fa00a8
:104820004f0178004f00be00004006003600f8003f
:10483000809fbe00829fbe00849fbe00869fbe00f8
:104840000c00fa0010c0b300f6feb70033003700ca
:10485000a0f88000b1f88000930180000101780089
:104860009201880010407800930188000080fb00ce
:1048700020118800a0f88000b1f880000000d0006e
:104880002000b0004220a800e08048004220ae0096
:104890004200a8000080d300a0f88800b1f888008a
:1048a000a0f88000b1f88000680147000089be00d0
:1048b000c0f88000d1f88000640147000089be0084
:1048c0005e009000be009000810f500009003e0085
:1048d0005e0190003e009000800f51000c003a00f5
:1048e000ce0090002e019000828f500001003e000b
:1048f0000700370000002800000f7800210020008a
:10490000110798001e00be00a0f88800b1f88800ca
:1049100050f880000000e90050f8880050f880004e
:104920000000e0000400320023c2bf0062406000cb
:104930000004e000c6ff320050f880000000e000f4
:10494000020032008580a9001200370023c2bf0098
:104950000042b2000004e00004003a0023a2a800d4
:1049600023e2a9008580a9000a00370023a2a9003c
:1049700023e2a8009580a9000040eb00f6feb700f6
:10498000790e07000000e00002003200cd22a900ed
:104990009560a8000080fa004f03be004f02be00e1
:1049a0004f01be004f00be003600f9000040060077
:1049b000809fbe000000fa0013e1a9008500a90055
:1049c000106680000000e8001066880031668000f4
:1049d000206680000080e800808f500007003900ca
:1049e0003066800080007800206680000080e8004b
:1049f00000805000104088000700370031668000ba
:104a0000206680000080e80080805000004b20007d
:104a10000080400010408800216680001040800027
:104a20004800de0080487800216680001040800049
:104a300090409800306680002066880021668000e3
:104a4000d08b80000080e900808f5000020036008b
:104a5000a0cc200020668800206680000080e8004e
:104a6000306688000040eb00fbfeb7000080fa00d3
:104a70004f00be0000400600809fbe00821f7800ed
:104a80000000fa0010c0b300fbfeb70013e1a9005c
:104a900020cc200080d788003100370032c2bf0010
:104aa000624060000004e00008003a0032c2bf002b
:104ab000684060000004e00004003a0032c2bf0019
:104ac000644060000004e0000f00320080d78000e6
:104ad000a0009000b0118000804878003222a90028
:104ae0003262a9003242a90081d7800080d78000bd
:104af000100090000080e800a00098000040eb004b
:104b0000fbfeb7001600370080d78000a0009000a1
:104b1000b01180008048780080d78000a00090000d
:104b20008100e800210098002001900081d78000da
:104b3000804b20000080400010007800800f510062
:104b40000400360080d7800081d78000e8804000d4
:104b5000210098000000eb005008880013e1a80035
:104b600032c2bf00614060000004e000cbff3a00a9
:104b700087c0a9000080fa004f0178004f00be00f6
:104b800000400600809fbe00829fbe000c00fa001d
:104b900010c0b300f7feb7003300370030f98000d3
:104ba00041f98000930180000101780092018800a2
:104bb00010407800930188000080fb00a01188005d
:104bc00030f9800041f980000000d0002000b000e2
:104bd0004220a800e08048004220ae004200a80029
:104be0000080d30030f9880041f9880030f9800056
:104bf00041f98000680147000089be0050f980003b
:104c000061f98000640147000089be005e009000e9
:104c1000be009000810f500009003e005e01900030
:104c20003e009000800f51000c003a00ce00900032
:104c30002e019000828f500001003e0007003700d7
:104c400000002a00000f78002100200011079800c2
:104c50001e00be0030f9880041f98800e0f88000ad
:104c60000000e900e0f88800e0f880000000e000c3
:104c70000400320033c2bf00624060000004e00064
:104c8000c6ff3200e0f880000000e00002003200c1
:104c900087e0a9000300370097e0a9000040eb007f
:104ca000f7feb7000080fa004f01be004f00be00c3
:104cb00000400600809fbe000000fa001fe1a9002e
:104cc0008760a900e08b80000000e800e08b88008e
:104cd000018c8000f08b80000080e800808f500005
:104ce00007003900008c800080007800f08b800085
:104cf0000080e80000805000204088000700370056
:104d0000018c8000f08b80000080e80080805000e3
:104d1000004b20000080400020408800f18b800084
:104d2000204080004800de0080487800f18b800041
:104d30002040800090409800008c8000f08b88001c
:104d4000f18b8000a0b180000080e900808f5000ce
:104d50000200360040182100f08b8800f08b8000a4
:104d60000080e800008c88000040eb00fcfeb700eb
:104d70000080fa004f00be0000400600809fbe0089
:104d8000821f78000000fa0010c0b300fcfeb700dc
:104d90001fe1a900c017210080d78800310037002b
:104da00052c2bf00624060000004e00008003a0008
:104db00052c2bf00684060000004e00004003a00f6
:104dc00052c2bf00644060000004e0000f003200e7
:104dd00080d78000a0009000b0128000804878004a
:104de0005222a9005262a9005242a90081d7800034
:104df00080d78000100090000080e800a00098009c
:104e00000040eb00fcfeb7001600370080d78000a2
:104e1000a0009000b01280008048780080d7800009
:104e2000a00090008100e80021009800200190007f
:104e300081d78000804b2000008040001000780067
:104e4000800f51000400360080d7800081d7800099
:104e5000e8804000210098000000eb00a0088800d6
:104e60001fe1a80052c2bf00614060000004e000e2
:104e7000cbff3a008e40a9000080fa004f01780075
:104e80004f00be00004006003600f800809fbe00c4
:104e9000829fbe00849fbe00869fbe000c00fa0069
:104ea00010c0b300f8feb70033003700c0f980002f
:104eb000d1f98000930180000101780092018800ff
:104ec00010407800930188000080fb00a012880049
:104ed000c0f98000d1f980000000d0002000b000af
:104ee0004220a800e08048004220ae004200a80016
:104ef0000080d300c0f98800d1f98800c0f9800093
:104f0000d1f98000680147000089be00e0f9800007
:104f1000f1f98000640147000089be005e00900046
:104f2000be009000810f500009003e005e0190001d
:104f30003e009000800f51000c003a00ce0090001f
:104f40002e019000828f500001003e0007003700c4
:104f500000002c00000f78002100200011079800ad
:104f60001e00be00c0f98800d1f9880070f98000e9
:104f70000000e90070f9880070f980000000e0008e
:104f80000400320053c2bf00624060000004e00031
:104f9000c6ff320070f980000000e000020032001d
:104fa0008e60a9001200370053c2bf000042b20059
:104fb0000004e00004003a0053a2a80053e2a90054
:104fc0008e60a9000a00370053a2a90053e2a8008e
:104fd0009e60a900090d07000000e00002003200f9
:104fe000f522a9009e40a8000040eb00f8feb700a3
:104ff0000080fa004f03be004f02be004f01be000a
:105000004f00be003600f90000400600809fbe0041
:105010000000fa0021e1a9008780a900b0b180005a
:105020000000e800b0b18800d1b18000c0b18000bc
:105030000080e800808f500007003900d0b1800068
:1050400080007800c0b180000080e800008050003f
:105050003040880007003700d1b18000c0b1800027
:105060000080e80080805000004b2000008040005d
:1050700030408800c1b18000304080004800de0030
:1050800080487800c1b18000304080009040980096
:10509000d0b18000c0b18800c1b1800070d780005d
:1050a0000080e900808f500002003600e06321009c
:1050b000c0b18800c0b180000080e800d0b1880095
:1050c0000040eb00fdfeb7000080fa004f00be007c
:1050d00000400600809fbe00821f78000000fa009a
:1050e00010c0b300fdfeb70021e1a90060632100fc
:1050f00080d7880031003700b2c2bf006240600034
:105100000004e00008003a00b2c2bf00684060003e
:105110000004e00004003a00b2c2bf006440600036
:105120000004e0000f00320080d78000a000900053
:10513000b015800080487800b222a900b262a900b0
:10514000b242a90081d7800080d780001000900073
:105150000080e800a00098000040eb00fdfeb700d2
:105160001600370080d78000a0009000b0158000a6
:105170008048780080d78000a00090008100e8007f
:10518000210098002001900081d78000804b2000f2
:105190000080400010007800800f510004003600ad
:1051a00080d7800081d78000e880400021009800ef
:1051b0000000eb00c008880021e1a800b2c2bf00d7
:1051c000614060000004e000cbff3a008f00a900be
:1051d0000080fa004f0178004f00be00004006003a
:1051e000809fbe00829fbe000c00fa0010c0b3007a
:1051f000f9feb7003300370050fa800061fa8000f2
:10520000930180000101780092018800104078002d
:10521000930188000080fb00a015880050fa8000f0
:1052200061fa80000000d0002000b0004220a800f9
:10523000e08048004220ae004200a8000080d30079
:1052400050fa880061fa880050fa800061fa800004
:10525000680147000089be0070fa800081fa800072
:10526000640147000089be005e009000be0090000f
:10527000810f500009003e005e0190003e0090004a
:10528000800f51000c003a00ce0090002e019000db
:10529000828f500001003e000700370000002e0002
:1052a000000f780021002000110798001e00be00aa
:1052b00050fa880061fa880000fa80000000e900d6
:1052c00000fa880000fa80000000e00004003200cc
:1052d000b3c2bf00624060000004e000c6ff3200bd
:1052e00000fa80000000e000020032008f20a900d8
:1052f000030037009f20a9000040eb00f9feb70033
:105300000080fa004f01be004f00be0000400600c2
:105310002200fa00881f78000203070053fb0700f1
:10532000d00e07000040eb00f4fab70020f5210092
:10533000c0d7880020f52100b0d78800f2130700fd
:1053400040a7a8007c050700c0d78000640040008b
:1053500060050700c1d780000000eb0080087800de
:10536000c0d7800064004000eeec070080007800a9
:1053700060072000808f500005003e00c8d78000e5
:10538000c0d7800064004000e6ec0700000c780005
:10539000c0d78000c03eb000c0d78800f4dabf009c
:1053a0000040e800f4fab700cac2bf0068406000dd
:1053b0000004e000fcff3a0079030700000037001a
:1053c0000060fe00cac2bf00684060000004e00048
:1053d000010032000000fe00ccc2bf000042b2005b
:1053e0000004e0000a003a00dcc2bf006240600036
:1053f0000004e00006003a00dbc2bf006840600025
:105400000004e0000200320051060700cca2a80010
:10541000f4dabf000004e00026003200b0d78000bc
:105420000a06070010079800b0d78000a1af21003e
:10543000f5010900b0187800c03eb1001e009000d0
:105440000000e00004003a00b0d78000a1af2100c6
:105450004f020700100798001e0090000000e000b7
:1054600003003200a1af21001e009000820307005c
:10547000b0d78000c03eb000b0d78800b1d7800060
:1054800060b12200808f50000200390020f5210019
:10549000b0d78800b1d780000000eb00800878000a
:1054a000fa000700f4dabf000040e900f4fab700a0
:1054b000fe0007000040eb0040479800090037005d
:1054c0004e409000c4fb07000000e00002003200e4
:1054d0004e409000700407004e4090000040e800ed
:1054e000404798004e409000e34f5000f4ff3600d4
:1054f000ccc2bf000042b2000004e00062003200f3
:10550000dbc2bf00684060000004e0005e003200c3
:1055100000f880003007980000f8800040079800ed
:10552000be0090004e009000808f500056003a0060
:105530003e0090000000e00053003200dcc2bf00db
:10554000614060000004e00002003a00dc02a800b4
:105550004d003700e2c2bf0001c8b3000140600047
:105560000004e00048003200cca2a90041e2a900fa
:105570009540a9008540a9000124200091407800b1
:1055800030ceb30000c060000044a00040e2b7008d
:1055900041e2a8003500370030f8800041f8800073
:1055a000930180000101780092018800104078008a
:1055b000930188000080fb004012880030f88000d2
:1055c00041f880000000d0002000b0004220a80078
:1055d000e08048004220ae004200a8000080d300d6
:1055e00030f8880041f8880030f8800041f88000e9
:1055f0007e0147000089be00f0ff2f00500f980089
:1056000011002000610f98007a0047001000be00d2
:10561000760147000089be008e1090004e09900070
:10562000828f500009003e000e109000ce089000be
:10563000810f50000d003a007e0990003e08900056
:10564000800f510001003e000800370001002800d3
:10565000110f980012002000220f9800f20047005e
:105660001100be0030f8880041f8880040c2bf0039
:10567000624060000004e000c7ff32009540a800cf
:10568000dc02a900dc22a800cac2bf007040600092
:105690000004e00035003a00f6debf000004e00040
:1056a0000300320002c2b300125798000200370014
:1056b0000040eb00105798009e509000014f78007a
:1056c000fadebf000004e000040032001e41780052
:1056d0000244a0000257980003003700f0ceb30048
:1056e0001e406000005798000e509000004f780058
:1056f000070b07000000e00019003a00f7debf00ca
:105700000004e000040032009e4078000134a00054
:10571000714f98000300370070cfb3001e40600047
:10572000704f98007e499000024f7800fbdebf006a
:105730000004e000040032001e4078000024a000b5
:10574000604f980003003700b0cfb3001e406000e8
:10575000604f9800ee489000014f78003700370006
:1057600030cfb3001e4f600034003700f8debf00ba
:105770000004e0000300320002c2b300524f980060
:10578000020037000040eb00504f9800de489000c8
:10579000014f7800fcdebf000004e000040032008e
:1057a0001e4178000244a000424f980003003700d9
:1057b000f0ceb3001e406000404f98004e4890006d
:1057c000004f7800dd0a07000000e00019003a00f1
:1057d000f9debf000004e000040032009e407800c3
:1057e0000134a000314f98000300370070cfb300a0
:1057f0001e406000304f98003e499000024f7800f4
:10580000fddebf000004e000040032001e4078000e
:105810000024a000204f980003003700b0cfb30051
:105820001e406000204f9800ae489000014f780065
:105830000200370030cfb3001e4f60001e81fb0016
:10584000e1168000c003200000806000800f51003e
:10585000dbfe32000d000700e116800030fc2f0057
:1058600000806000e01688009e80fb00e01680004b
:1058700000807000e01688000c000700d0fe3700a2
:105880000000fa0001000700ffff37000000fa00e7
:105890000600fc0042c0bf0001ceb3000140700012
:1058a00042e0b7000080fa00000006000000fa00a5
:1058b0000600fc0042c0bf007f40600042e0b7002d
:1058c0000080fa00000006000800fa002007980097
:1058d0000000eb00100798002e00900010007800e8
:1058e00074005000ae009000740040008100400041
:1058f0000040eb00a04098000040eb0010479800eb
:105900002e009000720040003200200001ee2800be
:105910008aeb07000000e00008003a000040eb00be
:10592000004f780023c2bf000080fb004200de0071
:105930006140600010479800300037002e00900052
:10594000720040003200200041ee28007beb07008f
:105950000000e00008003a0010c0b300004f7800db
:1059600033c2bf000080fb004200de0061406000e7
:1059700010479800210037002e0090007200400070
:105980003200200081ee28006ceb07000000e000f0
:1059900008003a0020c0b300004f780053c2bf0097
:1059a0000080fb004200de0061406000104798006c
:1059b000120037002e0090007200400032002000dc
:1059c000c1ee28005deb07000000e00008003a008f
:1059d00030c0b300004f7800b3c2bf000080fb00ae
:1059e0004200de006140600010479800030037006d
:1059f0003000200030079800110037001e40900052
:105a0000e14f50000c003a002e009000100078008a
:105a1000740150002e009000760040008000780055
:105a20001e40780085fa0700100798001e009000bd
:105a30003007980002003700201620003007980039
:105a40003e0090000080fa00000006000800fa0006
:105a50000e81e8000089be000000eb00000f780016
:105a6000010037001e0fe8000e80e8001000be00a5
:105a700093018000010178009201880010407800b5
:105a800093018800604798006e4090000004e00099
:105a90000200320010c0b30060479800ee41900051
:105aa0000e80e8001000be000000d0002000b00012
:105ab0004220a800e08048004220ae004200a8003a
:105ac0000080d3000e81e8000089be00034078000a
:105ad0000004a2000004e00003003a00d0ff2f0001
:105ae0009e0f1000dfff36001e0078000080fa00d5
:105af000000006000004fa0060bf9b000000eb00fd
:105b000020079800e60047000000eb0080087800be
:105b1000e60047000000eb0090009800e600470018
:105b20000000eb00a0009800e60047000000eb003a
:105b3000b0009800e60047000000eb00c0009800ad
:105b40000040eb00204798006eb8930010007800ea
:105b50000000e900eeb893006400400081004000be
:105b60000040eb00804878006eb893001000780089
:105b70000080e900eeb8930064004000810040001e
:105b80000040eb00804878006eb89300e4004000cd
:105b900070004700640040000d0009003158780093
:105ba000e000b100e100b1006eb893006f0040006a
:105bb00001ef280009eb07002007980013003700c9
:105bc0002e409000e44f50000300360050002000ab
:105bd00070bf9b006b0037002e4090000080fb00e0
:105be000e6004700000040002e01900002b078005f
:105bf0002e4090000040e8002047980001ef280068
:105c00000000eb00f5ea0700200798002e00900046
:105c10000000e000eaff3a000040eb002047980057
:105c2000530037002e4090000080fb00e600470044
:105c300000004000608078000000e0004900320071
:105c40002e4090000004e00014003a002e40900026
:105c50000080fb00e6004700000040006080780004
:105c600090407800d0c4b30080cf500008003a00c4
:105c70002e4090000080fb00e6004700000040003e
:105c800060807800a7ea0700e20f5000350032007c
:105c90005000200070bf9b003a0037002e4090005b
:105ca0000080fb00e60047000000400060807800b4
:105cb0009cea0700304798003e4090000081fb00be
:105cc0002e4090000080fb00e600470000004000ee
:105cd000e0807800700047007200400067ea07002b
:105ce0003e4090000080fb006e004000f000470046
:105cf000640040008100400050cfb300804878002d
:105d00003e4090000080fb006f004000f000470024
:105d1000640040008100400050cfb300804878000c
:105d20003e4090000080fb00700040008000780042
:105d3000700047000108780070004700cf00de00c7
:105d40000000780000f0a10092070700000f780023
:105d50001e00e000030032001e01780072bf9b00ad
:105d6000080037002e4090000040e80020479800cf
:105d70002e409000e44f5000aaff36000000eb00d8
:105d800070bf9b007eb893000080fa000000060000
:105d90000800fa0010079800210798001e009000e4
:105da000f040900040c5b30080cf500012003a0090
:105db0001e0090006b0040003200200021ef280000
:105dc0005eea07000000e00008003a001e009000b4
:105dd000bdfe0700000f78001e00e0004c003a00f6
:105de0001e009000fe000700490037002000200040
:105df00030079800480037001e009000f0409000e7
:105e000010c5b30080cf500019003a001e0090006a
:105e10006b0040003200200061ef280047ea0700d5
:105e20000000e00004003a000000eb00000f7800e2
:105e3000e6010700360037001e0090006b004000ae
:105e400032002000a1ef28003cea07000000e0003b
:105e500004003a000000eb00000f7800c0010700ca
:105e60002b00370020002000300798002a00370060
:105e70001e009000f040900030c4b30080cf50006e
:105e800020003a001e0090006b004000320020000d
:105e9000e1ef280029ea07000000e00007003a00cf
:105ea0001e00900013ff0700000f78000000eb00b9
:105eb000000f780077010700150037001e009000e2
:105ec0006b0040003200200061ef28001bea070051
:105ed0000000e00008003a001e00900005ff0700e7
:105ee000000f78001e00e00009003a002f020700b2
:105ef000b601070006003700200020003007980098
:105f0000050037002000200030079800020037000d
:105f10001e007800300798003e0090000080fa00d4
:105f2000000006000000fa004227a90042c7bf0097
:105f30000042b2000004e000fcff32000000eb0071
:105f4000102788000000eb00202788000000eb00ed
:105f5000302788000000eb00502788000000eb008d
:105f6000602788000000eb0060168800cca2a80023
:105f70000000eb00e0168800d842a900d862a90012
:105f8000d882a900d8a2a900d822a900d802a900c5
:105f9000c8a2a900e0e2a800c882a800c862a800c0
:105fa000e402a900e422a900e442a800e462a800f7
:105fb000e002a900e022a900e042a900e062a900f5
:105fc000316c20009140780000ccb30000c060002c
:105fd0007040b300c3e6b700816a200091407800aa
:105fe00000ccb30000c060000024a000a8e6b70009
:105ff000916a20009140780000ccb30000c060009e
:106000000014a000a9e6b700a16a20009140780022
:1060100000ccb30000c06000c040b300aae6b700e7
:106020004b030700d16d20009140780000ccb300f5
:1060300000c06000a040b300dde6b700c16a2000e8
:106040009140780000ccb30000c06000e040b30095
:10605000ace6b700a16c20009140780000ccb30002
:1060600000c06000b040b300cae6b700116d200068
:106070009140780000ccb30000c06000c040b30085
:10608000d1e6b700616c20009140780000ccb300ed
:1060900000c060003040b300c6e6b700416a20008f
:1060a0009140780000ccb30000c060007040b300a5
:1060b000a4e6b700516d20009140780000ccb300f9
:1060c00000c06000c041b300d5e6b700316a2000cf
:1060d0009140780000ccb30000c06000a041b30044
:1060e000a3e6b700916c20009140780000ccb3008b
:1060f00000c060005040b300c9e6b700616a2000ec
:106100009140780000ccb30000c060000034a000d3
:10611000a6e6b700b16d20009140780000ccb30036
:1061200000c06000e041b300dbe6b700616b200017
:106130009140780000ccb30000c060003041b30053
:10614000b6e6b70022c2bf00f043b20022e2b700b9
:1061500032c2bf00f043b20032e2b70052c2bf0009
:10616000f043b20052e2b700b2c2bf00f043b20047
:10617000b2e2b70023e2a80023a2a90033e2a800fc
:1061800033a2a90053e2a80053a2a900b3e2a800d9
:10619000b3a2a900070307000080fa000000060070
:1061a0000000fa00770f070080007800ec8f5000a5
:1061b000090036000001eb0020f02800012020003b
:1061c000130d0700b1fd070000f880000000e80093
:1061d00000f88800b5fd07000080fa000000060006
:1061e0001600fa00200f9800f0f12800104f7800f8
:1061f0000e00e800320120008000eb0026e90700d5
:106200002e0890006f00400005000900305f780004
:106210006e00b1006000b1005a0f070080007800e6
:10622000ec8f5000120036000001eb0000f1280056
:1062300001202000f60c0700cf70de000e00780071
:1062400000f0a1000001eb00f10c07000001eb00e1
:10625000c0f1280001202000ed0c07008bfd070095
:1062600000f880000000e80000f888008ffd0700bb
:106270000080fa00000006000600fa00000f780017
:10628000110798001e009000100078000000e00048
:106290007e0032009e0090000040eb00e048980035
:1062a0001e009000100078000080e9009e00900021
:1062b00064004000810040000040eb00804878000e
:1062c000300f070080007800ef8f50006f0036001d
:1062d0000001eb0030f3280001202000cc0c070067
:1062e0001e00780020079800e0152000ae00900006
:1062f000808f500043003200e2152000ae01900074
:10630000828f510011003e002e019000e20f5100db
:106310002d003200ae019000e28f510004003e00db
:106320002e019000e10f5100220032005200370090
:10633000ae019000e38f5100280032002e01900042
:10634000e50f51002a0032004b00370012162000e2
:10635000ae019000828f51003900320012162000e9
:10636000ae019000828f510009003e00f21520001e
:10637000ae019000828f51002700320002162000eb
:10638000ae019000828f5100280032003a003700a1
:1063900022162000ae019000828f51002d003200a5
:1063a00032162000ae019000828f51002e00320084
:1063b000310037000001eb00f0f32800012020003d
:1063c000930c07002c0037000001eb0050f428006c
:1063d000012020008e0c0700270037000001eb0091
:1063e000b0f4280001202000890c070022003700ab
:1063f0000001eb0010f5280001202000840c0700ac
:106400001d0037000001eb0070f52800012020007e
:106410007f0c0700180037000001eb00d0f52800c2
:10642000012020007a0c0700130037000001eb0068
:1064300030f6280001202000750c07000e00370000
:106440000001eb0090f6280001202000700c0700ee
:10645000090037000001eb00f0f6280001202000c1
:106460006b0c0700040037000001eb0050f7280018
:1064700001202000660c070004fd070000f88000e2
:106480000000e80000f8880008fd07000080fa001e
:10649000000006003400fa00ba0e07000001780080
:1064a000e1062000810f51002b0036000001eb00b7
:1064b000b0f7280001202000550c07000040eb0039
:1064c000004f7800180037000e00e800220320007b
:1064d0008000eb0070e807000e00e8009e407800a6
:1064e000f90607001e04e000080032000e01e80073
:1064f000124178000204e000040032001200200083
:1065000000ef280001202000410c07000e00e800e9
:10651000cf00de000000780000f0a1000001eb00d9
:106520003b0c07001e4fe80032c0b3009e4f110025
:10653000e5ff36000001eb00c0f12800012020003b
:10654000330c0700d1fc070000f880000000e800d1
:1065500000f88800d5fc07000080fa000000060063
:106560000400fa00870e070080007800ef8f5000cb
:10657000140036000001eb00a0f8280001202000e4
:10658000230c0700a0ed2800000f78000020200059
:10659000100798000001eb001e00be001c0c070055
:1065a0000001eb00c0f1280001202000180c0700ba
:1065b000b6fc070000f880000000e80000f8880042
:1065c000bafc07000080fa00000006003400fa0060
:1065d0006c0e070000017800e1062000810f5100d9
:1065e0002b0036000001eb0090f92800012020006c
:1065f000070c07000040eb00004f78001800370040
:106600000e00e800220320008000eb0022e80700d3
:106610000e00e8009e407800ab0607001e04e00074
:10662000080032000e01e800124178000204e00088
:10663000040032001200200000ef2800012020009a
:10664000f30b07000e00e800cf00de00000078002a
:1066500000f0a1000001eb00ed0b07001e4fe80069
:1066600032c0b3009e4f1100e5ff36000001eb0081
:10667000c0f1280001202000e50b070083fc070083
:1066800000f880000000e80000f8880087fc0700a0
:106690000080fa00000006000c00fa00204f98006d
:1066a000e4004700f0f12800904878000100e8007d
:1066b0008040eb00014878000000e8008040eb00db
:1066c000014878000000e8008040eb0001487800b5
:1066d0000000e8008040eb00014878002e48900060
:1066e00038f60700100798009e0090002e48900092
:1066f0001af50700000f78001e00e00029003a009c
:106700001e0090000000e000260032001d0e070071
:10671000800078001e01900074014100828f5000bb
:10672000200039000001eb0080fa28000120200041
:10673000b70b07002e4890000080fb001003b0004c
:10674000e4004700801f780070fb2800801f78005d
:10675000010078003ee80700e48757006400470026
:10676000cf00de000000780000f0a1000001eb0087
:10677000a70b07009e0090002e489000a5f507008b
:106780000001eb00c0f1280001202000a00b070051
:106790003efc070000f880000000e80000f88800d8
:1067a00042fc07000080fa0000000600ae00fa007c
:1067b000881f780065004700620720008000eb001a
:1067c000b5e7070065004700d1fb28000e0009006f
:1067d00031587800f000b1000040eb0040479800cd
:1067e00020003700b00720000e00400022032000e8
:1067f0008000eb00a8e70700b00720000e00400073
:10680000ce409000300607004e4090000004e000ab
:106810000d003200b00720000e004000104078004c
:106820000004e000080032006504470065004700ee
:10683000bce7070080004400c0c7b3008048780070
:106840000040eb0090409800b10720008e8040008f
:106850006500470097e707004e4090000040e800c1
:10686000404798004e409000e34f5000ddff360057
:1068700065004700c1f128008ee7070010002000e6
:10688000100798000000eb00000f78000b003700a5
:106890001e0190001e0090000000e8001007980004
:1068a0009e00780065004700614078000000fb0012
:1068b000820078008c0a07001e0fe80050072000b5
:1068c0009e0f1000f2ff36004f0478000080fa009f
:1068d000000006000600fa00881f780020079800d4
:1068e00010002000100798000000eb00000f780057
:1068f0000b0037009e0078002e00900000844000be
:106900009e0090001e0090000000e8001007980014
:1069100001007800010a0700004c78001e0fe80013
:10692000500720009e0f1000f2ff36004f04780041
:106930000080fa00000006001000fa00881f7800ae
:1069400069004700c1fc28000500090031587800a3
:106950006000b100800c2000100798000000eb00e0
:10696000000f78000c0037001e0478009e00900095
:106970001e0090000000e800100798000100780059
:10698000e6090700804078006400470000004400ea
:10699000014878001e0fe800400020009e0f100004
:1069a000f1ff3600e9004700640047005200200074
:1069b00018e707000000e00014003200800c2000ff
:1069c000100798000000eb00000f78000b00370064
:1069d0001e0190001e0090000000e80010079800c3
:1069e0009e00780069004700614078000080fb004d
:1069f000820078003c0a07001e0fe80041002000da
:106a00009e8f1000f2ff360068ff07004f047800e9
:106a10000080fa0000000600809fbe00829fbe003a
:106a2000841f78001200fa00ccc2bf000042b200fe
:106a30000004e0007b003a0040c2a90030f880006a
:106a400041f88000930180000101780092018800e4
:106a500010407800930188000080fb0040128800fd
:106a600030f8800041f88000930180000101780037
:106a700092018800104f78009301880030f8800060
:106a800041f880000000d0002000b0004220a800a3
:106a9000e08048004220ae004200a8000080d30001
:106aa00030f8880041f8880030f8800041f8800014
:106ab0006e0147000089be00f0ff2f0050079800cc
:106ac00011002000610798006a0047001000be0016
:106ad000660147000089be008e0890004e019000bc
:106ae000828f500009003e000e089000ce009000fa
:106af000810f50000d003a007e0190003e00900092
:106b0000800f510001003e000800370001002800fe
:106b10001107980012002000220798008e80e800dc
:106b20001100be0030f8880041f8880052cfb30051
:106b30009e4f11000b003a00f2dabf00eb4f40000d
:106b400008003a00dc22a90000f880000000e900fb
:106b500000f888000040eb00f2fab7009540a90069
:106b6000340037001e407800f2fab70031003700d9
:106b7000c3d78000c4d78000140178004012800081
:106b80008040780064004100030040000148780024
:106b90000200e800000a780040c2a900c0d78000c7
:106ba00010007800e10f50001e003600c1d78000b1
:106bb000c0d78000100078000000e90064004000a9
:106bc0000100400010407800eb4f400015003a00f3
:106bd000c1d78000c0d78000100078000080e90095
:106be000640040000100400010407800eb4f40007e
:106bf0000c003a00c0d78000c03eb000c0d788006b
:106c0000c1d7800060b12200808f5000020039009f
:106c100020f52100c0d78800f4dabf000040e8006a
:106c2000f4fab70040c2bf000042b2000004e00026
:106c3000cfff32008540a9000080fa004f027800a3
:106c40004f01be004f00be00004006000400fa00e5
:106c5000000f78001e00780010007800ec0f500044
:106c600003003e0010002000100798003500370098
:106c70001e00780040409000ee4f40002f003a0088
:106c80001e00780060409000ed4f40002b003a005d
:106c90001e00780060489000ec4f400027003a004a
:106ca0001e007800100078000080e9009e00780047
:106cb000640040000100400010407800eb4f4000ad
:106cc0001e003a001e007800100078000000e90065
:106cd0009e007800640040000100400010407800f1
:106ce000eb4f400015003a001e00780080489000ed
:106cf00030c4b30080cf50000d003a001e00780071
:106d000090489000f0c4b30080cf500008003a00d3
:106d10001e007800a0489000d0c4b30080cf50007f
:106d200003003a000000eb00100798000500370050
:106d300050002000100798000200370010002000cb
:106d4000100798001e0090000080fa000000060066
:106d50000200fa000000eb00001288000000eb00c7
:106d6000101288000000eb00201288009540a90056
:106d700040128000000f780001242000914078002c
:106d800030ceb30000c060000024a00040e2b70095
:106d900040c2a9004302a80042e2a8004402a800a1
:106da00041e2a8008540a9009540a8000080fa00b3
:106db000000006001200fa0021e2a90031e2a90059
:106dc00051e2a900b1e2a90011222000914078000f
:106dd000c0cfb30000c0600021e2b7001123200043
:106de00091407800c0cfb30000c0600031e2b7002e
:106df0001125200091407800c0cfb30000c0600092
:106e000051e2b700112b200091407800c0cfb300b1
:106e100000c06000b1e2b7009560a90097c0a9006a
:106e20009e40a9009f00a9002342a9003342a90067
:106e30005342a900b342a9009580a90097e0a90098
:106e40009e60a9009f20a900eedebf000004e000c4
:106e500004003200eedebf000040e9001057980049
:106e6000020037000040eb00105798009e50900041
:106e7000214798002e4090004200dd0020479800f6
:106e8000e6debf000004e00004003200e6debf00e2
:106e90000040e90000579800020037000040eb0076
:106ea000005798002e4090008e50900000c0400087
:106eb000204798002e4090000080fb00800040009a
:106ec00060e9280000804000100078004500de00e6
:106ed000634060000080fb00700798007e00900017
:106ee0000000e00004003200fe009000e18f50003e
:106ef000130032002a003700516a200091407800c8
:106f000000ccb30000c06000a5e6b700616a2000b5
:106f10009140780000ccb30000c060000034a000b5
:106f2000a6e6b700916c20009140780000ccb30039
:106f300000c060005040b300c9e6b7002900370028
:106f4000616a20009140780000ccb30000c060006e
:106f5000a6e6b700516a20009140780000ccb3004b
:106f600000c060000034a000a5e6b700916c2000ce
:106f70009140780000ccb30000c060000024a00065
:106f8000c9e6b7001122200091407800c0cfb300bd
:106f900000c060000014a00021e2b700110037001b
:106fa000516a20009140780000ccb30000c060001e
:106fb000a5e6b700616a20009140780000ccb300dc
:106fc00000c06000a6e6b700916c200091407800f8
:106fd00000ccb30000c06000c9e6b700cd22a90014
:106fe000c922a9002e4090000080fb0080004000d4
:106ff00060e9280000804000100078004300de00b7
:10700000634060000080fb00600798006e00900005
:107010000000e00004003200ee009000e18f50001c
:10702000130032002a003700b16a20009140780036
:1070300000ccb30000c06000abe6b700616b20007d
:107040009140780000ccb30000c060003041b30034
:10705000b6e6b700b16d20009140780000ccb300d7
:1070600000c06000e041b300dbe6b7002900370054
:10707000616b20009140780000ccb30000c060003c
:10708000b6e6b700b16a20009140780000ccb300aa
:1070900000c060003041b300abe6b700b16d200026
:1070a0009140780000ccb30000c06000d041b30034
:1070b000dbe6b7001125200091407800c0cfb30077
:1070c00000c060000014a00051e2b70011003700ba
:1070d000b16a20009140780000ccb30000c060008d
:1070e000abe6b700616b20009140780000ccb300a4
:1070f00000c06000b6e6b700b16d20009140780096
:1071000000ccb30000c06000dbe6b700f522a900a8
:10711000f122a9002e4090000080fb00800040007a
:1071200060e9280000804000100078004200de0086
:1071300061406000614060004201dd00412e20009e
:1071400091407800b0cfb30000c0600002407000f2
:10715000e4e2b7002e4090000080fb008000400079
:1071600060e9280000804000100078000000d10095
:10717000614060006140600000414000412e2000fd
:1071800091407800d0cfb30000c060000240700092
:10719000e4e2b7002e4090000080fb008000400039
:1071a00060e9280000804000100078006140600025
:1071b00061416000412e200091407800e0cfb30093
:1071c00000c0600002407000e4e2b700e7debf00ec
:1071d0000080fb006c00b900e8004000e0de280001
:1071e000008040001000be004209dd00ce01de003c
:1071f000830171004201dd0000402200410f2000a8
:10720000f4e407000000e900401188002062a800b3
:10721000e8debf007d02070063406000634060005d
:1072200000414000012220009140780090cfb3003f
:1072300000c060000240700020e2b70091ee210023
:1072400091407800f0ccb30000c040006140600085
:10725000614160000122200091407800e0cfb3003e
:1072600000c060000240700020e2b700ebdebf000b
:107270000080fb006c00b900e8004000e0de280060
:10728000008040001000be004209dd00ce01de009b
:10729000830171004201dd0000402200410f200007
:1072a000cce407000000e900c01188003062a800ab
