:020000040000fa
:080000000002040000000000f2
:020000040000fa
:100400004fbb23000eff27000e01880000000000f4
:100410000c000700804d2500010020000f000700a0
:10042000000020000000e000020032000000020096
:10043000000000001c2b0200000000000040da0059
:100440000000fe00e02120000000e0000200320079
:10045000002020009001880000000600a102880012
:10046000800078000000eb001a003700e2804000b6
:1004700054a0b4009101ba00e280400054a0b4003e
:100480009102ba00e280400054a0b4000002eb00e8
:10049000472bde00f507b200a6018800602ce100c2
:1004a00008003a000049eb000201e80002003900b0
:1004b0003420ec0002f0a0008301e900f9ff3e00c7
:1004c000040037006128e100010032000082eb00e7
:1004d000040007001101ba000200e000e3ff3a0047
:1004e0000000060004d0a300e20f49001c00390000
:1004f000810278003549ba000201e80002003900a3
:100500003420ec0002f0a0008301e9000f0032006b
:100510002549ba000201e800020039003420ec004d
:1005200002f0a0008301e900080032000400e000ae
:100530000600320015c9ba000201e80002003900c5
:100540003420ec0002f0a0008301e9008180e80083
:1005500054a0b4000300e000e2ff3a0000000600ef
:100560009102ba00055978008301e900f7ff3200d3
:10057000c82ade00055978008301e900f3ff320044
:100580000400e000f1ff320011d9ba00eeff37009d
:100590000040da000000fe000621ef00610888003c
:1005a00080088800000006000a21ef0090088800fb
:1005b000000006001421ef00d1088800f008880030
:1005c000000006001821ef00e108880000098800fb
:1005d000000006006022b800060220000000d000e3
:1005e0008180d2000482d2008582d2000000a00067
:1005f0000202520083825a000300310002024200cc
:1006000083824a000000a1000603e900f3ff3a00dc
:10061000000006000400fa00e0bf9f00e4815700dc
:10062000812978000002eb000f0037006fb89700b7
:10063000904078007fb89700104078000402e800ee
:1006400080cf5000040032008180fb000080fb005e
:1006500000805000070037006fb897000000e800e6
:10066000e0bf9f009309e800820f5200efff3a00bd
:100670000000eb000080fa00000006008001eb00a3
:100680000200370061f079008301e800828f510099
:10069000fcff3a00000006008001eb00020037007a
:1006a000817178008301e800828f5100fcff3a00dd
:1006b000000006008001780000017800010037008a
:1006c0000201e8001204e000fdff3a00314078002a
:1006d000005978000004e000fcff3a0003007800b5
:1006e0000000060010417800814f510004003200e4
:1006f0000000e8000204e000faff3a000000eb000e
:100700000000060010417800b141510003003a009a
:100710000000e8000204e000faff3a000300fb00da
:1007200000000600800078003004e000feff3a0080
:10073000010050000000e90000000600810178007f
:100740000002eb000b003700e44078000104e000f9
:10075000030032000402e80093cf5000040032008e
:100760008180fb001380fb00008050000000060029
:100770008301e800820f5200f3ff3a0000000500f9
:100780000003780080027800020278008001eb000c
:10079000080037000402e90063c07800805a78003e
:1007a0008301e8000004e00002003a008000eb0052
:1007b00006003700828f5100f6ff3a00fbff37003a
:1007c0000040eb0080f07a008100e800848f500048
:1007d000fbff3a000600780000000600889fbe007c
:1007e0000004be000000e00003003a004841810020
:1007f0000800e000130032000800be003e030700be
:10080000000444001804e00004003a000000eb007b
:1008100040418900000478000a0037000800be004b
:100820002103070000004400404189001004e0005b
:10083000020032000058eb00010037000000eb001e
:1008400040418900080078004f04be000000060007
:100850000c00fa00889fbe0000047800cfb097001b
:10086000f0ff2700d0bf9f008004eb0099bf9f00de
:1008700088bf9f00a8bf9f00200c2000b0bf9f0032
:100880007881570070805700080007000fb8970064
:10089000094878000fb89700080450000800780055
:1008a0004f04be000080fa0000000600fe874700eb
:1008b000889fbe008a9fbe008c9fbe008e1f78005e
:1008c000f0b79f000107780082bf9f000000eb0097
:1008d000a0b79f009f0237008006eb0050c2b30014
:1008e00080cf5000090032000100fb00ffb09700ec
:1008f000a3020700e10f400096023200afb097005c
:100900008100e800a1b79f00920237009e40780066
:10091000d0c2b30080cf50000c00320007003c0072
:100920006d40500080cf50000a0032006b40400004
:1009300080cf50000e003a000800370000c3b3001b
:1009400080cf50000a003a00060037000d30a000aa
:10095000050037000d00a000030037000d10a000b7
:10096000010037000d20a0000e07e800e7ff370068
:100970000d18a300010032000d00a1000d38a300e6
:10098000010032000d20a1000100fb0002fd2f003c
:1009900002004000e90f50000e003e000002eb0094
:1009a000c4b79f0082017800cfb297006a28b900cf
:1009b0001e01fb000001410003014100c2b79f007e
:1009c0005e00fb0003004000e90f50000b003e00fa
:1009d000f5ff37000006eb00ccb79f00a0c2b300c4
:1009e00080cf500005003a000fb89700c000780093
:1009f00080bf9f00c1b79f000e07e8000001eb0019
:100a0000b2b79f00e0c2b3009e4f100018003a003a
:100a10000de0a0008e00e80064405000914f1000ef
:100a200002003200010778000c0037000fba97006f
:100a3000c402780084bf9f00b5b79f000e87e8000e
:100a40000b0037003fb697006a60b9000000410014
:100a500003004000b0b79f000e07e8001e01fb0036
:100a600003fd2f0003004100e90f5000f5ff3600a1
:100a7000be407800e1d79f00c0c6b30080cf5000d1
:100a8000220032000f003c006940500080cf50002f
:100a90007700320004003c000104e0003102320023
:100aa0006b4050000f00370040c6b30080cf5000ad
:100ab000930032006540400080cf50008b003a0028
:100ac0008f00370030c7b30080cf50001a003200cb
:100ad00007003c006440500080cf500011003200fd
:100ae0000040e80080cf500080003a000f0037003f
:100af00050c7b30080cf50008000320063404000f8
:100b000080cf500079003a0009003700000028002b
:100b10000d48a30001003a00000120008086760005
:100b2000d3ff37000d60a000750037000d50a00006
:100b30000d70a000720037008fb897004100780058
:100b400081bf9f00000478000000e00001003a002f
:100b5000087b22008004eb00010037008104e800dc
:100b600089007800088044001004e000fbff3a0090
:100b70003fb197000200e00003003200890f5100ee
:100b800001003100820478000002eb00e4af9f0016
:100b9000cfb29700898f52000200360009805200c0
:100ba000e0af9f004368de00e10660001b003a00f2
:100bb0000d06780009003700ffb097000002200002
:100bc000ef010700e10f4000030032002fb0970053
:100bd0000000e800a0b79f000c06e800efa897000f
:100be000810f5600f4ff3a000081eb00e2af9f0056
:100bf0000a003700880078003100fb00010478000b
:100c0000ffb09700de010700e10f40000300320053
:100c10002fb297000402e800a4b79f000900e90082
:100c200080047800e10f4000f2ff3a000006eb007c
:100c30000d00e0000a003a00c6013700ffb097003f
:100c400000022000ce010700e10f40000300320047
:100c5000afb297008502e800a5b79f000c06e80038
:100c60006fa89700800f5600f4ff3a00b9013700d3
:100c70008fb897004100780081bf9f00cf80de00d1
:100c800001017800820178000205be000004be0068
:100c90000203be000002be004822de00482edd0036
:100ca00004027600e4d79f000d48a3000a0032003a
:100cb0000404e00008003200e14f42000600320068
:100cc00071fd2f000180470004487800184098000b
:100cd0002900200002003700f0d79f0019002000f3
:100ce00072fd2f0002844700a1ff370064fd2f0032
:100cf00004844700190020009dff37000d0cb3004d
:100d00000d007800000cb20028003a000d00e00051
:100d100005003d008fba97004505be004504be00a2
:100d200085bf9f00140037000d48a3000b00320060
:100d30000fbe97004c00be008cbf9f004f89de00a5
:100d4000cf91de000002be0002037800820378002b
:100d50000605be000404be00070037008fb89700e8
:100d60004100780081bf9f0000047800cfc4de00fe
:100d7000090578008a057800e00f5400e08f5c00d8
:100d8000e00f5d00e08f5d001f003d003d00b300ff
:100d90006000b8006011b800080450008984580051
:100da0000a0559008b855900170037000d00e00037
:100db00005003d000fb997004205be004204be0089
:100dc00082bf9f00100037000d48a30007003200cb
:100dd0000fba97004400be0084bf9f006011b800a6
:100de0000205be000004be00070037008fba97005e
:100df0004500780085bf9f000004780009002000ae
:100e00000a0020000b0020003fb697000c00e00015
:100e100007003a00e00f5400e08f5c00e00f5d0037
:100e2000e08f5d0002003a0010002000b0b79f0084
:100e30008d007800010cb200e1b79f000004200093
:100e4000808f50003000320003003c000100e000c1
:100e50000800320040003700000820006fb1970002
:100e6000800f510014003200000c2000800f510050
:100e700039003a0014c0b300057122000b0037009e
:100e80000400fb004300dd00050040005001be00ef
:100e90004000be000040e10001c8e10002d0e100d6
:100ea00003d8e1002b0039000442e800f44f52005f
:100eb000f3ff3a0027003700000120000100200066
:100ec0006011b80014c0b3000040e10001c8e100a7
:100ed00002d0e10003d8e1001e00390045002000e7
:100ee0000000d0008180d2000281d2008381d20034
:100ef0008502e900faff3a000442e800f04f520090
:100f0000f1ff3a00130037008000200001002000ac
:100f10006011b80014c0b3000040e10001c8e10056
:100f200002d0e10003d8e1000a0039003c002000b3
:100f30000000d0008180d2000281d2008381d200e3
:100f40000c06e900faff3a000442e800f54f5200af
:100f5000f1ff3a00e4d79f00efd097000100fb00bb
:100f60003fb19700820f500002003d00e2d79f0082
:100f7000040037003fb29700800f520001003d008f
:100f8000b0b79f00cfb297000500e0000400320028
:100f900063806600020032008502e900c5b79f0049
:100fa0000de8a3000b0032004fb697003fb097004a
:100fb000800f560003003c008000eb00c1b79f008b
:100fc000040037004fb197003fb297000401510071
:100fd000c2b79f00efd297000500fb000006eb00b0
:100fe000dcaf9f00cfb09700808f5000020034002c
:100ff00000805000d0af9f000d28a30037003200c2
:10100000e18066000d18a3000c003200d002200021
:101010000100e00001003a000080e900ffb0970005
:10102000d7000700e10f40000e0032002fb19700fb
:101030000201e800a2b79f000a0037000100e000ab
:1010400008003200ffb0970000022000cc0007002b
:10105000e10f4000030032002fb297000402e800c5
:10106000a4b79f00dfaa97000500e0000f00320040
:101070000006eb00ffb0970000032000c00007004f
:10108000e10f4000030032002fb097000000e8009d
:10109000a0b79f000c06e800dfa89700810f56005c
:1010a000f4ff3a000001eb00d2af9f003fb297007f
:1010b000c320dd00807022008080400091b79f0037
:1010c0004220dd006400500080b79f006320b9001b
:1010d000f0af9f006306500084003700dfaa97003e
:1010e0000500e00011003200688066000f003a0041
:1010f00000067800ffb0970000022000a000070063
:10110000e10f4000030032002fb097000000e8001c
:10111000a0b79f000c06e800dfa89700810f5600db
:10112000f4ff3a000001eb00d2af9f00e1806600bf
:101130000d18a3000c003200d00220000100e000d6
:1011400001003a000080e900ffb097008c00070022
:10115000e10f4000d5ff32002fb297000402e800f3
:10116000a4b79f00d1ff37000100e000cfff32009d
:10117000ffb097000002200081000700e10f40004f
:10118000caff3200afb297008502e800a5b79f0002
:10119000c6ff370000042000efb09700808f50009a
:1011a0003100320003003c000100e0000800320082
:1011b0003e003700000820006fb19700800f5100fb
:1011c00011003200000c2000800f510037003a005f
:1011d0001fb097003002be002003be000800be0012
:1011e0000a01be00f9010700a4002000050020004c
:1011f0006033b800fc01070004c3b30004424000a0
:10120000e4d79f0029003700757b2200d5b79f00e7
:101210000d58a30002003a00807c2200d0b79f0046
:1012200014002000050020006033b8008fb0970044
:101230008100e900050033000402d0008582d2005d
:101240000683d2008783d200f9ff37000800be0072
:101250000a01be00dd0107006f0060005fb197006a
:1012600062407800100037001400200005002000c4
:101270006033b8000c0078000000e900050033007e
:101280000402d0008582d2000683d2008783d20078
:10129000f9ff37000800be000a01be00cb010700bd
:1012a000674060000043b000e0d79f00efd0970098
:1012b0000100fb00ffb0970031000700e10f400084
:1012c000030032002fb197000201e800a2b79f008f
:1012d0001fb297006802520094b79f008fb2970028
:1012e000e482520085b79f0063065600d0ff2f00ae
:1012f0003fb197000090b9007faa9700000042001c
:1013000063005000800f5600a2ff3a000d38a30082
:1013100010003200dfaa97000500e0000d00340045
:101320000006eb00ffb09700000220001400070049
:10133000e10f4000030032002fb097000000e800ea
:10134000a0b79f000c06e800dfa89700810f5600a9
:10135000f4ff3a00be407800e1d79f000104e000ae
:101360005dfd3a002fb097004f0778004f06be0092
:101370004f05be004f04be00ef01b10000000600a3
:10138000889fbe000001780001047800b100900041
:101390000118a300400032000198a30003003a00a6
:1013a000180090000000e0003b003a000190a0000f
:1013b0003104980082047800f90fb2001800900000
:1013c0000000e00002003a0028009000000c7800c5
:1013d000ea8f540006003a00380090000078a3001d
:1013e00003003a0088007800d0002000e4ff0700e6
:1013f000180290006121b90058009000e8009000a8
:10140000800f5100818f59000b0032000400e8006a
:10141000100498001800780009587800000c780033
:1014200011c0b3004082220001487800ea8f5400c6
:101430000600320019003700880078000940780063
:101440004100070080047800140037003800900045
:101450000088a3001100320018019000a80090003d
:10146000480090007b00070098009000810f50001a
:1014700004003200380090000003b30030049800ec
:101480008084eb000000eb0010049800280090001e
:10149000000c7800010037008084eb000900780020
:1014a0004f04be0000000600889fbe008a9fbe0059
:1014b00080057800010578006044b800020037001c
:1014c00061044400e0844c006b407c000004e000b8
:1014d000050032008000fb000a00780081fc070054
:1014e0000000e000f6ff32000800be004f05be001d
:1014f0004f04be0000000600889fbe008a9fbe0009
:1015000080057800010578006044b80002003700cb
:1015100061044400e0844c006b407c000004e00067
:10152000050032008000fb000a0078006dfc070017
:101530000000e000f6ff3a000800be004f05be00c4
:101540004f04be00000006000200fa00889fbe00a3
:10155000a0ff9f0001047800b10090008104780092
:101560000904b200020032000000fb003600370020
:101570000118a30005003a000103b30031049800ec
:10158000190498000080eb002f00370058009000ed
:101590000000e00006003a00480090001200200021
:1015a000e68057002b00070019049800240037003c
:1015b000280090000000e00008003a0000822200ad
:1015c00020049800000c78002000200050049800af
:1015d000100498000130a000310498001801900018
:1015e000a8009000480090001a0007002800900012
:1015f000000c78000080eb001004980018007800c0
:10160000aff8970001587800000c78002ff8970089
:10161000ea4f50000a003a00380090000088a3000a
:101620000700320018019000a800900048009000c8
:101630000800070019049800a8009000010c780029
:10164000aff897000100fb004f04be000080fa00d5
:10165000000006000a00fa0080017800e20f500046
:1016600028003e0050418100e10f50000800320088
:10167000802320000000e000050032000423200049
:101680002523200046232000800178000400370035
:101690000422200025222000462220008322200050
:1016a000144090000004e000040035008009eb00c5
:1016b000144090000074a000104298001540900063
:1016c0000028a30003003a00154090000024a00069
:1016d000904298008001eb00070037001540900011
:1016e0000008a300fdff320063c078000000fb008b
:1016f000000b78008301e800828f5100f7ff3a0069
:101700000800370030002000b0bf9f00c3bf9f001b
:10171000d1bf9f00e2bf9f006a80570000c0da007f
:101720006fb99700020078000080fa000000060000
:10173000881f7800000478005001be004000be0001
:101740000400400085804800060149008781490067
:10175000009cbe000294be000400e1000588e10088
:101760000690e1000798e1000200310068004400a3
:101770001008e8004f04780000000600f4874700d6
:10178000889fbe008a9fbe008c9fbe008e1f78007f
:101790000205be000004be00d4b79f00e5b79f005d
:1017a000f6b79f0087bf9f000000eb00c0b79f0007
:1017b000b0b79f00a0b79f0090b79f0080b79f0071
:1017c0000d042000bfb097004fb09700000140000b
:1017d0000000e0000f003d004f08de000000710037
:1017e000c0b79f004d00070001003d00120020001f
:1017f0005000070001003d001200200055000700c6
:1018000061000700660007000f004000c8ff0700e6
:10181000220037004f08de0000067100ccb79f00a1
:101820003e00070001003d001200200041000700bb
:1018300001003d0012002000460007005200070092
:101840000fb297009fb297002fb39700bfb39700d6
:10185000590007000000520081805a0002015b001d
:1018600083815b0080b79f0091b79f00a2b79f0064
:10187000b3b79f000007eb004f0007000020e10016
:1018800001a8e10002b0e10003b8e100010031006d
:101890001e0020000e005600c0b79f004fb29700f8
:1018a0000400e000070035001000200001002000c7
:1018b0006011b80008047000898470000a05710086
:1018c0008b8571008d06e900beff3a000400e00040
:1018d00003003d00320007000f00400094ff0700a6
:1018e0004fa897000000e00004003a000fb49700f2
:1018f0009fb497002fb59700bfb597000800be00b2
:101900000a01be004f0778004f06be004f05be001b
:101910004f04be004f01b1000000060001804000ee
:1019200090b79f000001eb008fb097000100e0002e
:10193000000006000200700090b79f000180400088
:1019400080b79f000001eb00ffa897000100e000b6
:10195000000006000200700080b79f000180400078
:101960006faa9700cf20de0001007000f0af9f004b
:10197000040242000800be000a01be004f18de004b
:101980000002720000000600e4af9f00080444005b
:1019900089844c000a054d008b854d00000006002f
:1019a0003fb29700cfb297005fb39700efb39700b5
:1019b00000fe2f00000006003fb09700cfb0970058
:1019c0005fb19700efb1970000000600881f780014
:1019d00018002000881f780068ff07008f87e90043
:1019e0004f04780000000600801feb0063ff070033
:1019f0008f87e90000000600889fbe008a9fbe0016
:101a00008c1f78000205be000004be00e00f5000ed
:101a1000e08f5800e00f5900e08f59000c003d00a6
:101a20006000b8006011b8000804500089845800b4
:101a30000a0559008b8559001c0020001f00070073
:101a400008003d00180007000006eb000500370005
:101a50000006eb001900070002003d000f00070020
:101a60001c0020000800be000a01be00d7ff0700ce
:101a70000203be000002be000c00e00001003200c4
:101a8000060007000400be000601be004f067800f5
:101a90004f05be004f04be00000006006000b80005
:101aa0006011b80000003700040250008582580021
:101ab000060359008783590000000600e00f52001a
:101ac000e08f5a00e00f5b00e08f5b000000060033
:101ad000889fbe008a9fbe008c1f78000205be0052
:101ae0000004be00e00f5000e08f5800e00f5900e6
:101af000e08f59000a003d006000b8006011b80096
:101b000008045000898458000a0559008b85590043
:101b10001c0020001800070007003d0005003700ea
:101b20000006eb001400070003003d006000b80051
:101b30006011b800150007000800be000a01be00d1
:101b4000a9ff07000203be000002be000c00e00077
:101b5000030032006000b8006011b8000b000700fd
:101b60000400be000601be004f0678004f05be000f
:101b70004f04be0000000600e00f5200e08f5a0044
:101b8000e00f5b00e08f5b000000060004025000e5
:101b9000858258000603590087835900000006001b
:020000040000fa
:020000040005f5
:0457f400fffc0000b6
:020000040000fa
:020000040005f5
:0457f800be1b0000d4
:020000040000fa
:020000040005f5
:0457fc006b3f0000ff
:020000040000fa
:10000800c8020000c8020000c8020000c8020000c0
:10001800c8020000c8020000c8020000c8020000b0
:10002800c8020000c8020000c8020000c8020000a0
:10003800c8020000c8020000c802000052230000e5
:1000480022260000c80200003e370000da24000023
:100058005a250000c8020000c8020000c8020000bb
:10006800c8020000c8020000c8020000c802000060
:10007800c8020000c8020000c8020000c802000050
:10008800c8020000c8020000c8020000bc27000027
:1000980082290000c8020000a026000020270000d6
:1000a800c8020000c8020000c8020000c802000020
:1000b800c8020000c8020000c8020000c802000010
:1000c800c8020000c8020000c8020000c802000000
:1000d800c8020000c8020000c8020000c8020000f0
:1000e800c8020000c8020000c8020000c8020000e0
:1000f800c8020000c8020000c8020000c8020000d0
:10010800c8020000c8020000c8020000c8020000bf
:10011800c8020000c8020000c8020000c8020000af
:10012800c8020000c8020000c8020000c80200009f
:10013800c8020000c8020000c8020000c80200008f
:10014800c8020000c8020000c8020000c80200007f
:10015800c8020000c8020000c8020000c80200006f
:10016800c8020000c80200003a280000ba280000af
:10017800c8020000c8020000c8020000c80200004f
:10018800002a0000802a0000c8020000c8020000ff
:10019800c8020000c8020000c8020000c80200002f
:1001a800c8020000c8020000c8020000c80200001f
:1001b800c8020000c8020000c8020000c80200000f
:1001c800c8020000c8020000c8020000c8020000ff
:1001d800c8020000c8020000c8020000c8020000ef
:1001e800c8020000c8020000c8020000c8020000df
:0801f800c8020000c80200006b
:020000040000fa
:10020800c8020000c8020000c8020000c8020000be
:10021800c8020000c8020000c8020000c8020000ae
:10022800c8020000c8020000c8020000c80200009e
:10023800c8020000c8020000c802000052230000e3
:1002480022260000c80200003e370000da24000021
:100258005a250000c8020000c8020000c8020000b9
:10026800c8020000c8020000c8020000c80200005e
:10027800c8020000c8020000c8020000c80200004e
:10028800c8020000c8020000c8020000bc27000025
:1002980082290000c8020000a026000020270000d4
:1002a800c8020000c8020000c8020000c80200001e
:1002b800c8020000c8020000c8020000c80200000e
:1002c800c8020000c8020000c8020000c8020000fe
:1002d800c8020000c8020000c8020000c8020000ee
:1002e800c8020000c8020000c8020000c8020000de
:1002f800c8020000c8020000c8020000c8020000ce
:10030800c8020000c8020000c8020000c8020000bd
:10031800c8020000c8020000c8020000c8020000ad
:10032800c8020000c8020000c8020000c80200009d
:10033800c8020000c8020000c8020000c80200008d
:10034800c8020000c8020000c8020000c80200007d
:10035800c8020000c8020000c8020000c80200006d
:10036800c8020000c80200003a280000ba280000ad
:10037800c8020000c8020000c8020000c80200004d
:10038800002a0000802a0000c8020000c8020000fd
:10039800c8020000c8020000c8020000c80200002d
:1003a800c8020000c8020000c8020000c80200001d
:1003b800c8020000c8020000c8020000c80200000d
:1003c800c8020000c8020000c8020000c8020000fd
:1003d800c8020000c8020000c8020000c8020000ed
:1003e800c8020000c8020000c8020000c8020000dd
:0803f800c8020000c802000069
:020000040000fa
:101ba0004f460000460000000000000032330000f5
:101bb000320000000001000032330000320000005b
:101bc0000001000034380000354800000003000028
:101bd0003458000058460000000400003130000076
:101be0003000000000000000000000006400000061
:101bf0000000000033300000300000000000000052
:101c0000000000002c010000000000003630000041
:101c1000300000000000000000000000580200003a
:101c200000000000313200003030000000000000f1
:101c300000000000b004000000000000323400008a
:101c400030300000000000000000000060090000cb
:101c500000000000343800003030000000000000b8
:101c600000000000c0120000000000003936000033
:101c7000303000000000000000000000802500005f
:101c8000000000003134000034300000300000005b
:101c90000000000040380000000000003139000062
:101ca000323000003000000000000000004b000057
:101cb0000000000033380000343000003000000025
:101cc0000000000000960000000000003537000012
:101cd00036300000300000000000000000e100008d
:101ce00000000000313100003532000030300000cb
:101cf0000000000000c200000100000031320000be
:101d000038300000303000000000000000f4000017
:101d10000100000032350000363000003030000095
:101d20000000000000e8000003000000840700003d
:101d3000a4050000c2050000c60500000c07000055
:101d40002c0500004a0500004e05000010000000b0
:101d50003000000051050000550500001000000093
:101d6000300000005505000055050000010200008c
:101d70000408000050300000310000005030000026
:101d800032000000503000003300000050300000ee
:101d90003400000050300000783a0000003a0000a3
:101da000003a0000383a00004e3a0000313a000094
:101db00030000000312e0000312e00003100000004
:101dc00050300000310000005030000032000000b0
:101dd000503000003300000050300000340000009c
:101de0007c000000535000005700000053500000da
:101df000430000005645000052000000494e00001c
:101e000049000000f2ff0000f3520000434f0000c1
:101e10004d52000053540000f4f50000f50000009e
:101e2000f2ff0000f3520000434f00004d5300004a
:101e300050570000f4000000f5f50000000000001d
:101e40000000000000000000000000000000000092
:101e50000000000000000000000000000000000082
:101e60000000000000f20000fff3000052430000f9
:101e70004f4d00004552000052f4000000300000b9
:101e800030310000f5f50000003000003032000075
:101e9000f5f500000030000030330000f5f50000db
:101ea0000030000030350000f5f500000033000080
:101eb00035300000f5f5000000330000353100003a
:101ec000f5f500000033000035320000f5f50000a4
:101ed0000033000035330000f5f50000003300004a
:101ee00035340000f5f50000003300003535000002
:101ef000f5f5000000f20000fff30000524300007f
:101f00004f4d0000494e000049f400004d7800009c
:101f10007c000000f2ff0000f3520000434f00007d
:101f20004d56000045520000f44d0000783a000084
:101f300000f20000fff30000524300004f4d00008c
:101f40005350000043f400004d7800007c00000076
:101f5000f2ff0000f3520000434f00004d53000019
:101f600050520000f44d0000787c0000005000004a
:101f700030250000633a000000f20000fff300008b
:101f8000434300004f4d00005350000043f4000055
:101f90004d7800007c000000434f00004d5f0000c2
:101fa00034000000000100000203000004050000ee
:101fb0000607000008090000ffff0000ffff000007
:101fc000ffff0000ff0a00000b0c00000d0e0000d8
:0c1fd0000f5c00007846000035000000a7
:020000040000fa
:103800000400fa00004f780000c6b3009e4f10007d
:1038100002003400f0cdb3001e4f6000f0c2b300d0
:103820009e4f10000300340060c4b3009e4f100090
:1038300003003400f00f2000100798000700370045
:103840009e00fb0000fd2f008080400020fd28002e
:10385000614078000080fb00100798001e00900077
:103860000080fa0000000600fa03fa0020bf9b0067
:1038700031bf9b000040eb00204f98000000eb00a0
:10388000400798000000eb00300798000040eb0074
:10389000504798000040eb00404798000040eb0084
:1038a000304798000040eb00204798000040eb00b4
:1038b0001047980010c0b300004f78000000eb00e4
:1038c000400798009a00370010c0b300004f7800fe
:1038d000ce0090002eb89300008040009040780009
:1038e000514798000040eb00923f20000e0141003c
:1038f00000497800de409000c0c5b30080cf500082
:1039000004003a0012c0b300913f20008e804000b6
:10391000824878004e0090000000e80040079800c0
:10392000903f20000e004000104078000004e000ae
:1039300078003200ce0090002eb893000080400046
:1039400090407800414798000040eb00823f200003
:103950000e01410000497800ce40900080c7b300be
:1039600080cf500004003a0012c0b300813f200015
:103970008e804000824878004e0090000000e800f1
:1039800040079800803f20000e0040001040780063
:103990000004e00050003200ce0090002eb89300ea
:1039a000008040009040780031479800be40900071
:1039b0004e0090000000e8004007980001407800a9
:1039c0008fff0700204f9800ce0090002eb8930084
:1039d000008040001041780022479800ae409000df
:1039e0004e0090000000e800400798000140780079
:1039f00083ff0700104798002e489000ef4f5000bb
:103a000003003e001e409000ef4f500002003600c1
:103a10000040eb00004f780010c0b3009e4f100034
:103a200010003a003e0190002e4890000080fb00fc
:103a30004400dd008040780000cfb30080c060000b
:103a40001e40900000c04000804078006b0047009e
:103a5000017178003e0090000000e80030079800f7
:103a600033003700be0090006b0047005e419000bd
:103a7000827078003e0090000000e8003007980057
:103a8000be0090006b0047004e41900082707800ad
:103a90003e0090000000e80030079800be00900053
:103aa0006b0047003e419000827078003e0090001d
:103ab0000000e80030079800be0090006b0047004f
:103ac0002e419000827078003e0090000000e800d7
:103ad0003007980016003700be0090006b004700ca
:103ae0005e419000827078003e0090000000e80087
:103af00030079800be0090006b0047004e419000d8
:103b0000827078003e0090000000e80030079800c6
:103b100007003700be0090006b0047005e41900038
:103b2000827078003e0090000000e80030079800a6
:103b3000ce0090003eb89300808f500062ff3900a5
:103b40002eb89300eb0047003e0190003e030200b8
:103b5000000000003e0090000080fa000000060017
:103b60001200fa00404f9800710798000000eb0027
:103b7000000f78004e4890008080fb00c04b200072
:103b80000088b9008000780080802000008040001c
:103b900040079800ce009000a04b2000008040001d
:103ba00010007800800078004e00900040009000e7
:103bb0000080e800008050000000e8003007980016
:103bc000be0090007e009000808f500005003900fc
:103bd0007e009000300798000000eb00200798005e
:103be000040037007e009000be00900001005000ed
:103bf000200798000000eb00500798001b003700da
:103c00005e0090000000e000150032004e009000c1
:103c1000c00090005e0090000080e80060c0780066
:103c2000304798004e009000c00090005e00900069
:103c30000000e9000080e80060c07800204798009c
:103c40003e409000eb4f400005003a002e409000af
:103c5000eb4f400002003a0030162000000f7800c1
:103c60005e0090000000e80050079800de00900021
:103c70003e009000808f5000e1ff39002e00900040
:103c80000000e000220032000000eb005007980026
:103c90001b0037005e0090000000e00015003200bd
:103ca0005e009000ce0090006a00400001004000dd
:103cb00090407800314798005e0090000000e900d5
:103cc000ce0090006a004000010040009040780063
:103cd000214798003e409000eb4f400005003a001d
:103ce0002e409000eb4f400002003a0030162000ba
:103cf000000f78005e0090000000e8005007980078
:103d0000de0090002e009000808f5000e1ff39000f
:103d1000301620009e0f10003c003a00f82d0200e3
:103d2000000000004e009000100078008000e900c4
:103d30004e00900001087800082e020000000000ec
:103d40004e009000c00090007e0090000080400077
:103d50008080e8004e009000410098004e009000e6
:103d600040019000ce009000a04b20000080400059
:103d700010007800800f5100140036004e4890006b
:103d80008080fb00c04b20000088b900ea004000a2
:103d900080802000808140004e0090004000900014
:103da00000017800ce009000a04b20000080400071
:103db0001000780000005100008041008000e90000
:103dc0004e009000410098000d0037004e0090001a
:103dd00040019000ce009000a04b200000804000e9
:103de000100078000080e900800f510004003600c8
:103df0004e009000ea0040004e0090004100980004
:103e00001e007800000f9800020037008000eb00d1
:103e1000010f98000e0890000080fa0000000600d4
:103e20000a00fa0060479800410798006e40900031
:103e30008080fb00c04b20000088b9008000780023
:103e4000808020000080400020079800ae00900095
:103e5000a04b200000804000100078008000780017
:103e60002e009000400090000080e800008050008c
:103e70000000e800100798009e0090004e0090009f
:103e8000808f5000050039004e0090001007980008
:103e90000000eb00000f780003003700ce00900018
:103ea0001e009000008f50002e00900040009000f7
:103eb0000080e800cf00de000000780000f0a100e4
:103ec0001e019000344e0200000000001e00e000c1
:103ed000080032002e0090006a004000cf00de0093
:103ee0000000780000f0a1001e017800344e0200ae
:103ef00000000000f82d0200000000002e009000dd
:103f0000100078008000e9002e0090000108780081
:103f1000082e0200000000002e009000c00090005b
:103f20004e009000008040008080e8002e0090004d
:103f3000410098002e00900040019000ae009000db
:103f4000a04b20000080400010007800800f51003e
:103f5000140036006e4090008080fb00c04b2000b3
:103f60000088b900ea004000808020008081400085
:103f70002e0090004000900000017800ae009000fc
:103f8000a04b20000080400010007800000051008d
:103f9000008041008000e9002e0090004100980060
:103fa0000d0037002e00900040019000ae00900000
:103fb000a04b200000804000100078000080e90045
:103fc000800f5100040036002e009000ea004000ef
:103fd0002e009000410098000080fa0000000600ca
:103fe0000800fa00404798004e409000e34f500010
:103ff000030036000000eb00300798001f00370078
:104000004e4090008080fb00c04b20000088b9002b
:104010008000780080802000008f40001e00780023
:10402000100078000000e00003003a000000eb0000
:1040300030079800110037001e0078004000900003
:10404000104078000080fb00100798001e009000d0
:104050004800dd00100798001e0078004000900026
:10406000104090008080fb001e0090000100400086
:10407000100798001e009000300798003e00900046
:104080000080fa00000006004200fa000040eb0049
:10409000004f7800420037009e80fb00c04b20009c
:1040a0000088b90080007800808020008080400077
:1040b0000000eb00800878009e81fb001e82fb0060
:1040c0009e80fb00c04b20000088b900ea00400041
:1040d0008080200000814000c04b200000a0b9007b
:1040e000e800400080802000008040000208780046
:1040f000c04b200000a0b900e800400080802000f4
:104100000080400010017800c04b20000098b900ea
:104110008080e80080802000008040000208780055
:104120001e81fb009e80fb00c04b20000088b90070
:10413000ea00400080802000008040008081e8008c
:10414000c04b20000090b900e400400080802000b7
:1041500000804000030878009e81fb009e80fb00e9
:10416000c04b20000088b900ea0040008080200099
:1041700080804000f04a200000814000c04b2000b9
:104180000098b90080007800a04b2000808040009b
:104190008080200000804000020878001e4fe80068
:1041a00030c0b3009e4f1000bbff36000000eb0094
:1041b00020d8880001002800711f980022002000ec
:1041c00002279800e10320008e8040001100be000d
:1041d00030d8880041d8880002002800521f98007b
:1041e00020002000601f9800a10320008e80400066
:1041f0001100be0050d8880061d888000200280055
:10420000321f980020002000401f9800610320000a
:104210008e8040001100be0070d8880081d88800d0
:10422000f2ff2900121f980020002000201f980094
:10423000220320000e0141001200be0090d8880029
:10424000a1d888000000eb00b0d8880000002a0048
:104250007017980021002000011f9800e102200043
:104260008e8040001100be00c0d88800d1d88800e0
:1042700002002a00521798002000200060179800c2
:10428000a10220008e8040001100be00e0d888000e
:10429000f1d8880002002a00321798002000200080
:1042a00040179800610220008e8040001100be007f
:1042b00000d9880011d98800f2ff2b00121798004e
:1042c0002000200020179800220220000e0141004b
:1042d0001200be0020d9880031d988000000eb0010
:1042e00040d9880000002c00700f980021002000a9
:1042f00001179800fe0047001100be0050d9880049
:1043000061d9880002002c00520f98002000200084
:10431000600f9800fa0047001100be0070d98800b5
:1043200081d9880002002c00320f98002000200064
:10433000400f9800f60047001100be0090d9880099
:10434000a1d98800f2ff2d00120f98002000200054
:10435000200f9800720147001200be00b0d98800fb
:10436000c1d988000000eb00d0d9880000002e00e1
:104370007007980021002000010f9800ee00470010
:104380001100be00e0d98800f1d9880002002e009b
:10439000520798002000200060079800ea004700bc
:1043a0001100be0000da880011da880002002e0039
:1043b000320798002000200040079800e6004700e0
:1043c0001100be0020da880031da8800f2ff2f00e9
:1043d0001207980020002000200798000e81e800b6
:1043e0001200be0040da880051da88000080fa002e
:1043f000000006000600fa00404798004e4090007a
:104400008080fb00c04b20000088b900800078004d
:104410008080200000804000900078001107980004
:104420004e4090008080fb00c04b20000088b90007
:10443000800078008080200000804000100f78000d
:104440001e0090009e0f5000ecff3a001e009000ee
:104450000080fa00000006001000fa0040479800b3
:1044600031079800420798004e409000e34f5000fb
:10447000030036000000eb0070079800860037004c
:10448000ce0090003e009000f7fc0700000f78007f
:104490004e4090000080fb00600798006e00900086
:1044a000e10f50001c0032006e009000e10f500040
:1044b00004003c006e0090000000e00008003200a4
:1044c0003f0037006e009000e20f500020003200e5
:1044d0006e009000e30f50002b00320038003700d0
:1044e0004853020000000000100798001e009000d2
:1044f0009e0f500003003100101620007007980036
:10450000650037009e0078003e009000de4e0200fd
:10451000000000002d003700a25302000000000040
:10452000100798001e0090009e0f500003003100fd
:104530001016200070079800570037009e00780082
:104540003e009000e24f0200000000001f00370014
:10455000fc53020000000000100798001e009000ad
:104560009e0f5000030031001016200070079800c5
:10457000490037009e0078003e009000e65002009f
:104580000000000011003700565402000000000037
:10459000100798001e0090009e0f5000030031008d
:1045a00010162000700798003b0037009e0078002e
:1045b0003e009000ea5102000000000003003700b6
:1045c0000000eb0070079800330037004e40900069
:1045d0000080fb00500798005e009000e10f500043
:1045e0001b0032005e009000e10f500004003c0010
:1045f0005e0090000000e000080032002400370058
:104600005e009000e20f5000130032005e00900048
:10461000e30f50001d0032001d0037006644020009
:10462000000000000000e000020032009560a900d8
:10463000cd22a8007e440200000000000000e0003f
:1046400001003200cd22a8009580a800100037009c
:1046500097e0a8000e003700b844020000000000f8
:104660000000e000020032009e40a900f522a800f0
:10467000d0440200000000000000e0000100320011
:10468000f522a8009e60a800010037009f20a80026
:104690000000eb00700798007e0090000080fa0098
:1046a000000006003600f800809fbe00829fbe001a
:1046b000849fbe00869fbe000000fa0011e1a900a1
:1046c00084e0a9008080200012c0b3008040eb008d
:1046d00033000700404080000000e80040408800b0
:1046e00061408000504080000080e800808f5000d2
:1046f0000700390060408000800078005040800052
:104700000080e8000080500000408800070037006b
:1047100061408000504080000080e80080805000b0
:10472000004b200000804000004088005140800085
:10473000004080004800de00804878005140800042
:104740000040800090409800604080005040880009
:1047500051408000106680000080e900808f50008a
:104760000200360020812000504088005040800028
:104770000080e80060408800c18122000040eb001a
:10478000804878000080fa004f03be004f02be0050
:104790004f01be004f00be003600f9000040060089
:1047a0000a00fa0030079800014f9800124f980055
:1047b0000e80e80091fe28000300090031587800bf
:1047c0004000b1001e4890000004e0004f003a0095
:1047d0003e0090003000900010407800eb4f400009
:1047e00030003a000e489000eb4f40002d003a0098
:1047f0003e009000b00090003e0090002100980024
:104800000040eb0010479800220037000040eb000a
:10481000004f7800190037003e0090002001900002
:104820009e80fb000e80e800008040001040780071
:10483000004978003e009000200090008000e800d1
:104840003e009000210098003e0090002001900062
:10485000be009000a04b20000080400010007800b7
:10486000800f5100040036003e009000ea00400036
:104870003e009000210098001e4fe80030c0b300b9
:104880009e4f1000e4ff36001e4090000040e800fc
:10489000104798001e409000e14f5000dbff3600ab
:1048a000420037003e009000a00090000e489000ab
:1048b000804878003e009000a00090003e009000ec
:1048c000310098003e009000200090008000e80039
:1048d0003e009000210098003e00900020019000d2
:1048e000be009000a04b2000008040001000780027
:1048f000800f51002d0036003e009000ea0040007d
:104900003e00900021009800280037003e009000f3
:104910003000900010407800eb4f400023003a0038
:104920003e009000b00090003e00900021009800f2
:104930000040eb00004f7800190037003e00900067
:10494000200190009e80fb000e80e8000080400067
:1049500010407800004978003e0090002000900050
:104960008000e8003e009000210098003e0090008a
:1049700020019000be009000a04b2000008040006d
:1049800010007800800f5100040036003e009000b7
:10499000ea0040003e009000210098001e4fe80011
:1049a00031c0b3009ecf1000e4ff36000080fa0053
:1049b000000006003600f800809fbe00829fbe0007
:1049c000849fbe00869fbe000200fa000040eb00fc
:1049d000004f7800c181220010c0b30080487800e9
:1049e00011e1a90080802000c0d788002500370091
:1049f00022c2bf00624060000004e00008003a00ec
:104a000022c2bf00684060000004e00004003a00d9
:104a100022c2bf00644060000004e00010003200c9
:104a2000c0d78000a000900030118000804878003e
:104a30002222a9002262a9002242a900c1d7800037
:104a4000c0d78000100090000080e800a00098000f
:104a5000c18122000040eb00804878000900370047
:104a600030118000004f78009e407800c0d7800051
:104a70000041eb004aff07000000eb00300888000f
:104a800011e1a80022c2bf00614060000004e00004
:104a9000d7ff3a008560a9000080fa004f03be00ee
:104aa0004f02be004f01be004f00be003600f900ad
:104ab000004006003600f800809fbe00829fbe00c6
:104ac000849fbe00869fbe000c00fa0081812200f8
:104ad00010c0b300804878003300370070d88000e1
:104ae00081d8800093018000010178009201880044
:104af00010407800930188000080fb00201188009e
:104b000070d8800081d880000000d0002000b00064
:104b10004220a800e08048004220ae004200a800e9
:104b20000080d30070d8880081d8880070d88000b9
:104b300081d88000680147000089be0090d88000bd
:104b4000a1d88000640147000089be005e0090008b
:104b5000be009000810f500009003e005e019000f1
:104b60003e009000800f51000c003a00ce009000f3
:104b70002e019000828f500001003e000700370098
:104b800000002800000f7800210020001107980085
:104b90001e00be0070d8880081d8880020d8800010
:104ba0000000e90020d8880020d880000000e00044
:104bb0000400320023c2bf00624060000004e00035
:104bc000c6ff320020d880000000e0000200320062
:104bd0008580a9001400370023c2bf000042b20044
:104be0000004e00004003a0023a2a80023e2a90088
:104bf0008580a9000c00370023a2a90023e2a800a9
:104c00009580a900808122008040eb000148780057
:104c100044440200000000000000e00002003200f6
:104c2000cd22a9009560a8000080fa004f03be00c5
:104c30004f02be004f01be004f00be003600f9001b
:104c4000004006003600f800809fbe00829fbe0034
:104c5000849fbe00869fbe000000fa0013e1a900f9
:104c60008500a90040cc200012c0b3008040eb00ba
:104c7000cbfe0700206680000000e8002066880068
:104c800041668000306680000080e800808f500020
:104c900007003900406680008000780030668000a0
:104ca0000080e800008050001040880007003700b6
:104cb00041668000306680000080e80080805000ff
:104cc000004b2000008040001040880031668000ca
:104cd000104080004800de00804878003166800087
:104ce0001040800090409800406680003066880048
:104cf00031668000f08b80000080e900808f5000da
:104d000002003600e0cc200030668800306680006b
:104d10000080e80040668800d18122000040eb005e
:104d2000804878000080fa004f03be004f02be00aa
:104d30004f01be004f00be003600f90000400600e3
:104d40003600f800809fbe00829fbe00849fbe0098
:104d5000869fbe000200fa000040eb00004f780082
:104d6000d181220010c0b3008048780013e1a9006f
:104d700040cc2000c0d788002500370032c2bf00d9
:104d8000624060000004e00008003a0032c2bf0048
:104d9000684060000004e00004003a0032c2bf0036
:104da000644060000004e00010003200c0d78000c2
:104db000a0009000b0118000804878003222a90045
:104dc0003262a9003242a900c1d78000c0d780005a
:104dd000100090000080e800a0009800d18122001f
:104de0000040eb008048780009003700b0118000d7
:104df000004f78009e407800c0d780000041eb0053
:104e000067fe07000000eb005008880013e1a800cf
:104e100032c2bf00614060000004e000d7ff3a00ea
:104e200087c0a9000080fa004f03be004f02be00f9
:104e30004f01be004f00be003600f90000400600e2
:104e4000809fbe00829fbe000c00fa00918122006c
:104e500010c0b300804878003300370000d98000cc
:104e600011d980009301800001017800920188002f
:104e700010407800930188000080fb00a01188009a
:104e800000d9800011d980000000d0002000b000bf
:104e90004220a800e08048004220ae004200a80066
:104ea0000080d30000d9880011d9880000d9800083
:104eb00011d98000680147000089be0020d9800018
:104ec00031d98000640147000089be005e00900077
:104ed000be009000810f500009003e005e0190006e
:104ee0003e009000800f51000c003a00ce00900070
:104ef0002e019000828f500001003e000700370015
:104f000000002a00000f78002100200011079800ff
:104f10001e00be0000d9880011d98800b0d88000da
:104f20000000e900b0d88800b0d880000000e000a0
:104f30000400320033c2bf00624060000004e000a1
:104f4000c6ff3200b0d880000000e000020032004e
:104f500087e0a9000400370097e0a90091812200b2
:104f60000040eb00804878000080fa004f01be004e
:104f70004f00be00004006003600f800809fbe00d3
:104f8000829fbe00849fbe00869fbe000000fa0084
:104f90001fe1a9008760a9000018210012c0b3001a
:104fa0008040eb00fefd0700008c80000000e80060
:104fb000008c8800218c8000108c80000080e8002c
:104fc000808f500007003900208c8000800078001e
:104fd000108c80000080e800008050002040880095
:104fe00007003700218c8000108c80000080e800d2
:104ff00080805000004b200000804000204088004e
:10500000118c8000204080004800de00804878003d
:10501000118c80002040800090409800208c8000ff
:10502000108c8800118c8000d0b180000080e900d5
:10503000808f500002003600a0182100108c8800dc
:10504000108c80000080e800208c8800e181220024
:105050000040eb00804878000080fa004f03be005b
:105060004f02be004f01be004f00be003600f900e7
:10507000004006003600f800809fbe00829fbe0000
:10508000849fbe00869fbe000200fa000040eb0035
:10509000004f7800e181220010c0b3008048780002
:1050a0001fe1a90000182100c0d7880025003700a3
:1050b00052c2bf00624060000004e00008003a00f5
:1050c00052c2bf00684060000004e00004003a00e3
:1050d00052c2bf00644060000004e00010003200d3
:1050e000c0d78000a0009000b012800080487800f7
:1050f0005222a9005262a9005242a900c1d78000e1
:10510000c0d78000100090000080e800a000980048
:10511000e18122000040eb00804878000900370060
:10512000b0128000004f78009e407800c0d7800009
:1051300012c0b3009afd07000000eb00a008880031
:105140001fe1a80052c2bf00614060000004e000ff
:10515000d7ff3a008e40a9000080fa004f03be003e
:105160004f02be004f01be004f00be003600f900e6
:10517000004006003600f800809fbe00829fbe00ff
:10518000849fbe00869fbe000c00fa00a181220011
:1051900010c0b300804878003300370090d98000f9
:1051a000a1d980009301800001017800920188005c
:1051b00010407800930188000080fb00a012880056
:1051c00090d98000a1d980000000d0002000b0005c
:1051d0004220a800e08048004220ae004200a80023
:1051e0000080d30090d98800a1d9880090d9800090
:1051f000a1d98000680147000089be00b0d98000b5
:10520000c1d98000640147000089be005e009000a3
:10521000be009000810f500009003e005e0190002a
:105220003e009000800f51000c003a00ce0090002c
:105230002e019000828f500001003e0007003700d1
:1052400000002c00000f78002100200011079800ba
:105250001e00be0090d98800a1d9880040d98000e6
:105260000000e90040d9880040d980000000e0003b
:105270000400320053c2bf00624060000004e0003e
:10528000c6ff320040d980000000e000020032007a
:105290008e60a9001400370053c2bf000042b20064
:1052a0000004e00004003a0053a2a80053e2a90061
:1052b0008e60a9000c00370053a2a90053e2a80099
:1052c0009e60a90096440200000000000000e0007b
:1052d00002003200f522a9009e40a800a181220010
:1052e0000040eb00804878000080fa004f03be00c9
:1052f0004f02be004f01be004f00be003600f90055
:10530000004006003600f800809fbe00829fbe006d
:10531000849fbe00869fbe000000fa0021e1a90024
:105320008780a900c063210012c0b3008040eb0059
:105330001bfd0700e0b180000000e800e0b188003c
:1053400001b28000f0b180000080e800808f500042
:105350000700390000b2800080007800f0b18000c2
:105360000080e800008050003040880007003700cf
:1053700001b28000f0b180000080e8008080500021
:10538000004b20000080400030408800f1b18000d8
:10539000304080004800de0080487800f1b1800095
:1053a000304080009040980000b28000f0b188004a
:1053b000f1b18000b0d780000080e900808f5000fc
:1053c0000200360060642100f0b18800f0b1800076
:1053d0000080e80000b28800f18122000040eb006c
:1053e000804878000080fa004f03be004f02be00e4
:1053f0004f01be004f00be003600f900004006001d
:105400003600f800809fbe00829fbe00849fbe00d1
:10541000869fbe000200fa000040eb00004f7800bb
:10542000f181220010c0b3008048780021e1a9007a
:10543000c0632100c0d7880025003700b2c2bf007a
:10544000624060000004e00008003a00b2c2bf0001
:10545000684060000004e00004003a00b2c2bf00ef
:10546000644060000004e00010003200c0d78000fb
:10547000a0009000b015800080487800b222a900fa
:10548000b262a900b242a900c1d78000c0d7800093
:10549000100090000080e800a0009800f181220038
:1054a0000040eb008048780009003700b01580000c
:1054b000004f78009e407800c0d780000041eb008c
:1054c000b7fc07000000eb00c008880021e1a8003d
:1054d000b2c2bf00614060000004e000d7ff3a00a4
:1054e0008f00a9000080fa004f03be004f02be00eb
:1054f0004f01be004f00be003600f900004006001c
:10550000809fbe00829fbe000c00fa00b181220085
:1055100010c0b300804878003300370020da8000e4
:1055200031da800093018000010178009201880047
:1055300010407800930188000080fb00a0158800cf
:1055400020da800031da80000000d0002000b000b6
:105550004220a800e08048004220ae004200a8009f
:105560000080d30020da880031da880020da800059
:1055700031da8000680147000089be0040da80000f
:1055800051da8000640147000089be005e0090008f
:10559000be009000810f500009003e005e019000a7
:1055a0003e009000800f51000c003a00ce009000a9
:1055b0002e019000828f500001003e00070037004e
:1055c00000002e00000f7800210020001107980035
:1055d0001e00be0020da880031da8800d0d98000b1
:1055e0000000e900d0d98800d0d980000000e00098
:1055f00004003200b3c2bf00624060000004e0005b
:10560000c6ff3200d0d980000000e0000200320066
:105610008f20a900040037009f20a900b18122003b
:105620000040eb00804878000080fa004f01be0087
:105630004f00be00004006002200fa00881f7800dc
:105640002003070044200200000000001a4a020064
:1056500000000000218122000040eb00804878001b
:10566000c0b42100b0408900c0b42100a04089002e
:10567000b05402000000000040a7a800c4050700c5
:10568000b040810064004000a7050700b1408100e0
:105690000000eb0080087800b0408100640040000a
:1056a00092030200000000008000780060072000e4
:1056b000808f500006003e00b8408100b04081005d
:1056c000640040009203020000000000000c78001b
:1056d000b0408100c03eb000b0408900208122006f
:1056e000104078008040e8002081220001487800c6
:1056f000cac2bf00684060000004e000fcff3a003e
:1057000090030700000037000060fe00cac2bf001f
:10571000684060000004e000010032000000fe006c
:10572000ccc2bf000042b2000004e0000a003a0010
:10573000dcc2bf00624060000004e00006003a00e6
:10574000dbc2bf00684060000004e00002003200dd
:105750009c060700cca2a8002081220010407800ff
:105760000004e00021003200a04081005406070040
:10577000100798001e0090000000e00004003a00ae
:10578000a040810066020700100798000300370060
:10579000418122001e009000a7030700a040810065
:1057a000c03eb000a0408900a04081008000780089
:1057b00040322200808f500002003600c0b4210029
:1057c000a0408900a14081000000eb008008780023
:1057d0000701070020812200104078008040e90086
:1057e0002081220001487800090107000040eb00f9
:1057f000404798000a0037004e409000fa2102000e
:10580000000000000000e000020032004e40900066
:10581000af0407004e4090000040e8004047980069
:105820004e409000e34f5000f3ff3600ccc2bf0063
:105830000042b2000004e00062003200dbc2bf00a0
:10584000684060000004e0005e003200d0d78000b5
:1058500030079800d0d7800040079800be00900025
:105860004e009000808f500056003a003e0090009d
:105870000000e00053003200dcc2bf006140600065
:105880000004e00002003a00dc02a8004d003700ee
:10589000e2c2bf0001c8b300014060000004e000a4
:1058a00048003200cca2a90041e2a9009540a9001d
:1058b0008540a900012420009140780030ceb3003b
:1058c00000c060000044a00040e2b70041e2a80030
:1058d0003500370000d8800011d880009301800087
:1058e000010178009201880010407800930188003f
:1058f0000080fb004012880000d8800011d8800092
:105900000000d0002000b0004220a800e080480045
:105910004220ae004200a8000080d30000d88800da
:1059200011d8880000d8800011d880007e0147007f
:105930000089be00f0ff2f00500f980011002000da
:10594000610f98007a0047001000be007601470002
:105950000089be008e1090004e099000828f50008a
:1059600009003e000e109000ce089000810f5000fc
:105970000d003a007e0990003e089000800f510013
:1059800001003e000800370001002800110f9800b8
:1059900012002000220f9800f20047001100be0004
:1059a00000d8880011d8880040c2bf006240600063
:1059b0000004e000c7ff32009540a800dc02a90007
:1059c000dc22a800cac2bf00704060000004e000f2
:1059d0003a003a0080812200104078000004e00084
:1059e0000300320002c2b3001257980002003700d1
:1059f0000040eb00105798009e509000014f780037
:105a0000c0812200104078000004e0000400320051
:105a10001e4178000244a00002579800030037009e
:105a2000f0ceb3001e406000005798000e5090006a
:105a3000004f780014440200000000000000e00065
:105a40001b003a0090812200104078000004e00022
:105a5000040032009e4078000134a000714f98008d
:105a60000300370070cfb3001e406000704f9800f5
:105a70007e499000024f7800d081220010407800cb
:105a80000004e000040032001e4078000024a00062
:105a9000604f980003003700b0cfb3001e40600095
:105aa000604f9800ee489000014f78003c003700ae
:105ab00030cfb3001e4f600039003700a0812200b4
:105ac000104078000004e0000300320002c2b3007e
:105ad000524f9800020037000040eb00504f9800f2
:105ae000de489000014f7800e081220010407800ed
:105af0000004e000040032001e4178000244a000cf
:105b0000424f980003003700f0ceb3001e40600003
:105b1000404f98004e489000004f78002c440200ff
:105b2000000000000000e0001b003a00b0812200ed
:105b3000104078000004e000040032009e4078002d
:105b40000134a000314f98000300370070cfb3003c
:105b50001e406000304f98003e499000024f780090
:105b6000f0812200104078000004e00004003200c0
:105b70001e4078000024a000204f9800030037004a
:105b8000b0cfb3001e406000204f9800ae48900098
:105b9000014f78000200370030cfb3001e4f600085
:105ba0001e81fb00e1168000c00320000080600021
:105bb000800f5100d4fe32000d000700e116800076
:105bc00030fc2f0000806000e01688009e80fb0003
:105bd000e016800000807000e01688000c000700ce
:105be000c9fe37000000fa0001000700ffff370080
:105bf0000000fa000600fc0042c0bf0001ceb30066
:105c00000140700042e0b7000080fa00000006008a
:105c10000000fa000600fc0042c0bf007f406000a8
:105c200042e0b7000080fa00000006000800fa0019
:105c3000200798000000eb00100798002e0090004d
:105c40001000780074005000ae0090007400400016
:105c5000810040000040eb00a04098000040eb00b5
:105c6000104798002e009000720040003200200083
:105c700001ee28009e030200000000000000e0008a
:105c800008003a000040eb00004f780023c2bf003c
:105c90000080fb004200de00614060001047980079
:105ca000330037002e0090007200400032002000c8
:105cb00041ee28009e030200000000000000e0000a
:105cc00008003a0010c0b300004f780033c2bf0094
:105cd0000080fb004200de00614060001047980039
:105ce000230037002e009000720040003200200098
:105cf00081ee28009e030200000000000000e0008a
:105d000008003a0020c0b300004f780053c2bf0023
:105d10000080fb004200de006140600010479800f8
:105d2000130037002e009000720040003200200067
:105d3000c1ee28009e030200000000000000e00009
:105d400008003a0030c0b300004f7800b3c2bf0073
:105d50000080fb004200de006140600010479800b8
:105d60000300370030002000300798001200370091
:105d70001e409000e14f50000d003a002e009000b0
:105d800010007800740150002e0090007600400052
:105d9000800078001e4078002c22020000000000e5
:105da000100798001e00900030079800020037008e
:105db00020162000300798003e0090000080fa0076
:105dc000000006000800fa000e81e8000089be000d
:105dd0000000eb00000f7800010037001e0fe80004
:105de0000e80e8001000be009301800001017800e1
:105df0009201880010407800930188006047980065
:105e00006e4090000004e0000200320010c0b300b9
:105e100060479800ee4190000e80e8001000be0040
:105e20000000d0002000b0004220a800e080480020
:105e30004220ae004200a8000080d3000e81e8009e
:105e40000089be00034078000004a2000004e000c6
:105e500003003a00d0ff2f009e0f1000dfff360036
:105e60001e0078000080fa00000006000004fa001e
:105e700060bf9b000000eb0020079800e600470091
:105e80000000eb0080087800e60047000000eb000f
:105e900090009800e60047000000eb00a00098008a
:105ea000e60047000000eb00b0009800e600470065
:105eb0000000eb00c00098000040eb002047980075
:105ec0006eb89300100078000000e900eeb893006f
:105ed00064004000810040000040eb0080487800f2
:105ee0006eb89300100078000080e900eeb89300cf
:105ef00064004000810040000040eb0080487800d2
:105f00006eb89300e4004000700047006400400059
:105f10000d00090031587800e000b100e100b10047
:105f20006eb893006f00400001ef2800ee030200fe
:105f30000000000020079800140037002e40900059
:105f4000e44f5000030036005000200070bf9b005b
:105f5000700037002e4090000080fb00e6004700f4
:105f6000000040002e01900002b078002e4090000a
:105f70000040e8002047980001ef28000000eb00f7
:105f8000ee03020000000000200798002e009000a1
:105f90000000e000e9ff3a000040eb0020479800d5
:105fa000570037002e4090000080fb00e6004700bd
:105fb00000004000608078000000e0004d003200ea
:105fc0002e4090000004e00015003a002e409000a2
:105fd0000080fb00e6004700000040006080780081
:105fe00090407800d0c4b30080cf500009003a0040
:105ff0002e4090000080fb00e600470000004000bb
:10600000608078009203020000000000e20f500060
:10601000380032005000200070bf9b003d00370068
:106020002e4090000080fb00e6004700000040008a
:106030006080780092030200000000003047980062
:106040003e4090000081fb002e4090000080fb004d
:10605000e600470000004000e08078007000470044
:10606000720040003e030200000000003e4090002d
:106070000080fb006e004000f0004700640040001c
:106080008100400050cfb300804878003e4090002f
:106090000080fb006f004000f000470064004000fb
:1060a0008100400050cfb300804878003e4090000f
:1060b0000080fb0070004000800078007000470006
:1060c0000108780070004700cf00de000000780073
:1060d00000f0a1005040020000000000000f780016
:1060e0001e00e000030032001e01780072bf9b001a
:1060f000080037002e4090000040e800204798003c
:106100002e409000e44f5000a6ff36000000eb0048
:1061100070bf9b007eb893000080fa00000006006c
:106120000600fa00100798001e009000f040900052
:1061300040c5b30080cf500013003a001e0090000d
:106140006b0040003200200021ef28009e03020077
:10615000000000000000e00008003a001e0090006f
:10616000b2fe0700000f78001e00e00050003a0069
:106170001e009000050107004d00370020002000a0
:10618000200798004c0037001e009000f04090005f
:1061900010c5b30080cf50001b003a001e009000d5
:1061a0006b0040003200200061ef28009e030200d7
:1061b000000000000000e00004003a000000eb00d6
:1061c000000f780008020700390037001e00900019
:1061d0006b00400032002000a1ef28009e03020067
:1061e000000000000000e00004003a000000eb00a6
:1061f000000f7800dd0107002d003700200020008f
:10620000200798002c0037001e009000f0409000fe
:1062100030c4b30080cf500022003a001e0090002e
:106220006b00400032002000e1ef28009e030200d6
:10623000000000000000e00007003a001e0090008f
:106240000aff0700000f78000000eb00000f780045
:106250008c010700160037001e0090006b00400004
:106260003200200061ef28009e03020000000000c1
:106270000000e00008003a001e009000fbfe07004e
:10628000000f78001e00e00009003a0055020700e8
:10629000d5010700060037002000200020079800e5
:1062a000050037002000200020079800020037007a
:1062b0001e007800200798002e0090000080fa0051
:1062c000000006000000fa004227a90042c7bf00f4
:1062d0000042b2000004e000fcff32000000eb00ce
:1062e000102788000000eb00202788000000eb004a
:1062f000302788000000eb00502788000000eb00ea
:10630000602788000000eb0060168800cca2a8007f
:106310000000eb00e0168800d842a900d862a9006e
:10632000d882a900d8a2a900d822a900d802a90021
:10633000c8a2a900e0e2a800c882a800c862a8001c
:10634000e402a900e422a900e442a800e462a80053
:10635000e002a900e022a900e042a900e062a90051
:10636000316c20009140780000ccb30000c0600088
:106370007040b300c3e6b700816a20009140780006
:1063800000ccb30000c060000024a000a8e6b70065
:10639000916a20009140780000ccb30000c06000fa
:1063a0000014a000a9e6b700a16a2000914078007f
:1063b00000ccb30000c06000c040b300aae6b70044
:1063c00080030700d16d20009140780000ccb3001d
:1063d00000c06000a040b300dde6b700c16a200045
:1063e0009140780000ccb30000c06000e040b300f2
:1063f000ace6b700a16c20009140780000ccb3005f
:1064000000c06000b040b300cae6b700116d2000c4
:106410009140780000ccb30000c06000c040b300e1
:10642000d1e6b700616c20009140780000ccb30049
:1064300000c060003040b300c6e6b700416a2000eb
:106440009140780000ccb30000c060007040b30001
:10645000a4e6b700516d20009140780000ccb30055
:1064600000c06000c041b300d5e6b700316a20002b
:106470009140780000ccb30000c06000a041b300a0
:10648000a3e6b700916c20009140780000ccb300e7
:1064900000c060005040b300c9e6b700616a200048
:1064a0009140780000ccb30000c060000034a00030
:1064b000a6e6b700b16d20009140780000ccb30093
:1064c00000c06000e041b300dbe6b700616b200074
:1064d0009140780000ccb30000c060003041b300b0
:1064e000b6e6b70022c2bf00f043b20022e2b70016
:1064f00032c2bf00f043b20032e2b70052c2bf0066
:10650000f043b20052e2b700b2c2bf00f043b200a3
:10651000b2e2b70023e2a80023a2a90033e2a80058
:1065200033a2a90053e2a80053a2a900b3e2a80035
:10653000b3a2a90014390200000000000080fa0094
:10654000000006000000fa00ee5202000000000009
:1065500080007800ec8f50000a0036000001eb004c
:1065600020f0280001202000344e0200000000002e
:106570009ffd0700d0d780000000e800d0d788003a
:10658000a3fd07000080fa00000006001600fa00d4
:10659000200f9800f0f12800104f78000e00e8005e
:1065a000320120008000eb004c03020000000000dc
:1065b0002e0890006f00400005000900305f780051
:1065c0006e00b1006000b100ee5202000000000059
:1065d00080007800ec8f5000150036000001eb00c1
:1065e00000f1280001202000344e020000000000cd
:1065f000cf70de000e00780000f0a1000001eb007b
:10660000344e0200000000000001eb00c0f1280041
:1066100001202000344e02000000000074fd07003d
:10662000d0d780000000e800d0d7880078fd0700b0
:106630000080fa00000006000600fa00000f780053
:10664000110798001e009000100078000000e00084
:106650008a0032009e0090000040eb00e048980065
:106660001e009000100078000080e9009e0090005d
:1066700064004000810040000040eb00804878004a
:10668000ee5202000000000080007800ef8f500002
:106690007a0036000001eb0030f3280001202000d2
:1066a000344e0200000000001e0078002007980011
:1066b000e0152000ae009000808f500047003200af
:1066c000e2152000ae019000828f510011003e00c3
:1066d0002e019000e20f51002e003200ae0190001a
:1066e000e28f510004003e002e019000e10f5100a6
:1066f000220032005c003700ae019000e38f5100b1
:106700002a0032002e019000e50f51002d003200ca
:106710005500370012162000ae019000828f510004
:106720004000320012162000ae019000828f51000e
:1067300009003e00f2152000ae019000828f51004a
:106740002c00320002162000ae019000828f510012
:106750002e0032004400370022162000ae019000c7
:10676000828f51003500320032162000ae019000b9
:10677000828f5100370032003b0037000001eb00f0
:10678000f0f3280001202000344e02000000000039
:10679000350037000001eb0050f4280001202000f4
:1067a000344e0200000000002f0037000001eb0013
:1067b000b0f4280001202000344e02000000000048
:1067c000290037000001eb0010f52800012020000f
:1067d000344e020000000000230037000001eb00ef
:1067e00070f5280001202000344e02000000000057
:1067f0001d0037000001eb00d0f52800012020002b
:10680000344e020000000000170037000001eb00ca
:1068100030f6280001202000344e02000000000065
:10682000110037000001eb0090f628000120200045
:10683000344e0200000000000b0037000001eb00a6
:10684000f0f6280001202000344e02000000000075
:10685000050037000001eb0050f728000120200060
:10686000344e020000000000e1fc0700d0d7800099
:106870000000e800d0d78800e5fc07000080fa009f
:10688000000006003400fa00ee5202000000000092
:1068900000017800e1062000810f51003100360030
:1068a0000001eb00b0f7280001202000344e020068
:1068b000000000000040eb00004f78001c00370093
:1068c0000e00e800220320008000eb004c030200d1
:1068d000000000000e00e8009e407800fa4202002e
:1068e000000000001e04e000090032000e01e80074
:1068f000124178000204e00005003200120020007e
:1069000000ef280001202000344e020000000000ab
:106910000e00e800cf00de000000780000f0a100cb
:106920000001eb00344e0200000000001e4fe800a2
:1069300032c0b3009e4f1100e1ff36000001eb00b2
:10694000c0f1280001202000344e020000000000a9
:10695000a7fc0700d0d780000000e800d0d788004f
:10696000abfc07000080fa00000006000400fa00fb
:10697000ee5202000000000080007800ef8f50000f
:10698000170036000001eb00a0f8280001202000cd
:10699000344e020000000000a0ed2800000f780037
:1069a00000202000100798000001eb001e00be0030
:1069b000344e0200000000000001eb00c0f128008e
:1069c00001202000344e02000000000088fc070077
:1069d000d0d780000000e800d0d788008cfc0700ea
:1069e0000080fa00000006003400fa00ee520200b7
:1069f0000000000000017800e1062000810f510036
:106a0000310036000001eb0090f928000120200041
:106a1000344e0200000000000040eb00004f780000
:106a20001c0037000e00e800220320008000eb006d
:106a30004c030200000000000e00e8009e407800b9
:106a4000fa420200000000001e04e00009003200cb
:106a50000e01e800124178000204e0000500320057
:106a60001200200000ef280001202000344e020018
:106a7000000000000e00e800cf00de0000007800fb
:106a800000f0a1000001eb00344e02000000000005
:106a90001e4fe80032c0b3009e4f1100e1ff3600e8
:106aa0000001eb00c0f1280001202000344e02005c
:106ab000000000004efc0700d0d780000000e80076
:106ac000d0d7880052fc07000080fa0000000600c2
:106ad0000a00fa00004f98008e80e800f0f12800cc
:106ae000904878000100e8008040eb000148780001
:106af0000000e8008040eb00014878000000e8005a
:106b00008040eb00014878000000e8008040eb0086
:106b1000014878000e489000f01f020000000000bd
:106b2000000f78001e00e0002c003200ee52020040
:106b300000000000000178009e017800f480410010
:106b4000810f5100250039000001eb0080fa280078
:106b500001202000344e0200000000000e4890008a
:106b60000080fb001003b0008e80e800801f7800da
:106b700070fb2800801f78000100780028040200c4
:106b800000000000e48757000e80e800cf00de0020
:106b90000000780000f0a1000001eb00344e02007c
:106ba000000000009e0078000e489000101f0200b8
:106bb000000000000001eb00c0f1280001202000cf
:106bc000344e02000000000009fc0700d0d780000e
:106bd0000000e800d0d788000dfc07000080fa0014
:106be00000000600ae00fa00881f7800650047002c
:106bf000620720008000eb004c0302000000000050
:106c000065004700d1fb28000e00090031587800cc
:106c1000f000b1000040eb0040479800240037002e
:106c2000b00720000e004000220320008000eb008f
:106c30004c03020000000000b00720000e004000de
:106c4000ce409000fa420200000000004e4090004a
:106c50000004e0000e003200b00720000e004000eb
:106c6000104078000004e00009003200650447008d
:106c7000650047009203020000000000800044000d
:106c8000c0c7b300804878000040eb0090409800f7
:106c9000b10720008e804000650047005a030200c3
:106ca000000000004e4090000040e800404798007f
:106cb0004e409000e34f5000d9ff3600650047007a
:106cc000c1f128005a03020000000000100020005b
:106cd000100798000000eb00000f78000c00370050
:106ce0001e0190001e0090000000e80010079800b0
:106cf0009e00780065004700614078000000fb00be
:106d000082007800784c0200000000001e0fe800ae
:106d1000500720009e0f1000f1ff36004f0478004e
:106d20000080fa00000006000600fa00881f7800c4
:106d30002007980010002000100798000000eb00ca
:106d4000000f78000c0037009e0078002e009000a5
:106d5000008440009e0090001e0090000000e800ab
:106d60001007980001007800824b0200000000002c
:106d7000004c78001e0fe800500720009e0f100006
:106d8000f1ff36004f0478000080fa000000060092
:106d90001000fa00881f780069004700c1fc280035
:106da00005000900315878006000b100800c200017
:106db000100798000000eb00000f78000d0037006e
:106dc0001e0478009e0090001e0090000000e80065
:106dd0001007980001007800824b020000000000bc
:106de00080407800640047000000440001487800bb
:106df0001e0fe800400020009e0f1000f0ff36003c
:106e0000e900470064004700520020000a03020026
:106e1000000000000000e00015003200800c20009f
:106e2000100798000000eb00000f78000c003700fe
:106e30001e0190001e0090000000e800100798005e
:106e40009e00780069004700614078000080fb00e8
:106e500082007800784c0200000000001e0fe8005d
:106e6000410020009e8f1000f1ff36005dff0700fb
:106e70004f0478000080fa0000000600809fbe00ea
:106e8000829fbe00841f78001200fa00ccc2bf00af
:106e90000042b2000004e0007f003a0040c2a900b6
:106ea00000d8800011d88000930180000101780093
:106eb0009201880010407800930188000080fb0058
:106ec0004012880000d8800011d880009301800013
:106ed0000101780092018800104f7800930188002a
:106ee00000d8800011d880000000d0002000b00041
:106ef0004220a800e08048004220ae004200a800e6
:106f00000080d30000d8880011d8880000d8800005
:106f100011d880006e0147000089be00f0ff2f00ed
:106f20005007980011002000610798006a00470090
:106f30001000be00660147000089be008e08900068
:106f40004e019000828f500009003e000e08900014
:106f5000ce009000810f50000d003a007e0190009d
:106f60003e009000800f510001003e0008003700f5
:106f70000100280011079800120020002207980045
:106f80008e80e8001100be0000d8880011d888006b
:106f900052cfb3009e4f11000d003a000081220035
:106fa00010407800eb4f400009003a00dc22a900b5
:106fb000d0d780000000e900d0d7880001812200ee
:106fc0000040eb00804878009540a900360037006b
:106fd000008122001e48780033003700b340810052
:106fe000b440810014017800401280008040780095
:106ff0006400410003004000014878000200e800fe
:10700000000a780040c2a900b0408100100078005a
:10701000e10f500020003600b1408100b0408100f7
:10702000100078000000e90064004000010040000a
:1070300010407800eb4f400017003a00b14081004b
:10704000b0408100100078000080e900640040003a
:107050000100400010407800eb4f40000e003a0065
:10706000b0408100c03eb000b0408900b140810016
:1070700040322200808f500002003600c0b4210050
:10708000b040890020812200104078008040e80054
:10709000208122000148780040c2bf000042b200b7
:1070a0000004e000cdff32008540a9000080fa0016
:1070b0004f0278004f01be004f00be0000400600a6
:1070c0000400fa00000f78001e007800100078001d
:1070d000ec0f500003003e00100020001007980045
:1070e000350037001e00780040409000ee4f400011
:1070f0002f003a001e00780060409000ed4f4000e5
:107100002b003a001e00780060489000ec4f4000d1
:1071100027003a001e007800100078000080e90087
:107120009e0078006400400001004000104078009c
:10713000eb4f40001e003a001e007800100078005f
:107140000000e9009e00780064004000010040005b
:1071500010407800eb4f400015003a001e00780008
:107160008048900030c4b30080cf50000d003a003a
:107170001e00780090489000f0c4b30080cf50000b
:1071800008003a001e007800a0489000d0c4b30068
:1071900080cf500003003a000000eb001007980079
:1071a000050037005000200010079800020037004b
:1071b00010002000100798001e0090000080fa00c8
:1071c000000006000200fa000000eb000012880038
:1071d0000000eb00101288000000eb002012880075
:1071e0009540a90040128000000f78000124200083
:1071f0009140780030ceb30000c060000024a000b1
:1072000040e2b70040c2a9004302a80042e2a80041
:107210004402a80041e2a8008540a9009540a800ca
:107220000080fa00000006001200fa0021e2a90026
:1072300031e2a90051e2a900b1e2a9001122200027
:1072400091407800c0cfb30000c0600021e2b700d9
:107250001123200091407800c0cfb30000c060002f
:1072600031e2b7001125200091407800c0cfb30073
:1072700000c0600051e2b700112b2000914078005f
:10728000c0cfb30000c06000b1e2b7009560a900b4
:1072900097c0a9009e40a9009f00a9002342a90011
:1072a0003342a9005342a900b342a9009580a90026
