:020000040000fa
:080000000002040000000000f2
:020000040000fa
:100400002fc62100cec225000e018800000000008a
:100410000c000700e0f42200010020000f0007009c
:10042000000020000000e000020032000000020096
:100430000000000096120200000000000040da00f8
:100440000000fe00801c20000000e00002003200de
:10045000002020009001880000000600a102880012
:10046000800078000000eb001a003700e2804000b6
:1004700054a0b4009101ba00e280400054a0b4003e
:100480009102ba00e280400054a0b4000002eb00e8
:10049000472bde00f507b200a6018800602ce100c2
:1004a00008003a000049eb000201e80002003900b0
:1004b0003420ec0002f0a0008301e900f9ff3e00c7
:1004c000040037006128e100010032000082eb00e7
:1004d000040007001101ba000200e000e3ff3a0047
:1004e0000000060004d0a300e20f49001c00390000
:1004f000810278003549ba000201e80002003900a3
:100500003420ec0002f0a0008301e9000f0032006b
:100510002549ba000201e800020039003420ec004d
:1005200002f0a0008301e900080032000400e000ae
:100530000600320015c9ba000201e80002003900c5
:100540003420ec0002f0a0008301e9008180e80083
:1005500054a0b4000300e000e2ff3a0000000600ef
:100560009102ba00055978008301e900f7ff3200d3
:10057000c82ade00055978008301e900f3ff320044
:100580000400e000f1ff320011d9ba00eeff37009d
:100590000040da000000fe000a00fa008001780046
:1005a000e20f500028003e0000e38000e10f500001
:1005b00008003200802320000000e0000500320027
:1005c00004232000252320004623200080017800fa
:1005d00004003700042220002522200046222000ab
:1005e00083222000144090000004e0000400350045
:1005f0008009eb00144090000074a00010429800a5
:10060000154090000028a30003003a001540900018
:100610000024a000904298008001eb000700370002
:10062000154090000008a300fdff320063c0780071
:100630000000fb00000b78008301e800828f51006e
:10064000f7ff3a000800370030002000b0bf9f00dd
:10065000c3bf9f00d1bf9f00e2bf9f006a805700c9
:1006600000c0da006fb99700020078000080fa003d
:10067000000006006022b800060220000000d00042
:100680008180d2000482d2008582d2000000a000c6
:100690000202520083825a0003003100020242002b
:1006a00083824a000000a1000603e900f3ff3a003c
:1006b00000000600881f7800000478005001be008a
:1006c0004000be000400400085804800060149004b
:1006d00087814900009cbe000294be000400e10036
:1006e0000588e1000690e1000798e1000200310072
:1006f000680044001008e8004f047800000006007d
:10070000f4874700889fbe008a9fbe008c9fbe0072
:100710008e1f78000205be000004be00d4b79f0003
:10072000e5b79f00f6b79f0087bf9f000000eb0072
:10073000c0b79f00b0b79f00a0b79f0090b79f00c1
:1007400080b79f000d042000bfb097004fb0970006
:10075000000140000000e0000f003d004f08de00f7
:1007600000007100c0b79f009e00070001003d001f
:1007700012002000a100070001003d00120020002f
:10078000a6000700b1000700b60007000f004000f8
:10079000c8ff0700220037004f08de000006710086
:1007a000ccb79f008f00070001003d001200200021
:1007b0009200070001003d00120020009700070092
:1007c000a20007000fb297009fb297002fb39700c7
:1007d000bfb39700a90007000000520081805a00b3
:1007e00002015b0083815b0080b79f0091b79f008f
:1007f000a2b79f00b3b79f000007eb009f00070060
:100800000020e10001a8e10002b0e10003b8e1002e
:10081000010031001e0020000e005600c0b79f00ee
:100820004fb297000400e0000700350010002000e0
:10083000010020006011b800080470008984700075
:100840000a0571008b8571008d06e900beff3a0034
:100850000400e00003003d00820007000f0040009c
:1008600094ff07004fa897000000e00004003a0042
:100870000fb497009fb497002fb59700bfb59700ae
:10088000940007004f0778004f06be004f05be00da
:100890004f04be004f01b10000000600881f780021
:1008a00018002000881f780095ff07008f87e90057
:1008b0004f04780000000600801feb0090ff070047
:1008c0008f87e90000000600889fbe008a9fbe0057
:1008d0008c1f78006e00070007003d0073000700c2
:1008e000e00f5b00e08f5b0007003d003200070077
:1008f0000006eb00040037003400070002003d0052
:100900002a0007001c00200072000700e3ff070018
:100910000203be000002be000c00e0000100320035
:10092000220007000400be000601be004f0678004a
:100930004f05be004f04be0000000600889fbe00a9
:100940008a9fbe008c1f78005100070005003d0003
:1009500056000700e00f5b00e08f5b0006003d00e3
:10096000040037001900070003003d006000b800d4
:100970006011b8001000070056000700ceff070006
:100980000203be000002be000c00e00001003200c5
:10099000060007000400be000601be004f067800f6
:1009a0004f05be004f04be00000006006000b80006
:1009b0006011b80000003700040250008582580022
:1009c0000603590087835900000006000006eb006b
:1009d000e00f5200e08f5a00e00f5b00e08f5b00f9
:1009e000000006000180400090b79f000001eb006e
:1009f0008fb097000100e0000000060002007000c8
:100a000090b79f000180400080b79f000001eb007d
:100a1000ffa897000100e00000000600020070003f
:100a200080b79f00018040006faa9700cf20de00b2
:100a300001007000f0af9f00040242002500070093
:100a40004f18de000002720000000600e4af9f00b5
:100a50000804440089844c000a054d008b854d0034
:100a6000000006003fb29700cfb297005fb3970037
:100a7000efb3970000fe2f00000006003fb0970084
:100a8000cfb097005fb19700efb19700000006006c
:100a90000205be000004be00e00f5000e08f5800c9
:100aa000e00f5900e08f5900000006006000b80018
:100ab0006011b80008045000898458000a055900e4
:100ac0008b8559001c002000e00f5200e08f5a0077
:100ad000000006000800be000a01be00000006007b
:100ae0000621ef0061088800800888001061a900d5
:100af000000006000a21ef007108880090088800b5
:100b0000000006001421ef00d1088800f0088800da
:100b1000000006001821ef00e108880000098800a5
:100b2000000006008001eb000200370081717800b0
:100b30008301e800828f5100fcff3a0000000600ac
:100b4000889fbe000004be000000e00003003a00e1
:100b5000f8e280000800e000130032000800be0048
:100b600084000700000444001804e00004003a0078
:100b70000000eb00f0e28800000478000a00370073
:100b80000800be008e00070000004400f0e288006c
:100b90001004e000020032000058eb0001003700b2
:100ba0000000eb00f0e28800080078004f04be006f
:100bb00000000600800078003004e000feff3a00ec
:100bc000010050000000e900000006008001eb0079
:100bd0000200370061f079008301e800828f510044
:100be000fcff3a0000000600810178000002eb00e3
:100bf0000b003700e44078000104e00003003200fd
:100c00000402e80093cf5000040032008180fb0012
:100c10001380fb0000805000000006008301e80004
:100c2000820f5200f3ff3a00000005000c00fa00aa
:100c3000889fbe0000047800cfb09700f0ff270027
:100c4000d0bf9f008004eb0099bf9f0088bf9f002a
:100c5000a8bf9f00200c2000b0bf9f0078815700e4
:100c600070805700690007000fb8970009487800a6
:100c70000fb8970008045000080078004f04be0029
:100c80000080fa000000060000037800800278006f
:100c9000020278008001eb00080037000402e9003e
:100ca00063c07800805a78008301e8000004e00007
:100cb00002003a008000eb0006003700828f5100ee
:100cc000f6ff3a00fbff37000040eb0080f07a00af
:100cd0008100e800848f5000fbff3a000600780096
:100ce00000000600800178000001780031407800a3
:100cf000005978000004e000fcff3a00030078008f
:100d00000000060080017800000178000100370033
:100d10000201e8001204e000fdff3a0031407800d3
:100d2000005978000004e000fcff3a00030078005e
:100d30000000060010417800814f5100040032008d
:100d40000000e8000204e000faff3a000000eb00b7
:100d50000000060010417800b141510003003a0044
:100d60000000e8000204e000faff3a000300fb0084
:100d700000000600889fbe008a1f780000057800ea
:100d8000810478000004eb00010037000804e8004b
:100d900068407d000004e000050032008000fb0098
:100da00009007800e3ff07000000e000f7ff3a00c9
:100db000080078004f0578004f04be0000000600d0
:100dc000889fbe008a1f78000005780081047800a3
:100dd0000004eb00010037000804e80068407d00d3
:100de0000004e000050032008000fb0009007800ec
:100df000d0ff07000000e000f7ff32000800780095
:100e00004f0578004f04be0000000600fe87470033
:100e1000889fbe008a9fbe008c9fbe008e1f7800f8
:100e2000f0b79f000107780082bf9f000000eb0031
:100e3000a0b79f009f0237008006eb0050c2b300ae
:100e400080cf5000090032000100fb00ffb0970086
:100e5000a3020700e10f400096023200afb09700f6
:100e60008100e800a1b79f00920237009e40780001
:100e7000d0c2b30080cf50000c00320007003c000d
:100e80006d40500080cf50000a0032006b4040009f
:100e900080cf50000e003a000800370000c3b300b6
:100ea00080cf50000a003a00060037000d30a00045
:100eb000050037000d00a000030037000d10a00052
:100ec000010037000d20a0000e07e800e7ff370003
:100ed0000d18a300010032000d00a1000d38a30081
:100ee000010032000d20a1000100fb0002fd2f00d7
:100ef00002004000e90f50000e003e000002eb002f
:100f0000c4b79f0082017800cfb297006a28b90069
:100f10001e01fb000001410003014100c2b79f0018
:100f20005e00fb0003004000e90f50000b003e0094
:100f3000f5ff37000006eb00ccb79f00a0c2b3005e
:100f400080cf500005003a000fb89700c00078002d
:100f500080bf9f00c1b79f000e07e8000001eb00b3
:100f6000b2b79f00e0c2b3009e4f100018003a00d5
:100f70000de0a0008e00e80064405000914f10008a
:100f800002003200010778000c0037000fba97000a
:100f9000c402780084bf9f00b5b79f000e87e800a9
:100fa0000b0037003fb697006a60b90000004100af
:100fb00003004000b0b79f000e07e8001e01fb00d1
:100fc00003fd2f0003004100e90f5000f5ff36003c
:100fd000be407800e1d79f00c0c6b30080cf50006c
:100fe000220032000f003c006940500080cf5000ca
:100ff0007700320004003c000104e00031023200be
:101000006b4050000f00370040c6b30080cf500047
:10101000930032006540400080cf50008b003a00c2
:101020008f00370030c7b30080cf50001a00320065
:1010300007003c006440500080cf50001100320097
:101040000040e80080cf500080003a000f003700d9
:1010500050c7b30080cf5000800032006340400092
:1010600080cf500079003a000900370000002800c6
:101070000d48a30001003a000001200080867600a0
:10108000d3ff37000d60a000750037000d50a000a1
:101090000d70a000720037008fb8970041007800f3
:1010a00081bf9f00000478000000e00001003a00ca
:1010b00088c021008004eb00010037008104e800b3
:1010c00089007800088044001004e000fbff3a002b
:1010d0003fb197000200e00003003200890f510089
:1010e00001003100820478000002eb00e4af9f00b1
:1010f000cfb29700898f520002003600098052005b
:10110000e0af9f004368de00e10660001b003a008c
:101110000d06780009003700ffb09700000220009c
:10112000ef010700e10f4000030032002fb09700ed
:101130000000e800a0b79f000c06e800efa89700a9
:10114000810f5600f4ff3a000081eb00e2af9f00f0
:101150000a003700880078003100fb0001047800a5
:10116000ffb09700de010700e10f400003003200ee
:101170002fb297000402e800a4b79f000900e9001d
:1011800080047800e10f4000f2ff3a000006eb0017
:101190000d00e0000a003a00c6013700ffb09700da
:1011a00000022000ce010700e10f400003003200e2
:1011b000afb297008502e800a5b79f000c06e800d3
:1011c0006fa89700800f5600f4ff3a00b90137006e
:1011d0008fb897004100780081bf9f00cf80de006c
:1011e00001017800820178000205be000004be0003
:1011f0000203be000002be004822de00482edd00d1
:1012000004027600e4d79f000d48a3000a003200d4
:101210000404e00008003200e14f42000600320002
:1012200071fd2f00018047000448780018409800a5
:101230002900200002003700f0d79f00190020008d
:1012400072fd2f0002844700a1ff370064fd2f00cc
:1012500004844700190020009dff37000d0cb300e7
:101260000d007800000cb20028003a000d00e000ec
:1012700005003d008fba97004505be004504be003d
:1012800085bf9f00140037000d48a3000b003200fb
:101290000fbe97004c00be008cbf9f004f89de0040
:1012a000cf91de000002be000203780082037800c6
:1012b0000605be000404be00070037008fb8970083
:1012c0004100780081bf9f0000047800cfc4de0099
:1012d000090578008a057800e00f5400e08f5c0073
:1012e000e00f5d00e08f5d001f003d003d00b3009a
:1012f0006000b8006011b8000804500089845800ec
:101300000a0559008b855900170037000d00e000d1
:1013100005003d000fb997004205be004204be0023
:1013200082bf9f00100037000d48a3000700320065
:101330000fba97004400be0084bf9f006011b80040
:101340000205be000004be00070037008fba9700f8
:101350004500780085bf9f00000478000900200048
:101360000a0020000b0020003fb697000c00e000b0
:1013700007003a00e00f5400e08f5c00e00f5d00d2
:10138000e08f5d0002003a0010002000b0b79f001f
:101390008d007800010cb200e1b79f00000420002e
:1013a000808f50003000320003003c000100e0005c
:1013b0000800320040003700000820006fb197009d
:1013c000800f510014003200000c2000800f5100eb
:1013d00039003a0014c0b30065b121000b0037009a
:1013e0000400fb004300dd00050040005001be008a
:1013f0004000be000040e10001c8e10002d0e10071
:1014000003d8e1002b0039000442e800f44f5200f9
:10141000f3ff3a0027003700000120000100200000
:101420006011b80014c0b3000040e10001c8e10041
:1014300002d0e10003d8e1001e0039004500200081
:101440000000d0008180d2000281d2008381d200ce
:101450008502e900faff3a000442e800f04f52002a
:10146000f1ff3a0013003700800020000100200047
:101470006011b80014c0b3000040e10001c8e100f1
:1014800002d0e10003d8e1000a0039003c0020004e
:101490000000d0008180d2000281d2008381d2007e
:1014a0000c06e900faff3a000442e800f54f52004a
:1014b000f1ff3a00e4d79f00efd097000100fb0056
:1014c0003fb19700820f500002003d00e2d79f001d
:1014d000040037003fb29700800f520001003d002a
:1014e000b0b79f00cfb297000500e00004003200c3
:1014f00063806600020032008502e900c5b79f00e4
:101500000de8a3000b0032004fb697003fb09700e4
:10151000800f560003003c008000eb00c1b79f0025
:10152000040037004fb197003fb29700040151000b
:10153000c2b79f00efd297000500fb000006eb004a
:10154000dcaf9f00cfb09700808f500002003400c6
:1015500000805000d0af9f000d28a300370032005c
:10156000e18066000d18a3000c003200d0022000bc
:101570000100e00001003a000080e900ffb09700a0
:10158000d7000700e10f40000e0032002fb1970096
:101590000201e800a2b79f000a0037000100e00046
:1015a00008003200ffb0970000022000cc000700c6
:1015b000e10f4000030032002fb297000402e80060
:1015c000a4b79f00dfaa97000500e0000f003200db
:1015d0000006eb00ffb0970000032000c0000700ea
:1015e000e10f4000030032002fb097000000e80038
:1015f000a0b79f000c06e800dfa89700810f5600f7
:10160000f4ff3a000001eb00d2af9f003fb2970019
:10161000c320dd00e0b021008080400091b79f0032
:101620004220dd006400500080b79f006320b900b5
:10163000f0af9f006306500084003700dfaa9700d8
:101640000500e00011003200688066000f003a00db
:1016500000067800ffb0970000022000a0000700fd
:10166000e10f4000030032002fb097000000e800b7
:10167000a0b79f000c06e800dfa89700810f560076
:10168000f4ff3a000001eb00d2af9f00e18066005a
:101690000d18a3000c003200d00220000100e00071
:1016a00001003a000080e900ffb097008c000700bd
:1016b000e10f4000d5ff32002fb297000402e8008e
:1016c000a4b79f00d1ff37000100e000cfff320038
:1016d000ffb097000002200081000700e10f4000ea
:1016e000caff3200afb297008502e800a5b79f009d
:1016f000c6ff370000042000efb09700808f500035
:101700003100320003003c000100e000080032001c
:101710003e003700000820006fb19700800f510095
:1017200011003200000c2000800f510037003a00f9
:101730001fb097003002be002003be000800be00ac
:101740000a01be0055fc0700a4002000050020008f
:101750006033b80058fc070004c3b30004424000e3
:10176000e4d79f0029003700f5c02100d5b79f00be
:101770000d58a30002003a0000c22100d0b79f001c
:1017800014002000050020006033b8008fb09700df
:101790008100e900050033000402d0008582d200f8
:1017a0000683d2008783d200f9ff37000800be000d
:1017b0000a01be0039fc07006f0060005fb19700ae
:1017c000624078001000370014002000050020005f
:1017d0006033b8000c0078000000e9000500330019
:1017e0000402d0008582d2000683d2008783d20013
:1017f000f9ff37000800be000a01be0027fc070001
:10180000674060000043b000e0d79f00efd0970032
:101810000100fb00ffb0970031000700e10f40001e
:10182000030032002fb197000201e800a2b79f0029
:101830001fb297006802520094b79f008fb29700c2
:10184000e482520085b79f0063065600d0ff2f0048
:101850003fb197000090b9007faa970000004200b6
:1018600063005000800f5600a2ff3a000d38a3001d
:1018700010003200dfaa97000500e0000d003400e0
:101880000006eb00ffb097000002200014000700e4
:10189000e10f4000030032002fb097000000e80085
:1018a000a0b79f000c06e800dfa89700810f560044
:1018b000f4ff3a00be407800e1d79f000104e00049
:1018c0005dfd3a002fb097004f0778004f06be002d
:1018d0004f05be004f04be00ef01b100000006003e
:1018e000889fbe000001780001047800b1009000dc
:1018f0000118a3003d0032000198a30003003a0044
:10190000180090000000e00038003a000190a000ac
:101910003104980082047800f90fb200180090009a
:101920000000e00002003a0028009000000c78005f
:10193000ea8f540006003a00380090000078a300b7
:1019400003003a0088007800d0002000e4ff070080
:101950009800900058009000808f50000b003200db
:101960000100e80010049800180078000958780079
:10197000000c780011c0b300c0c5210001487800f8
:10198000ea8f540006003200190037008800780002
:10199000094078001900070080047800140037001f
:1019a000380090000088a300110032001801900058
:1019b000a800900048009000f7fa070098009000f7
:1019c000810f500004003200380090000003b30083
:1019d000300498008084eb000000eb0010049800b5
:1019e00028009000000c7800010037008084eb0094
:1019f000090078004f04be00000006000200fa0053
:101a0000889fbe00a0ff9f0001047800b1009000f5
:101a1000810478000904b200020032000000fb00db
:101a2000360037000118a30005003a000103b30097
:101a300031049800190498000080eb002f00370053
:101a4000580090000000e00006003a0048009000b6
:101a500012002000e6805700cffa07001904980012
:101a600024003700280090000000e00008003a0041
:101a700080c5210020049800000c78002000200080
:101a800050049800100498000130a0003104980020
:101a900018019000a800900048009000befa0700ce
:101aa00028009000000c78000080eb0010049800e3
:101ab00018007800aff8970001587800000c780003
:101ac0002ff89700ea4f50000a003a0038009000c3
:101ad0000088a3000700320018019000a8009000c1
:101ae00048009000acfa070019049800a800900084
:101af000010c7800aff897000100fb004f04be0016
:081b00000080fa00000006005d
:020000040000fa
:020000040005f5
:0457f400fffc0000b6
:020000040000fa
:020000040005f5
:0457f800be1b0000d4
:020000040000fa
:020000040005f5
:0457fc006b3f0000ff
:020000040000fa
:10000800c8020000c8020000c8020000c8020000c0
:10001800c8020000c8020000c8020000c8020000b0
:10002800c8020000c8020000c8020000c8020000a0
:10003800c8020000c8020000c8020000621d0000db
:10004800841e0000c8020000b6100000a61d0000b3
:10005800021e0000c8020000c8020000c80200001a
:10006800c8020000c8020000c8020000c802000060
:10007800c8020000c8020000c8020000c802000050
:10008800c8020000c8020000c8020000881f000063
:10009800aa200000c8020000c81e0000241f00009b
:1000a800c8020000c8020000c8020000c802000020
:1000b800c8020000c8020000c8020000c802000010
:1000c800c8020000c8020000c8020000c802000000
:1000d800c8020000c8020000c8020000c8020000f0
:1000e800c8020000c8020000c8020000c8020000e0
:1000f800c8020000c8020000c8020000c8020000d0
:10010800c8020000c8020000c8020000c8020000bf
:10011800c8020000c8020000c8020000c8020000af
:10012800c8020000c8020000c8020000c80200009f
:10013800c8020000c8020000c8020000c80200008f
:10014800c8020000c8020000c8020000c80200007f
:10015800c8020000c8020000c8020000c80200006f
:10016800c8020000c8020000cc1f000028200000c0
:10017800c8020000c8020000c8020000c80200004f
:10018800ee2000004a210000c8020000c80200005a
:10019800c8020000c8020000c8020000c80200002f
:1001a800c8020000c8020000c8020000c80200001f
:1001b800c8020000c8020000c8020000c80200000f
:1001c800c8020000c8020000c8020000c8020000ff
:1001d800c8020000c8020000c8020000c8020000ef
:1001e800c8020000c8020000c8020000c8020000df
:0801f800c8020000c80200006b
:020000040000fa
:10020800c8020000c8020000c8020000c8020000be
:10021800c8020000c8020000c8020000c8020000ae
:10022800c8020000c8020000c8020000c80200009e
:10023800c8020000c8020000c8020000621d0000d9
:10024800841e0000c8020000b6100000a61d0000b1
:10025800021e0000c8020000c8020000c802000018
:10026800c8020000c8020000c8020000c80200005e
:10027800c8020000c8020000c8020000c80200004e
:10028800c8020000c8020000c8020000881f000061
:10029800aa200000c8020000c81e0000241f000099
:1002a800c8020000c8020000c8020000c80200001e
:1002b800c8020000c8020000c8020000c80200000e
:1002c800c8020000c8020000c8020000c8020000fe
:1002d800c8020000c8020000c8020000c8020000ee
:1002e800c8020000c8020000c8020000c8020000de
:1002f800c8020000c8020000c8020000c8020000ce
:10030800c8020000c8020000c8020000c8020000bd
:10031800c8020000c8020000c8020000c8020000ad
:10032800c8020000c8020000c8020000c80200009d
:10033800c8020000c8020000c8020000c80200008d
:10034800c8020000c8020000c8020000c80200007d
:10035800c8020000c8020000c8020000c80200006d
:10036800c8020000c8020000cc1f000028200000be
:10037800c8020000c8020000c8020000c80200004d
:10038800ee2000004a210000c8020000c802000058
:10039800c8020000c8020000c8020000c80200002d
:1003a800c8020000c8020000c8020000c80200001d
:1003b800c8020000c8020000c8020000c80200000d
:1003c800c8020000c8020000c8020000c8020000fd
:1003d800c8020000c8020000c8020000c8020000ed
:1003e800c8020000c8020000c8020000c8020000dd
:0803f800c8020000c802000069
:020000040000fa
:101b0800313000003000000000000000000000003c
:101b180064000000000000003330000030000000c6
:101b280000000000000000002c0100000000000080
:101b38003630000030000000000000000000000007
:101b48005802000000000000313200003030000070
:101b58000000000000000000b004000000000000c9
:101b680032340000303000000000000000000000a7
:101b78006009000000000000343800003030000028
:101b88000000000000000000c0120000000000007b
:101b9800393600003030000000000000000000006e
:101ba80080250000000000003134000034300000bf
:101bb8003000000000000000403800000000000075
:101bc8003139000032300000300000000000000011
:101bd800004b0000000000003338000034300000e3
:101be8003000000000000000009600000000000027
:101bf80035370000363000003000000000000000db
:101c080000e1000000000000313100003532000022
:101c1800303000000000000000c200000100000099
:101c28003132000038300000303000000000000081
:101c380000f40000010000003235000036300000da
:101c4800303000000000000000e800000300000041
:101c58004f4600004600000000000000323300003c
:101c680032000000000100003233000032000000a2
:101c7800000100003438000035480000000300006f
:101c8800345800005846000000040000010200001b
:101c98000408000084070000a4050000c205000035
:101ca800c60500000c0700002c0500004a050000ce
:101cb8004e05000010000000300000005105000033
:101cc8005505000010000000300000005505000018
:101cd8005505000050300000783a0000003a000036
:101ce800003a0000383a00004e3a0000313a00004d
:101cf800300000005030000032000000503000007a
:101d08003400000050300000330000005030000064
:101d180031000000302e0000302e0000330000009b
:101d28007c000000f2ff0000f3520000434f000067
:101d38004d53000050430000f44d0000787c000033
:101d480000f50000f5000000f2ff0000f35200006b
:101d5800434f00004d52000053540000f4f50000ba
:101d6800f5000000535000005700000050300000fc
:101d780031000000503000003200000050300000f8
:101d8800330000005030000034000000f2ff000073
:101d9800f3520000434f00004d530000505700001d
:101da800f4000000535000004300000056450000b6
:101db80052000000f2ff0000f3520000434f000001
:101dc8004d56000045520000f44d0000783a0000de
:101dd800004900004e49000000f20000fff3000037
:101de800524300004f4d0000494e000049f40000e6
:101df8004d7800007c000000f2ff0000f352000064
:101e0800434f00004d45000052520000f40000000e
:101e18002530000033750000f5f5000000250000ae
:101e280030330000753a0000585800003a25000089
:101e3800733a000025730000f5f5000000f2000079
:101e4800fff30000524300004f4d000053500000c4
:101e580052f400004d7800007c0000005030000073
:101e6800256300003a0000000000000000000000a8
:101e7800000000000000000000000000000000005a
:101e8800000000000000000000000000000000004a
:020000040000fa
:101e98000000eb0000128800101288002012880051
:101ea8009540a9004012800040c2bf0031ceb30067
:101eb800014060000024a00040e2b70040c2a90031
:101ec8004302a80042e2a8004402a80041e2a80098
:101ed8008540a9009540a800000006000600fc0007
:101ee80000ceb3004260b700000006000600fc0008
:101ef80042c0bf007f40600042e0b700000006001b
:101f08000001be008002eb000082eb0001003700f8
:101f18008502e80091018000930188001240780052
:101f2800910188000201d0002200b0004220a800e0
:101f3800e08149004220ae004200a8000281d3009f
:101f48000004e000020032000402e900f0ff3a0059
:101f58000500780000000600f603fa00889fbe001e
:101f68008a9fbe008c9fbe000004be00a200200015
:101f78008000eb00e0bf2f000f004000e7fa0700e9
:101f88009201800099018800180078009201880069
:101f980063004000cf80de000001d0008801d0003f
:101fa800030041004220a800898048004200a9009f
:101fb8004220ae004200a8000080d3000043eb009e
:101fc800a3018000a101880006487800a3018800c9
:101fd8009201800099018800180078009201880019
:101fe8000080e800cf80de000001d0008801d0002a
:101ff800030041004220a800898048004200a9004f
:102008004220ae004200a8000080d300a301800057
:10201800a101880006487800a3018800e400440074
:10202800c2c02f00028047000d0009003158780017
:10203800e000b100e100b1000804d000e801b00000
:102048004220a800e0844c004220ae004200a800d4
:102058000884d30041e9280008007800b6fa070090
:1020680080007800e8bf2f000f0444000900370003
:1020780083c02f0003804700800f540033003200d4
:10208800011c780041e928000000eb00aafa0700cb
:10209800800078000100e000f5ff3a00e0bf2f0063
:1020a8006f06780081057800808647003d05780036
:1020b8000a00e000200032000b04e00008003a00ab
:1020c800d0c4b3009c4f100020003a000c007800e8
:1020d800b6fa0700e20f5000170032001b00370065
:1020e8000a007800b1fa070081c02f000184470078
:1020f8008084fb00090178008a007800a3c12f00c2
:1021080003804700affa07007280440051cfb30044
:1021180001707c007380440001707c00708c440066
:10212800cf40de000800780000f0a100010b070096
:102138000000e00006003a008b05e800e58f550036
:10214800daff3a000000eb000100370050002000e1
:102158004f06be004f05be004f04be000080fa00c7
:1021680000000600809fbe00829fbe00849fbe00c4
:10217800869fbe00889fbe008a9fbe008c9fbe00bf
:102188000400fa00060020000700200064805700c1
:102198000688be00ccc2bf000058a3009a003a00cf
:1021a80040c2a900e2dd8000f3dd800094018000d8
:1021b8009301880012407800940188000080fb0099
:1021c8004012880090018000930188001242780034
:1021d800900188000201d0002200b0004220a8002f
:1021e800e08149004220ae004200a8000281d300ed
:1021f800e2dd8800f3dd880006802f00170020004c
:1022080000002100110020008602d0000005d00047
:102218000a8042004220a80081804b004200a900a9
:102228004220ae004200a8000080d300838f5000f7
:1022380007003e0002003a00820f500004003e00f2
:1022480008802f0087047800e8dd8800f9dd880021
:10225800eb4f420009003a00a0b0210051cfb30073
:1022680090cf100005003a00dc22a900b63bed0033
:102278000a7bef009540a90066003700040078004b
:102288000afbb7006300370098d88000a9d88000ff
:1022980090018000990188009801780090018800d9
:1022a8004712800064804100cf80de000001d0002a
:1022b8000802d000040041004220a800898048009c
:1022c8004200a9004220ae004200a8000080d300ce
:1022d800a4018000a101880007487800a4018800b3
:1022e8008301e800a0018000a9018800030c7800a0
:1022f800a001880040c2a9009001800099018800cf
:102308001802780090018800e10f52003e00360064
:1023180063004200cf80de008002d0000801d000b8
:10232800028042004220a800898048004200a9009b
:102338004220ae004200a8000080d3009301800034
:10234800910188001040780093018800eb4f40000d
:102358002d003a000480e800cf80de008001d00024
:102368000802d000048041004220a800898048006b
:102378004200a9004220ae004200a8000080d3001d
:102388009301800091018800104078009301880033
:10239800eb4f40001c003a00c03e20000100200026
:1023a8008802d0000001d000028042004220a8002c
:1023b80081804c004200a9004220ae004200a800e3
:1023c8000080d30090d88800a1d888000380260018
:1023d800e3bf9f0004002000f4bf9f00848f5000db
:1023e80004003e0007003a000c8026008c0f5000c5
:1023f80004003600cac325000b0020009ad88800c4
:10240800abd888000c7bec0040c2bf000058a3008a
:102418009dff32008540a9000080fa004f06be00eb
:102428004f05be004f04be004f03be004f02be0062
:102438004f01be004f00be00004006000600fc0031
:1024480000ceb3004260b700ffff37003200fa0049
:10245800881f78009a0d0700e1062000810f5000c0
:102468002d0036000001eb0060e928000120200063
:102478002b0b07000004eb00220320008000eb0078
:10248800c0fc2f000f004000a4f907008840780026
:10249800c0fc2f000f004000ae0707000804e00052
:1024a800070032004fc997000204e0000400320020
:1024b8001200200040e9280001202000180b070026
:1024c8000001eb00c3fc2f008f814100cf18de0014
:1024d8000300780000f0a100110b07000804e800d1
:1024e800e40f5400e4ff3a000001eb0050ea280032
:1024f800012020000a0b07000600fc0000ceb300f4
:102508004260b700b63bec000600fc0042c0bf00ca
:102518007f40600042e0b7004f0478000080fa0076
:1025280000000600cf3fb000cf3fb0006f04b000fe
:10253800889fbe008a9fbe008c9fbe008e1f7800b9
:102548000000200001002000a2fd2f000f01410023
:102558000089be00e3fd2f008f8141008089be0005
:102568007e825700008abe00fa825700808abe0029
:1025780076835700008bbe00f2835700808bbe0025
:102588004227a90042c7bf000058a300fdff320040
:10259800e224ef00e424ef00e624ef00ea24ef0051
:1025a800ec24ef00cc22ef00cca2a800dc22ef0044
:1025b800d842a900d862a900d882a900d8a2a90047
:1025c800d822a900d802a900c8a2a900e0e2a80060
:1025d800c882a800c862a800e402a900e422a900f1
:1025e800e442a800e462a800e002a900e022a900f1
:1025f800e042a900e062a900c3c6bf0008ccb3004e
:10260800084060007040b300c3e6b700a8c6bf002a
:10261800084060000024a000a8e6b700a9c6bf00d3
:10262800084060000014a000a9e6b700aac6bf00d1
:1026380008406000c040b300aae6b70014fe0700d7
:10264800c6c6bf00084060003040b300c6e6b70009
:10265800a4c6bf00084060007040b300a4e6b700fd
:10266800d5c6bf0008406000c041b300d5e6b7003a
:10267800a3c6bf0008406000a041b300a3e6b700ae
:10268800c9c6bf00084060005040b300c9e6b700a3
:10269800a6c6bf00084060000034a000a6e6b70048
:1026a800dbc6bf0008406000e041b300dbe6b700ce
:1026b800b6c6bf00084060003041b300b6e6b700b8
:1026c80022c2bf00f043b20022e2b70032c2bf000c
:1026d800f043b20032e2b70052c2bf00f043b2008a
:1026e80052e2b700b2c2bf00f043b200b2e2b70094
:1026f80023e2a80023a2a90033e2a80033a2a9007c
:1027080053e2a80053a2a900b3e2a800b3a2a9000b
:10271800750707002f0407000c7bef00c0c32500d6
:102728000100200090d88800a1d8880070d88800bf
:1027380081d88800c30d070040a7a800e00c070057
:10274800ec0f50000c0036000001eb0080ea280076
:1027580001202000720a07000600fc0000ceb3002a
:102768004260b700b63bec000600fc0042c0bf0068
:102778007f40600042e0b7000060fe00cac2bf00b0
:102788000038a300010032000000fe00ccc2bf00e8
:102798000058a30008003a00dcc2bf000018a300dc
:1027a80005003a00dbc2bf000038a3000200320077
:1027b800b7fd0700cca2a8000c5be2005f02320064
:1027c80074d8800085d88000900180009501880029
:1027d8001403780090018800ec0f5300670036005e
:1027e800930180000400d0008000b0004220a800bf
:1027f800e0804a004220ae004200a8000080d300da
:10280800910188001040780093018800ee4f400045
:102818005a003a00930180000400d000c000b000c4
:102828004220a800e0804a004220ae004200a800f2
:102838000080d3009101880010407800930188003f
:10284800ed4f40004d003a00930180000400d00095
:10285800c001b0004220a800e0804a004220ae003b
:102868004200a8000080d300910188001040780041
:1028780093018800ec4f400040003a000680e800d1
:10288800cf80de000004d0008404d000090044009a
:102898004220a800858048004200a9004220ae00de
:1028a8004200a8000080d3009301800091018800b5
:1028b8001040780093018800eb4f40002f003a0049
:1028c80063004300cf80de000001d0008401d00007
:1028d800030041004220a800858048004200a9006a
:1028e8004220ae004200a8000080d300930180007f
:1028f800910188001040780093018800eb4f400058
:102908001e003a00930180000400d0000001b000ce
:102918004220a800e0804a004220ae004200a80001
:102928000080d3009101880090007800930188000e
:1029380030f42400808f500012003a009301800088
:102948000400d0004001b0004220a800e0804a0006
:102958004220ae004200a8000080d3009101880008
:1029680090407800930188000006eb00d0c4b300c3
:1029780080cf500004003200020037001c00200005
:10298800010037005c00200004007800814320002b
:10299800647b2f000f02420081004200f50109000c
:1029a800b0187800c13eb100c03eb1000c00e00094
:1029b80013013a007ad880008bd8800093018000f8
:1029c8000a00d000e000b0004220a800e0804d00de
:1029d8004220ae004200a8000080d3009101880088
:1029e800904078009301880040c5b30080cf500024
:1029f8008c003a000a02d0006401b0004220a8000e
:102a0800e0824d004220ae004200a8000482d300bc
:102a18003200200061eb28000400780070f80700fd
:102a28000000e000c0023a00900180009b0188008d
:102a380090018800900180009b0188001a017800ad
:102a4800900188004f91de001a007800820078001b
:102a58008002d0000a03d000068042004220a8006d
:102a68008b8048004200a9004220ae004200a80026
:102a78000080d3000000d0004000b0004220a80031
:102a8800e08048004220ae004200a8000080d30049
:102a9800a3018000a10188000c487800a3018800e8
:102aa8000a04d0004802b0004220a800e0844d008b
:102ab8004220ae004200a8000884d3003200200063
:102ac800a1eb28000800780045f807000000e000a6
:102ad80005003a0023c2bf004200de0061406000ea
:102ae8008c4178002100370032002000e1eb2800fb
:102af800080078003af807000000e00005003a00f6
:102b080033c2bf004200de006140600013c0b30062
:102b1800160037003200200021ec28000800780059
:102b28002ff807000000e00005003a0053c2bf007c
:102b38004200de006140600023c0b3000b00370094
:102b48003200200061ec28000800780024f8070013
:102b5800310020000000e0006f023a00b3c2bf005d
:102b68004200de006140600033c0b300211620003f
:102b7800e14f500068023a000a00d000c002b000dd
:102b88004220a800e0804d004220ae004200a8008c
:102b98000080d3008000780003407800820307009b
:102ba800000478000000e000020032000001780014
:102bb8005e023700677b2f008f834300e984430060
:102bc80080f32800904c78003201200088007800bb
:102bd8006a804300d1f707006f004500050009002f
:102be800b05c78006900b1006000b100b40b070068
:102bf800ec0f50001e01360008017800a0ec2800f8
:102c08000120200046090700cf48de0009007800af
:102c180000f0a100080178004109070008017800c8
:102c28002700370010c5b30080cf500030003a00ad
:102c38000a04d0006801b0004220a800e0844d00da
:102c48004220ae004200a8000884d30032002000d1
:102c580061ed280008007800e1f707000000e000b7
:102c68006500320032002000a1ed2800080078003d
:102c7800dbf707000000e0002b023a00900b07008a
:102c8800ef0f5000fa0036000c017800e0ed280044
:102c98000120200022090700e8e82800d8af9f009b
:102ca80009202000e9af9f000c017800a3fd2f0048
:102cb8008f8141001300be00190907000c0178003c
:102cc80050ea280001202000150907000600fc0032
:102cd80000ceb3004260b700b63bec000600fc0033
:102ce80042c0bf007f40600042e0b700e00037000c
:102cf80030c4b30080cf50000b023a000a04d00061
:102d08006801b0004220a800e0844d004220ae00d7
:102d18004200a8000884d30032002000d1ee280029
:102d280008007800aef707000000e00028003a002d
:102d38000a00be0088fc0700610b0700e1062000be
:102d4800810f5000ca0036000c01780010ef2800ef
:102d580001202000f20807008c047800347d2f0041
:102d680004844700220320008000eb00080078005c
:102d78006af70700894078000800780075050700a1
:102d88000904e000060032001804e00004003200e4
:102d98001200200040e9280001202000e008070078
:102da8000001eb00357d2f0005804700cf00de00d5
:102db8000000780000f0a100d90807008904e800a5
:102dc800e48f5400e5ff3a000001eb00bcff370038
:102dd8003200200061ed28000800780080f7070025
:102de8000000e000d0013a000a00be005afc0700cb
:102df8000000e000ca013a0094fd07009c0037007b
:102e08008c04780080432000667b2f000f0343006a
:102e180000004300cf05de00000578000af0a1009d
:102e280088f3280018407800f77b2f0080f77b0094
:102e3800320120008000eb006a00430037f70700ea
:102e48005e802f000e8747000e0078001858780023
:102e5800321f20008000eb0030f70700900180004f
:102e68009b0188001a067800900188000c00e00099
:102e7800620032000a00d000c001b0004220a80061
:102e8800e0804d004220ae004200a8000080d30040
:102e9800a3018000a10188000b487800a3018800e5
:102ea800920180009b0188001a0078009201880036
:102eb8000080e800cf80de000001d0008a01d00049
:102ec800030041004220a8008b8048004200a9006e
:102ed8004220ae004200a8000080d300a301800079
:102ee800a10188000b487800a3018800f40a0700b4
:102ef800ef0f50005e0036000b01780000f028004c
:102f08000120200086080700e18f540007003200e6
:102f1800910180009b0188001a00780091018800c7
:102f2800341f2000840f500008003600891f7800e5
:102f3800c5f02800851f7800509f2f0000804700ab
:102f480038f70700e4875700250037000a00d0004b
:102f5800e000b0004220a800e0804d004220ae0012
:102f68004200a8000080d300720020008000780092
:102f7800f07b2f000f00400041f707009001800010
:102f88009b0188001a017800900188006d015100aa
:102f98000a00d000e001b0004220a800e0804d0007
:102fa8004220ae004200a8000080d30080007800d4
:102fb8000e00780032f707008e1f7800d67b2f00ae
:102fc800869f4700891f780037f12800871f7800ff
:102fd800109f2f000080470012f70700e88757006e
:102fe800909f2f0000804700cf00de00000078008f
:102ff80000f0a1000001eb0033ff3700b00a070022
:10300800ef0f50001a0036000c01780000f028007d
:103018000120200042080700989f2f0008844700dd
:10302800891f7800c9f02800891f780008007800f7
:10303800fcf60700cf44de000804780008f0a10081
:103048000c0178000800be00350807000600fc00e7
:1030580000ceb3004260b700b63bec000600fc00af
:1030680042c0bf007f40600042e0b700e4875700dd
:1030780072d8800083d88000c03e20000100200064
:103088000202d0008002d000050042004220a800c1
:10309800818049004200a9004220ae004200a800f9
:1030a8000080d30070d8880081d888000680260068
:1030b80096b79f0007002000a7b79f00878f500092
:1030c80007003e000e003a0008802600b8b79f00af
:1030d800c1b79f00bfb49700890f500008003600a1
:1030e800c0c32500d0b79f0001002000e1b79f00b2
:1030f800f68157001301be0072d8880083d8880073
:1031080070d8800081d88000a3018000a1018800c8
:103118000001eb0002087800a30188000600fc000b
:1031280000ceb3004260b7000c7bed000600fc0047
:1031380042c0bf007f40600042e0b7000005eb00de
:103148000a407800120207000000e0003700320051
:10315800647b2f000f024200e405420080f3280040
:10316800904d7800420020008000eb00650042008e
:103178006af607000a407800850107008004780095
:10318800800078000a407800ea0007000004780010
:103198000000e00025003a000900e00023003200aa
:1031a800470a0700f4804400810f50001f003900cf
:1031b8000801780030f2280001202000d807070015
:1031c80015032000851f450026f32800861f780078
:1031d8000b00780093f60700cf58de000b0078004c
:1031e80000f0a10008017800cd07070089007800e9
:1031f8000a407800290107000801780050ea2800f1
:1032080001202000c60707000600fc0000ceb3001e
:103218004260b700b63bec000600fc0042c0bf00ad
:103228007f40600042e0b700e48757000a05e800e5
:10323800e40f5500c2ff3a00ccc2bf000058a300fb
:1032480057003200dbc2bf000038a3005400320030
:10325800b0dd8000877b2f0080b77b00697b2f0063
:1032680080b77c006f807b006f817c00820f5000ec
:103278004b003a006f807b000000e00048003200fd
:10328800dcc2bf000008a30002003a00dc02a8006c
:1032980043003700e242e20041003d00cca2a90011
:1032a80041e2a9009540a9008540a90040c2bf009d
:1032b80031ceb300014060000044a00040e2b700f6
:1032c80041e2a800f4ff2000150020002e0037007e
:1032d800e2dd8000f3dd8000910180009301880029
:1032e80012407800910188000080fb00401288009d
:1032f8000201d0002200b0004220a800e08149006d
:103308004220ae004200a8000281d300e2dd88001e
:10331800f3dd880006802f00f6b79f001700200015
:1033280087bf9f00f28457001904be000803d0002d
:103338008403d000070043004220a80085804c0089
:103348004200a9004220ae004200a8000080d3003d
:10335800818f510003003e000b003a00800f51009e
:103368000900360008802f00f8af9f008fbc970037
:1033780089b79f00e1fd2f008f8040001100be003b
:10338800e0dd8800f1dd880040c2bf000018a3001e
:10339800cfff32009540a800dc02a900dc22a8007b
:1033a800cac2bf000048a30025003a000cc8bf00ed
:1033b8000080fb000000ea004f00de004500dd0051
:1033c8000848e20003003200004478000844a000e6
:1033d80002003700004478000844a10028040700d0
:1033e8000000e0000a003a000d48e2000300320045
:1033f800084078000034a000020037000840780038
:103408000034a1000948e20033003a0034003700d4
:10341800200407000000e000060032000e48e20029
:103428000200320008407800260037000840780083
:103438002600370030cfb300004064002900370071
:10344800140407000000e00012003a000ec8bf0094
:103458000080fb000000ea004f00de004500dd00b0
:103468000a48e200020032000044a00001003700d0
:103478000044a1000f48e200020032000034a0001e
:10348800010037000034a1000b48e20012003a00a6
:10349800130037000cc8bf000080fb000000ea00e2
:1034a8004f00de004500dd000848e200020032005f
:1034b8000044a000010037000044a1000e48e200cb
:1034c800020032000034a000010037000034a100df
:1034d8000a48e200020032000024a0000100370080
:1034e8000024a1008080fb00e0168000c003b20029
:1034f800808f5000a0fc32000600fc0000ceb30014
:103508004260b70030fc2f00dc22b60001007800d2
:10351800dc22b70094fc37008104780039fe3700bc
:1035280000017800010037002200200082047800a2
:1035380034fe3700889fbe008a9fbe008045780011
:10354800010578000080fb00a24b20000280b90032
:10355800228120000004410038019000804b2000a7
:10356800000044008280ea00908040008a8f50006a
:10357800030039008a0078000002eb0001003700e0
:10358800010255008004eb00890178000280e80000
:103598008082eb000b0037000300e00007003200d8
:1035a8006541780056cfb300904f130003003a00ee
:1035b800864f510001003a00391620008301e800c7
:1035c8000000e800818f5100f3ff39000400e0009b
:1035d800100032000001eb00680044008081eb001d
:1035e8000200e00007003200e340780055cfb30046
:1035f80090cf120003003a0085cf500001003a0036
:10360800391620000201e8000000e800840f51008c
:10361800f3ff3a008000eb0030162000808f540042
:103628001a003a002dfa0700180ce9002ffa0700d3
:1036380038009000000045000082e800340498003b
:10364800804b2000e8017800830f52000900360003
:103658000b80fb00a24b20000280b900a281200051
:103668000200400003015200020040000000e9008f
:10367800040037000380e900800f52000200360082
:103688006800440030049800890078000100780040
:103698004f05be004f04be0000000600889fbe0014
:1036a8008a9fbe0080457800010578000080fb00f5
:1036b800a24b20000280b9002281200000044100b2
:1036c800b8019000804b2000000044008380ea008d
:1036d800108140008a0f5100030039000a01780068
:1036e8008004eb0001003700820455000380e800e5
:1036f800cf00de000000780000f0a1008806070077
:103708000900e0000600320068004400cf00de0037
:103718000000780000f0a100090178008006070089
:10372800eef90700180ce900f0f9070038009000de
:10373800000045000082e80034049800804b200017
:10374800e8017800830f5200090036000b80fb0067
:10375800a24b20000280b900a28120000200400094
:1037680003015200020040000000e9000400370095
:103778000380e900800f5200020036006800440010
:10378800300498004f05be004f04be00000006003c
:10379800e34f50000e003e000080fb00a24b2000cb
:1037a8000280b90022812000000041001000e000e2
:1037b80007003200300090009080fb00c808dd0050
:1037c800104090000080fb000080400000000600d0
:1037d80000000500f2874700889fbe008a9fbe0050
:1037e8008c9fbe008e1f7800000020000100200082
:1037f8007e8157000089be000800200009002000d3
:10380800fa855700888dbe000600200007002000ba
:10381800768057000688be000007eb002181200053
:10382800aa812000cb8120008bbf9f008008eb007d
:10383800ba0098009a0098000fb89700a000980066
:10384800fb4a20008b054500fbb79f00804b2000fa
:103858008b3078000e07e800ab4b20000b054500c5
:103868000fb897000b00400080bf9f008b8040007e
:10387800e40f5700edff3a00c03bef0002402d0077
:103888001300200012de880023de880032de880064
:1038980043de880052de880063de8800fc7f2f004c
:1038a8001d0020007cde88008dde8800d23bef0002
:1038b80004002b0015002000a4de8800b5de880077
:1038c800c4de8800d5de8800e4de8800f5de8800e6
:1038d800f13f2d00d1b79f0012002000e2b79f00f2
:1038e800f68057001100be0000df880011df880055
:1038f800e43bef0006c028001700200036df8800f0
:1039080047df880056df880067df880076df880099
:1039180087df8800f2ff2a00b2b79f001b00200053
:10392800cbb79f00fa8057001100be0090df8800d7
:10393800a1df8800f63bef00088026000900200080
:10394800c8df8800d9df8800e8df8800f9df880051
:1039580008e0880019e08800f2bf280092b79f00ad
:103968001b002000abb79f00fe8057001100be006f
:1039780020e0880031e088004f0778004f06be003d
:103988004f05be004f04be002f01b1000000060025
:103998008080fb00a04b20000089b9002081200016
:1039a8006000790000000600889fbe008a1f78002a
:1039b8000044780001057800e34f500030003e00d5
:1039c8000100780079f4070080047800e14f540082
:1039d8000a00320003003900e24f540013003a0095
:1039e8000c00370063080700890f50002f003900ca
:1039f8000a0078002e060700190037008a08070019
:103a0800890f5000290039000a007800a90607002c
:103a18001a003700b1080700890f50002300390049
:103a28000a0078002407070017003700d8080700a5
:103a3800890f50001d0039000a0078009f07070011
:103a4800e14f54000d00320005003900e24f5400e8
:103a58000d003200e34f540009003a00110037000e
:103a6800910207000000e000020032009560a90002
:103a7800cd22a8009580a8000100370097e0a80093
:103a88000000eb000a0037008f0207000000e0008a
:103a9800020032009e40a900f522a8009e60a800fe
:103aa800f7ff37009f20a800f5ff37001016200009
:103ab8004f0578004f04be0000000600809fbe003e
:103ac800829fbe0011e1a90084e0a9001228ec0041
:103ad800b1408000a34080000380e80000815000ce
:103ae800808f500002003900024088000300370030
:103af800004b200000004100004088000140800089
:103b08004808de0080497800a040800011409800f5
:103b1800b1408000a1408800ca8ced00808f500021
:103b280002003600a0812000a04088001488ec0024
:103b3800b04088000868ef004f01be004f00be008b
:103b480000400600809fbe00821f780010c0b300ae
:103b580008e8b70011e1a900208120008040880012
:103b6800a28120001e00370022c2bf000018a30057
:103b780006003a0022c2bf000038a30003003a0042
:103b880022c2bf000028a3000900320031118000c2
:103b9800b0408000014878002222a9002262a900d2
:103ba8002242a9001488ec00b04088000c003700bd
:103bb80031118000b040800001487800b140800099
:103bc8008100e800b140880050668000808f500076
:103bd80001003600b24088000621ef0011e1a8007c
:103be80022c2bf000008a300dfff3a008560a900d9
:103bf8004f0178004f00be00004006003600f80074
:103c0800809fbe00829fbe00849fbe00869fbe002c
:103c180010c0b3000ce8b70076de800004402d0029
:103c2800150020001a00370052de800063de800095
:103c3800910180009301880012407800910188006a
:103c48000080fb00201188000200d0002000b00096
:103c58004220a800e08049004220ae004200a800af
:103c68000080d30050de880061de880082de80009c
:103c7800810f51000300390004003a00800f5300ff
:103c88000200310054de880065de8800c03bed008c
:103c9800c01be2000400320023c2bf000018a300ca
:103ca800e1ff32000500370023c2bf000058a3001f
:103cb80004003a0023a2a80023e2a9008580a900f5
:103cc8000900370023a2a90023e2a8009580a900d3
:103cd8000c68ef00f40107000000e0000200320069
:103ce800cd22a9009560a8004f03be004f02be0078
:103cf8004f01be004f00be003600f900004006002c
:103d0800809fbe00829fbe0013e1a9008500a90024
:103d1800cc2cec0081668000736680000380e8008c
:103d280000815000808f5000020039001240880046
:103d380003003700004b20000000410010408800bd
:103d4800114080004808de008049780070668000d5
:103d58001140980081668000716688008491ed00aa
:103d6800808f50000200360040cd20007066880029
:103d7800ce8cec00806688000968ef004f01be0019
:103d88004f00be0000400600809fbe00821f7800e2
:103d980010c0b30009e8b70013e1a900c0cc2000a7
:103da8008040880042cd20001e00370032c2bf008c
:103db8000018a30006003a0032c2bf000038a30072
:103dc80003003a0032c2bf000028a30009003200f5
:103dd800b111800080668000014878003222a90075
:103de8003262a9003242a900ce8cec0080668800bd
:103df8000c003700b111800080668000014878000f
:103e0800816680008100e80081668800208c80003f
:103e1800808f500001003600826688000a21ef007a
:103e280013e1a80032c2bf000008a300dfff3a0078
:103e380087c0a9004f0178004f00be00004006006f
:103e4800809fbe00829fbe00849fbe00861f7800b0
:103e580010c0b3000de8b70006df800004002b0097
:103e6800150020001a003700e2de8000f3de800033
:103e78009101800093018800124078009101880028
:103e88000080fb00a01188000200d0002000b000d4
:103e98004220a800e08049004220ae004200a8006d
:103ea8000080d300e0de8800f1de880012df8000a9
:103eb800810f51000300390004003a00800f5300bd
:103ec80002003100e4de8800f5de8800d23bed0018
:103ed800d21be2000500320033c2bf000018a30065
:103ee800e1ff320087e0a9000200370097e0a9004f
:103ef8000d68ef004f0378004f02be004f01be006f
:103f08004f00be0000400600809fbe00829fbe009a
:103f18001fe1a9008760a9008631ec00518c800060
:103f2800438c80000380e80000815000808f50009f
:103f3800020039002240880003003700004b2000af
:103f48000000410020408800214080004808de0031
:103f580080497800408c800011409800518c800086
:103f6800418c88003e96ed00808f5000020036009c
:103f7800e0182100408c88008891ec00508c880063
:103f88000a68ef004f01be004f00be000040060067
:103f9800809fbe00821f780010c0b3000ae8b700f7
:103fa8001fe1a9006018210080408800e218210064
:103fb8001e00370052c2bf000018a30006003a00d6
:103fc80052c2bf000038a30003003a0052c2bf002b
:103fd8000028a30009003200b1128000508c800034
:103fe800014878005222a9005262a9005242a90051
:103ff8008891ec00508c88000c003700b1128000ca
:10400800508c800001487800518c80008100e800c5
:10401800518c8800f0b18000808f5000010036007c
:10402800528c88001421ef001fe1a80052c2bf0083
:104038000008a300dfff3a008e40a9004f01780076
:104048004f00be00004006003600f800809fbe000a
:10405800829fbe00849fbe00869fbe0010c0b30032
:104068000ee8b70096df800004c028001500200085
:104078001a00370072df800083df80009101800022
:104088009301880012407800910188000080fb00ad
:10409800a01288000200d0002000b0004220a80032
:1040a800e08049004220ae004200a8000080d30012
:1040b80070df880081df8800a2df8000810f510057
:1040c8000300390004003a00800f53000200310059
:1040d80074df880085df8800e43bed00e41be20024
:1040e8000400320053c2bf000018a300e1ff3200f1
:1040f8000500370053c2bf000058a30004003a006f
:1041080053a2a80053e2a9008e60a9000900370055
:1041180053a2a90053e2a8009e60a900ea00070084
:104128000000e00002003200f522a9009e40a8002d
:104138000e68ef004f03be004f02be004f01be00e5
:104148004f00be003600f90000400600809fbe0008
:10415800829fbe0021e1a9008780a9004036ec00bb
:1041680021b2800013b280000380e8000081500073
:10417800808f500002003900324088000300370069
:10418800004b200000004100304088003140800092
:104198004808de008049780010b28000114098007d
:1041a80021b2800011b28800f89aed00808f50008b
:1041b800020036008064210010b288004296ec00ac
:1041c80020b288000b68ef004f01be004f00be0010
:1041d80000400600809fbe00821f780010c0b30018
:1041e8000be8b70021e1a9000064210080408800a5
:1041f800826421001e003700b2c2bf000018a3006d
:1042080006003a00b2c2bf000038a30003003a001b
:10421800b2c2bf000028a30009003200b115800017
:1042280020b2800001487800b222a900b262a90039
:10423800b242a9004296ec0020b288000c00370078
:10424800b115800020b280000148780021b28000ba
:104258008100e80021b28800c0d78000808f50001c
:104268000100360022b288001821ef0021e1a800e1
:10427800b2c2bf000008a300dfff3a008f00a90008
:104288004f0178004f00be0000400600809fbe002e
:10429800829fbe00849fbe00861f780010c0b300b6
:1042a8000fe8b70026e08000048026000500200003
:1042b8001a00370002e0800013e0800091018000be
:1042c8009301880012407800910188000080fb006b
:1042d800a01588000200d0002000b0004220a800ed
:1042e800e08049004220ae004200a8000080d300d0
:1042f80000e0880011e0880032e08000810f510062
:104308000300390004003a00800f53000200310016
:1043180004e0880015e08800f63bed00f61be2009b
:1043280005003200b3c2bf000018a300e1ff32004d
:104338008f20a900020037009f20a9000f68ef0016
:104348004f0378004f02be004f01be004f00be0071
:1043580000400600889fbe008a9fbe008c1f780020
:1043680000047800814478000048eb00e3cf500057
:104378003f003e00e1cf500002003200e3cf500082
:1043880008003a000980fb004200dd00640050008c
:10439800a1af210060c0780000c0e900e24f5000e2
:1043a800330036000980fb004205dd00abaf210079
:1043b8006ac07d00e44f50002d003e00bcaf2100d4
:1043c8006a407e00ed4f500029003e00e1e62800db
:1043d8000800780041f2070011c3b30001c044008f
:1043e800204498006ac07d0062c0b3000440bc004d
:1043f800c1e2280081004100080078003ff2070070
:1044080031e72800080078003cf207006a407e0087
:10441800c2c0b3000440bc0041d82800810041005c
:104428000800780035f2070051e7280008007800f6
:1044380032f2070008007800dcf107006540500000
:104448000080fb008a80e80061c17d0002707c006a
:1044580000014400e1407e00214198006ac07d00cf
:10446800e24f500002003a0010c3b30040419800e8
:104478004f0678004f05be004f04be00000006003e
:10448800fedabf000080fb000000e9004f00de00fc
:104498000000060006dbbf000080fb000000e9000a
:1044a8004f00de00000006008000eb00fadabf00d3
:1044b80063405000e14f500001003e001100200011
:1044c80001007800000006008000eb0002dbbf005e
:1044d80063405000e14f500001003e0011002000f1
:1044e8000100780000000600889fbe008a9fbe0079
:1044f80021e2a90031e2a90051e2a900b1e2a90034
:1045080021c2bf00c1cfb3000140600021e2b70063
:1045180031c2bf000140600031e2b70051c2bf00a4
:104528000140600051e2b700b1c2bf000140600025
:10453800b1e2b7009560a90097c0a9009e40a90004
:104548009f00a9002342a9003342a9005342a900b1
:10455800b342a9009580a90097e0a9009e60a90030
:104568009f20a90002dbbf00010032000040e900e3
:104578004201dd00a1af2100914078000104e00074
:1045880002003a0001407800010037000140e900cc
:10459800004041000084fb0088004400e0e428005b
:1045a800610078004500de0063006000030032000f
:1045b800e10f500020003a000d003700a5c6bf00eb
:1045c80001ccb30001406000a5e6b700a6c6bf0055
:1045d800014060000034a000a6e6b700c9c6bf00cd
:1045e800014060005040b300c9e6b7001e00370024
:1045f800a6c6bf0001ccb30001406000a6e6b70024
:10460800a5c6bf00014060000034a000a5e6b700c1
:10461800c9c6bf00014060000024a000c9e6b70079
:1046280021c2bf00c1cfb300014060000014a00048
:1046380021e2b7000c003700a5c6bf0001ccb300cb
:1046480001406000a5e6b700a6c6bf0001406000b3
:10465800a6e6b700c9c6bf0001406000c9e6b700ba
:10466800cd22a900c922a90088004400e0e428005e
:10467800610078004300de00630060000300320040
:10468800e10f500020003a000d003700abc6bf0014
:1046980001ccb30001406000abe6b700b6c6bf006e
:1046a800014060003041b300b6e6b700dbc6bf008a
:1046b80001406000e041b300dbe6b7001e003700b0
:1046c800b6c6bf0001ccb30001406000b6e6b70033
:1046d800abc6bf00014060003041b300abe6b70095
:1046e800dbc6bf0001406000d041b300dbe6b70085
:1046f80051c2bf00c1cfb300014060000014a00048
:1047080051e2b7000c003700abc6bf0001ccb300c4
:1047180001406000abe6b700b6c6bf0001406000cc
:10472800b6e6b700dbc6bf0001406000dbe6b700b5
:10473800f522a900f122a90088004400e0e428003d
:1047480061017800c210de00e1c06000c208dd002f
:10475800e4c2bf000024a10001407000e4e2b700f9
:104768008200d100e1c0600081c04000e4c2bf0007
:104778000014a10001407000e4e2b700614161004b
:10478800e4c2bf000004a10002407000e4e2b700e8
:10479800b9af21009944780009407800c2c0b3003d
:1047a8000440bc00c0d82800000141001205be002a
:1047b8004259dd00ce51de00830171004251dd0017
:1047c80000402200410f2000a8ef07000000e90088
:1047d800401188002062a800c1af210091407800f4
:1047e80022002000f0c4b30080cf50000400320043
:1047f80051c4b2000180fb000000e9004f01de0057
:104808000241410020c2bf0091cfb30001406000c7
:104818000240700020e2b700fd5aec00e140600061
:1048280020c2bf000004a1000140700020e2b700d0
:10483800ffdabf00c2c0b3000440bc00c0d82800e3
:10484800000141001201be00c218dd00ce11de00d9
:10485800838170004211dd0000402200410f2000da
:1048680082ef07000000e900c01188003062a8004c
:1048780001b021009140780022002000f0c4b3006c
:1048880080cf50000400320051c4b2000180fb0008
:104898000000e9004f01de000241410030c2bf00c4
:1048a80091cfb300014060000240700030e2b700d1
:1048b800015bec00e140600030c2bf000004a100d1
:1048c8000140700030e2b70003dbbf00c2c0b30094
:1048d8000440bc00c0d82800000141001201be00fd
:1048e8004218dd00ce11de00830170004211dd00a8
:1048f80000402200410f20005cef07000000e900a3
:10490800c01288005062a80041b021009140780090
:1049180022002000f0c4b30080cf50000400320011
:1049280051c4b2000180fb000000e9004f01de0025
:104938000241410050c2bf0091cfb3000140600066
:104948000240700050e2b700055bec00e1406000f7
:1049580050c2bf000004a1000140700050e2b7003f
:1049680007dbbf00c2c0b3000440bc00c0d82800a9
:10497800000141001201be00c218dd00ce11de00a8
:10498800838170004211dd0000402200410f2000a9
:1049980036ef07000000e900c0158800b062a800e3
:1049a80081b021009140780022002000f0c4b300bb
:1049b80080cf50000400320051c4b2000180fb00d7
:1049c8000000e9004f01de0002414100b0c2bf0013
:1049d80091cfb3000140600002407000b0e2b70020
:1049e800095bec00e1406000b0c2bf000004a10018
:1049f80001407000b0e2b700e5cf54000300360074
:104a08000171220050f92700060037000a01be0094
:104a180080f02a00f102200014ef070080007800df
:104a280050fb27002cf0070094e0a800ffdabf0035
:104a3800e54f50000300360001712200d0f927002d
:104a48000a003700c2c0b3000440bc00c0d8280028
:104a5800000141001201be0080f02a00f10220008e
:104a680002ef070080007800d0fb27001ff0070046
:104a78009500a80003dbbf00e54f50000300360097
:104a88000171220050f927000a003700c2c0b300a4
:104a98000440bc00c0d82800000141001201be003b
:104aa80080f02a00f1022000f0ee07008000780074
:104ab80050fb270011f007009760a800b0af210055
:104ac80051c0b30090cf10000300360001712200de
:104ad800d0f927000b00370003dbbf00c2c0b300ca
:104ae8000440bc00c0d82800000141001201be00eb
:104af80080f02a00f1022000dcee07008000780038
:104b0800d0fb270001f007009780a80008004400a8
:104b1800e1e428006080780000a8a30003003200c8
:104b280010002000fa5ae20001003a000000eb00f1
:104b3800c700dd0021c2bf000074a1000140700061
:104b480021e2b70021c2bf000080fb004700de0061
:104b58004200dd0031222000914078000124a100ac
:104b680080c070000100780023e2b70021c2bf00b6
:104b78000080fb004700de004300dd0051092000f3
:104b8800914078000134a10080c0700001007800d5
:104b980095e0b70088004400e0e428006100780050
:104ba8000098a3000300320010002000fe5ae20023
:104bb80001003a000000eb00c700dd0031c2bf0071
:104bc8000074a1000140700031e2b70031c2bf009b
:104bd8000080fb004700de004200dd00312320009a
:104be800914078000124a10080c070000100780085
:104bf80033e2b70031c2bf000080fb004700de008f
:104c08004600dd0071092000914078000164a10090
:104c180080c070000100780097e0b7008800440069
:104c2800e0e42800610078000088a3000300320057
:104c380010002000025be20001003a000000eb00d7
:104c4800c700dd0051c2bf000074a1000140700020
:104c580051e2b70051c2bf000080fb004700de00f0
:104c68004200dd0031252000914078000124a10098
:104c780080c070000100780053e2b70051c2bf0045
:104c88000080fb004700de004200dd00e109200053
:104c9800914078000124a10080c0700001007800d4
:104ca8009ee0b70088004400e0e428006100780036
:104cb8000078a3000300320010002000065be20029
:104cc80001003a000000eb00c700dd00b1c2bf00e0
:104cd8000074a10001407000b1e2b700b1c2bf008a
:104ce8000080fb004700de004200dd00312b200081
:104cf800914078000124a10080c070000100780074
:104d0800b3e2b700112b2000914078008180fb00ae
:104d1800c708de009fc0bf000004a100014070006a
:104d28009fe0b700abfa07004f05be004f04be0076
:104d3800000006001c00fa00889fbe008a9fbe0083
:104d48008c1f78006e8157000089be0076054000f0
:104d5800a10320000a007800f4ef0700800578001e
:104d68000000e000870032008a045000e48f5400fd
:104d780084003e00e0fd2f00008447000901780010
:104d88008a00780008007800bdef07000884440016
:104d9800004ceb000004eb00c9e22800e1fd2f0005
:104da80001864700890078000c007800e7ef0700cb
:104db800000578000000e000050032000804e80063
:104dc800e6844400e50f54006e003200f3ff37001c
:104dd800a8df9f008b04e800a103200009007800e9
:104de800d2ef0700800578000000e000650032007f
:104df80009045000e60f540062003e0008017800e4
:104e0800890078000c0078009def07000a747e0086
:104e18000a04780049d8280089007800e2fd2f00ac
:104e280002804700c9ef07000000e00005003200db
:104e38000804e800ec844400ee0f540051003200ee
:104e4800f5ff3700b8df9f000b01e80080c3b3000f
:104e5800924f10004b003a009241900000c0e800c9
:104e680080cf510047003a00b240900083cf5000f5
:104e780044003a0052409000814f500041003a00ef
:104e880072409000eb4f40003e003a00024890000c
:104e9800eb4f40003b003a00a241900020cbb3000a
:104ea80000c04100e14f50000300360050c4b30079
:104eb80080cf510033003a0042409000f1ccb3005b
:104ec80001404000e14f50002e003e00624090003b
:104ed8008140e80001404000e14f500029003e00b9
:104ee800c3df9f0042409000d0df9f00e240900067
:104ef80010c3b30080cf500005003a00011620000f
:104f08002fd99700e14f51007f003a007300370016
:104f1800ee8057001100be000004d0004802b00027
:104f28004220a800e08448004220ae004200a800c9
:104f38000884d3000805780032002000e1e7280043
:104f48000800780026ef0700800578000000e000e0
:104f5800060032003200200021e82800080078000e
:104f68001fef07000000e0005f003a002fd997000c
:104f780002c0e900f1152000e24f5000620036003f
:104f880059003700510020005f0037000b00e00097
:104f980002003a0019c0b3000f00370032002000a9
:104fa80061e828000a0078000def07000000e00023
:104fb80002003a0029c0b300070037003200200081
:104fc80021e828000a00780005ef07000000e0004b
:104fd80001003a0039c0b300094478000804a2006f
:104fe8003200200061e828000a007800fcee070083
:104ff8000000e00009003a00afd8970063c05000f5
:10500800e14f500005003e00fadabf00634050004f
:10501800e1152000e14f50003b003e000982fb00f3
:105028004220dd00a3af210060c0790000c0e90084
:10503800e24f50000f003e002fd99700e14f51007a
:105048000c003e000880fb004200dd00b2af2100ea
:1050580061c0b3000170790011c0b30001f079009c
:105068000080e800e1c4b30001f07900fdc0500001
:10507800017079004220dd00a2af21006040790074
:10508800e14f500008003e00afd8970001c0e9008a
:10509800e24f500004003e000880fb004200dd00a3
:1050a8008040eb00017079000980fb004200dd00c0
:1050b800a1af210001004000a2fd2f000f01410017
:1050c80003000900325878004000b1004200b100e6
:1050d80005fd07008000eb000b00370020c0b3007f
:1050e800a0df9f008aff370032002000a1e82800d7
:1050f8000a007800baee07000000e000a3ff3a00bb
:1051080080447800b4ff3700010078004f0678002b
:105118004f05be004f04be000080fa0000000600e4
:105128001600fa00008fbe00220798002e0090009b
:105138000000e00056003a001e00be00840f020086
:10514800000000002007980051003700c4dd8000ef
:10515800d5dd80001e00be009301800001017800ab
:10516800920188001040780093018800004378007d
:105178000400be00a301800001017800a20188009c
:1051880006487800a30188000400d0002000b00081
:105198004220a800e0804a004220ae004200a80059
:1051a8000080d300c0dd8800d1dd88001e00be006d
:1051b8000000d0002000b0004220a800e080480095
:1051c8004220ae004200a8000080d300008fbe003d
:1051d800c0dd8000d1dd8000720147000089be007b
:1051e80003802f007307980014002000040f980014
:1051f800f0ff2000110020006e0147001201be00e0
:105208000202d0008002d000050142004220a8001e
:10521800818149004200a9004220ae004200a80056
:105228000281d3006e024700028abe006e0047006a
:105238001000be006a0147000089be00ae08900059
:105248006e019000828f500009003e00ae09900068
:105258006e029000848f51000d003a009e0a900063
:105268005e009000808f520001003e000800370069
:1052780001802f0031079800120020004207980093
:10528800e60247001502be00c4dd8800d5dd8800af
:105298002e0090000000e900200798002e009000e2
:1052a800e10f4000a9ff3a000080fa000000060064
:1052b8001400fa00300798003e009000da0502005a
:1052c800000000002007980070de800081de80006a
:1052d8000001780030de800041de800000005100cf
:1052e8000000e800100798009e0090002e00900033
:1052f800808f5000050036000000eb00000f78009a
:105308002e0090001007980035003700ae0090007e
:105318001e009000008f50003100370034de8000fe
:1053280045de80003e009000104378000400be0077
:10533800a301800001017800a201880006487800d6
:10534800a30188000400d0002000b0004220a8007b
:10535800e0804a004220ae004200a8000080d3004e
:1053680030de880041de88003e0090000000e80042
:105378003007980030de800041de80007001470071
:105388000089be0070de800081de80006c0147006d
:105398000089be001e089000fe009000810f50009a
:1053a80009003e001e0990007e009000800f510009
:1053b8000b003a008e0890006e019000828f50001a
:1053c80001003e000600370000402d00cf00de003f
:1053d8000000780000f0a10030de880041de88007f
:1053e8001e0090000000e900100798001e009000c1
:1053f800e10f4000c9ff3a001e00e0002300320020
:1054080000402d0040079800110020005107980027
:10541800e80047001100be0030de880041de880049
:105428001600370034de800045de80003e00900024
:10543800104378000400be00a30180000101780039
:10544800a201880006487800a30188000400d00063
:105458002000b0004220a800e0804a004220ae00b0
:105468004200a8000080d30030de880041de8800ba
:105478003e0090000000e800300798001e0fe90089
:105488000081eb009e0f1100e6ff3a00720f020048
:105498000000000000de8000ae0090000100400027
:1054a80000de88007a0f0200000000000080fa0089
:1054b800000006001400fa00300798003e00900033
:1054c800da050200000000002007980000df8000d5
:1054d80011df800000017800c0de8000d1de80008e
:1054e800000051000000e800100798009e0090009e
:1054f8002e009000808f5000050036000000eb0061
:10550800000f78002e009000100798003500370033
:10551800ae0090001e009000008f50003100370050
:10552800c4de8000d5de80003e0090001043780085
:105538000400be00a301800001017800a2018800d8
:1055480006487800a30188000400d0002000b000bd
:105558004220a800e0804a004220ae004200a80095
:105568000080d300c0de8800d1de88003e009000b5
:105578000000e80030079800c0de8000d1de80001f
:10558800700147000089be0000df800011df800045
:105598006c0147000089be001e089000fe009000c4
:1055a800810f500009003e001e0990007e00900007
:1055b800800f51000b003a008e0890006e01900099
:1055c800828f500001003e000600370000002b00cb
:1055d800cf00de000000780000f0a100c0de8800e7
:1055e800d1de88001e0090000000e9001007980036
:1055f8001e009000e10f4000c9ff3a001e00e000c5
:105608002300320000002b00400798001100200002
:1056180051079800e80047001100be00c0de88006e
:10562800d1de880016003700c4de8000d5de800099
:105638003e009000104378000400be00a3018000e3
:1056480001017800a201880006487800a3018800bb
:105658000400d0002000b0004220a800e0804a00ea
:105668004220ae004200a8000080d300c0de8800bf
:10567800d1de88003e0090000000e8003007980066
:105688001e0fe9000081eb009e0f1100e6ff3a00b3
:10569800720f02000000000090de8000ae00900053
:1056a8000100400090de88007a0f02000000000030
:1056b8000080fa00000006001400fa003007980085
:1056c8003e009000da050200000000002007980064
:1056d80090df8000a1df80000001780050df8000ab
:1056e80061df8000000051000000e800100798000a
:1056f8009e0090002e009000808f5000050036001c
:105708000000eb00000f78002e00900010079800b2
:1057180035003700ae0090001e009000008f50004a
:105728003100370054df800065df80003e009000c4
:10573800104378000400be00a30180000101780036
:10574800a201880006487800a30188000400d00060
:105758002000b0004220a800e0804a004220ae00ad
:105768004200a8000080d30050df880061df880075
:105778003e0090000000e8003007980050df8000ed
:1057880061df8000700147000089be0090df800063
:10579800a1df80006c0147000089be001e08900050
:1057a800fe009000810f500009003e001e09900085
:1057b8007e009000800f51000b003a008e08900088
:1057c8006e019000828f500001003e0006003700f5
:1057d80000c02800cf00de000000780000f0a10023
:1057e80050df880061df88001e0090000000e9009b
:1057f800100798001e009000e10f4000c9ff3a0012
:105808001e00e0002300320000c028004007980076
:105818001100200051079800e80047001100be0061
:1058280050df880061df88001600370054df8000f1
:1058380065df80003e009000104378000400be0041
:10584800a301800001017800a201880006487800c1
:10585800a30188000400d0002000b0004220a80066
:10586800e0804a004220ae004200a8000080d30039
:1058780050df880061df88003e0090000000e800eb
:10588800300798001e0fe9000081eb009e0f110001
:10589800e6ff3a00720f02000000000020df8000df
:1058a800ae0090000100400020df88007a0f02005f
:1058b800000000000080fa00000006001400fa0052
:1058c800300798003e009000da0502000000000052
:1058d8002007980020e0800031e080000001780077
:1058e800e0df8000f1df8000000051000000e800e8
:1058f800100798009e0090002e009000808f5000a6
:10590800050036000000eb00000f78002e00900024
:105918001007980035003700ae0090001e00900078
:10592800008f500031003700e4df8000f5df800091
:105938003e009000104378000400be00a3018000e0
:1059480001017800a201880006487800a3018800b8
:105958000400d0002000b0004220a800e0804a00e7
:105968004220ae004200a8000080d300e0df88009b
:10597800f1df88003e0090000000e8003007980042
:10598800e0df8000f1df8000700147000089be0081
:1059980020e0800031e080006c0147000089be00f3
:1059a8001e089000fe009000810f500009003e0084
:1059b8001e0990007e009000800f51000b003a00f5
:1059c8008e0890006e019000828f500001003e000a
:1059d8000600370000802600cf00de0000007800b7
:1059e80000f0a100e0df8800f1df88001e009000d1
:1059f8000000e900100798001e009000e10f400029
:105a0800c9ff3a001e00e000230032000080260093
:105a1800400798000100200051079800e80047005f
:105a28001100be00e0df8800f1df880016003700b3
:105a3800e4df8000f5df80003e009000104378002e
:105a48000400be00a301800001017800a2018800c3
:105a580006487800a30188000400d0002000b000a8
:105a68004220a800e0804a004220ae004200a80080
:105a78000080d300e0df8800f1df88003e0090005e
