:020000040000fa
:080000000002040000000000f2
:020000040000fa
:100008009c0200009c0200009c0200009c02000070
:100018009c0200009c0200009c0200009c02000060
:100028009c0200009c0200009c0200009c02000050
:100038009c0200009c0200009c0200009c02000040
:100048005a1200009c020000aa1700009c0200003f
:100058009c0200009c0200009c0200009c02000020
:100068009c0200009c0200009c020000b8130000e3
:100078009c0200009c0200009c0200009c02000000
:100088009c0200009c0200009c0200009c020000f0
:100098009c0200009c0200009c0200009c020000e0
:1000a8009c0200009c0200009c0200009c020000d0
:1000b8009c0200009c0200009c0200009c020000c0
:1000c8009c0200009c0200009c0200009c020000b0
:1000d8009c0200009c0200009c0200009c020000a0
:1000e8009c0200009c0200009c0200009c02000090
:1000f8009c0200009c0200009c0200009c02000080
:100108009c0200009c0200009c0200009c0200006f
:100118009c0200009c0200009c0200009c0200005f
:100128009c0200009c0200009c0200009c0200004f
:100138009c0200009c0200009c0200009c0200003f
:100148009c0200009c0200009c0200009c0200002f
:100158009c0200009c0200009c0200009c0200001f
:100168009c0200009c0200009c0200009c0200000f
:100178009c0200009c0200009c0200009c020000ff
:100188009c0200009c0200009c0200009c020000ef
:100198009c0200009c0200009c0200009c020000df
:1001a8009c0200009c0200009c0200009c020000cf
:1001b8009c0200009c0200009c0200009c020000bf
:1001c8009c0200009c0200009c0200009c020000af
:1001d8009c0200009c0200009c0200009c0200009f
:1001e8009c0200009c0200009c0200009c0200008f
:0801f8009c0200009c020000c3
:020000040000fa
:100208009c0200009c0200009c0200009c0200006e
:100218009c0200009c0200009c0200009c0200005e
:100228009c0200009c0200009c0200009c0200004e
:100238009c0200009c0200009c0200009c0200003e
:100248005a1200009c020000aa1700009c0200003d
:100258009c0200009c0200009c0200009c0200001e
:100268009c0200009c0200009c020000b8130000e1
:100278009c0200009c0200009c0200009c020000fe
:100288009c0200009c0200009c0200009c020000ee
:100298009c0200009c0200009c0200009c020000de
:1002a8009c0200009c0200009c0200009c020000ce
:1002b8009c0200009c0200009c0200009c020000be
:1002c8009c0200009c0200009c0200009c020000ae
:1002d8009c0200009c0200009c0200009c0200009e
:1002e8009c0200009c0200009c0200009c0200008e
:1002f8009c0200009c0200009c0200009c0200007e
:100308009c0200009c0200009c0200009c0200006d
:100318009c0200009c0200009c0200009c0200005d
:100328009c0200009c0200009c0200009c0200004d
:100338009c0200009c0200009c0200009c0200003d
:100348009c0200009c0200009c0200009c0200002d
:100358009c0200009c0200009c0200009c0200001d
:100368009c0200009c0200009c0200009c0200000d
:100378009c0200009c0200009c0200009c020000fd
:100388009c0200009c0200009c0200009c020000ed
:100398009c0200009c0200009c0200009c020000dd
:1003a8009c0200009c0200009c0200009c020000cd
:1003b8009c0200009c0200009c0200009c020000bd
:1003c8009c0200009c0200009c0200009c020000ad
:1003d8009c0200009c0200009c0200009c0200009d
:1003e8009c0200009c0200009c0200009c0200008d
:0803f8009c0200009c020000c1
:020000040000fa
:100400000fd421000e7f22000e01880000000000a2
:1004100000012000200288000c000700e0cb210032
:100420000100200011000700000020000000e00093
:100430000200320000000200000000003e1b02002b
:10044000000000000040da000000fe004440a90067
:10045000a00320000000e0000300320000002000a4
:10046000a00188004440a800000006009101880017
:10047000800078000000eb0015003700e2804000ab
:1004800032a0b4009101ba00e280400032a0b40072
:100490009102ba00e280400032a0b4000002eb00fa
:1004a000472bde00f507b200602ce10004003a00a3
:1004b0000059eb008301e900fdff3e000400370016
:1004c0006128e100010032000082eb000400070017
:1004d0001101ba000200e000e8ff3a000000060047
:1004e0003159ba008301e9000c0032002159ba00e9
:1004f0008301e900080032000400e00003003a0034
:10050000e280400032a0b400f5ff370011d9ba00f4
:100510008301e900faff3a008100e800e180400031
:1005200032a0b4000000060000000000000000003f
:1005300000000000000000000040da000000fe00a3
:10054000e68747008e1f7800d0bf9f006687570060
:10055000012f78000e0037005fbb9700164078002f
:10056000efba9700154278000201e900844f50006d
:10057000040032000080fb000482fb0004005000f5
:10058000060037000603e800d6bf9f00050fe8000d
:10059000e00f5100f0ff3a00020078004f077800aa
:1005a0006f00b10000000600000278000200370072
:1005b000315a78000201e900e00f5100fcff3a00d7
:1005c00000000600000278008042eb00b4cf120069
:1005d000fdff3a000080ea00000042000000060033
:1005e0000b00370030427800e04f52000300320029
:1005f0000201e900b14f5200050032000480fb0007
:10060000954278008582fb0005005000000006003e
:1006100081027800e00f5100f2ff3a0002007800fa
:10062000000006000c00fa00889fbe00000478005d
:10063000f4ff2700d4bf9f008004eb0099bf9f0008
:1006400088bf9f00a8bf9f00240c2000b4bf9f005c
:1006500078815700cfb097007080570007000700df
:100660000fba9700094a78000fba970008005200a5
:100670004f04be000080fa00000006002f03b00007
:10068000889fbe008a9fbe008c9fbe008e1f780090
:10069000e0af9f00c1af9f00b2b79f008006eb00a4
:1006a0006e023700cfa897008100e800c1af9f001d
:1006b00054c2b300844f500006003a000102780093
:1006c0000006eb0001c3b30000c2b300b7c2b30021
:1006d000070037000000fb00efa897006b0207003f
:1006e000e10f40005d0232008d06e8005b0237003a
:1006f0008402780034437800d2c2b300824f5300a2
:100700000900320005003c00804f53000800320011
:10071000874f53000c003a0007003700814f530009
:1007200009003a00060037000c30a000f0ff370047
:100730000c00a000eeff37000c10a000ecff37000b
:100740000c20a000eaff37006202660001003200c0
:100750000c00a10068026600010032000c20a1001c
:100760000602fb000403b100e90f52000c003e003a
:10077000050378000002eb006a22b900b603fb0013
:100780000703b10004824300860278009603fb0051
:100790000703b100e98f5300f7ff36000800370068
:1007a0000002eb00a7c2b300874f530004003a00d9
:1007b000bfb1970043027800b3b79f008502e800fd
:1007c0000007eb00e6c2b300954f13000a003a00a1
:1007d0000ce0a00064435300d54f13000200320028
:1007e00005037800080037003fb3970046077800fc
:1007f000b6b79f008502e8000503780008003700bf
:100800006a70b9000087430086027800b603fb00d7
:100810000703b100e98f5300f9ff3600f6ff3700f8
:10082000b6427800c6af9f00c0c6b30080cf52006a
:10083000250032000f003c0036c6b30086cf5200c0
:100840006e00320004003c00e0cf5200080232008b
:100850006b4353000f00370046c6b30086cf5200eb
:10086000170032006543430086cf520083003a00f0
:100870001300370036c7b30086cf52001f00320086
:1008800007003c006443530086cf5200140032003e
:100890000643e80086cf520078003a001300370084
:1008a00056c7b30086cf520079003200634343003d
:1008b00086cf520071003a00a5c79f000d00370097
:1008c000a5c79f0074003700f003660005012000f3
:1008d000010032000500280005067600d0ff370031
:1008e000a5c79f000c60a0006b003700a5c79f0044
:1008f0000c50a0000c70a00067003700a5c79f0037
:10090000bfb09700c1027800b1b79f00050478001e
:10091000e08f520001003a00a8d0210008037800bf
:100920008002eb00010037008502e800e6c37a0090
:10093000e0cf5300fcff3a0085047800e00f570039
:1009400003003200890f5700010031008e04780047
:100950000007eb00890f5200010036000907520022
:100960006806660014003a0007003700efa89700f9
:1009700000022000c5010700e10f40000100320025
:100980008d06e8000e07e900e00f5700f7ff3a0078
:100990000087eb0008003700080278003400fb00f5
:1009a00004047800efa89700b8010700e10f4000a9
:1009b000010032008d06e800090278008404e90095
:1009c000e00f5200f4ff3a00e00f5600a30132009e
:1009d00007003700efa8970000022000ab010700d6
:1009e000e10f4000010032008d06e8000e07e9002b
:1009f000e00f5700f7ff3a00980137003fb197002a
:100a0000c2027800b2b79f0005007800cf80de00f8
:100a10000101780082017800f0af9f0081b79f004c
:100a200092b79f00a3b79f004800de00c80add0010
:100a300000807200a0c79f007003660009003200aa
:100a4000e04f500007003200e14f40000500320047
:100a5000b0c79f006fdb9700c6c79f00290020002a
:100a600003003700efdb9700b7c79f001900200095
:100a700038fc2f000f044400b0ff3700a5c79f00cb
:100a800028fc2f000f04440019002000abff3700a2
:100a9000a5c79f000c0cb3008c027800050cb200b7
:100aa0002b003a00e00f560005003d003fb09700d4
:100ab0004005be004004be00b0b79f0017003700dd
:100ac000f00266000f003200bfb297004501be0081
:100ad000b5b79f00c2a79f00d3a79f00050378006a
:100ae00096029000cfaade00e5a79f00f5a79f0021
:100af0004fa49700dfa497006fa59700ffa597006c
:100b0000060037003fb0970040047800b0b79f0060
:100b1000cfc4de00090578008a057800e00f540094
:100b2000e08f5c00e00f5d00e08f5d0025003d0080
:100b30003c00b3006000b8006011b8000804500029
:100b4000898458000a0559008b8559001d0037001b
:100b5000e00f560005003d00bfb097004105be0004
:100b60004104be00b1b79f0016003700f0026600d6
:100b70000e003200bfb297004501be00b5b79f001e
:100b800082af9f0093af9f000003eb00a6af9f00d2
:100b90008003eb00b7af9f000fac97009fac9700ae
:100ba0002fad9700bfad9700060037003fb097000c
:100bb00040047800b0b79f00090020000a00200020
:100bc0000b002000e00f570007003a001e00200035
:100bd000e00f5400e08f5c00e00f5d00e08f5d00ef
:100be000010032000007eb008c007800010cb2001d
:100bf000f1af9f0005042000858f50002c003200cb
:100c000003003c00e08f5000080032003c00370039
:100c1000050820007fa99700850f510010003200c1
:100c2000050c2000850f510035003a0006c5210053
:100c300015c0b3003600be003601be000040e10022
:100c400001c8e10002d0e10003d8e1002b00390027
:100c50008542e800f4cf5200f6ff3a002700370043
:100c600015c0b30000012000010020006011b80091
:100c70000040e10001c8e10002d0e10003d8e1003a
:100c80001e003900460020000000d0008180d20004
:100c90000281d2008381d2000603e900faff3a0004
:100ca0008542e800f0cf5200f1ff3a001300370010
:100cb00015c0b30080002000010020006011b800c2
:100cc0000040e10001c8e10002d0e10003d8e100ea
:100cd0000a003900370020000000d0008180d200d7
:100ce0000281d2008381d2008703e900faff3a0033
:100cf0008542e800f5cf5200f1ff3a00a5c79f00fa
:100d00002fc097008002fb008e8f520002003d0032
:100d1000aec79f0003003700850f570001003d005c
:100d200005077800e00f520003003200e30266007e
:100d3000010032000402e90005002400850266007b
:100d4000050032008e0f5200020034000e025200e5
:100d5000010037000002eb002fc197008202fb0068
:100d60008001eb00d3af9f00850f520002003400da
:100d700085025200d5af9f00640266002c0032004d
:100d8000e202660061026600e08f52000600320057
:100d9000b0022000e00f5200010032000080e800a5
:100da000efa8970004003700e00f52000600320061
:100db000efa8970000022000b4000700e10f4000f8
:100dc000010032008d06e8005faa9700e00f520094
:100dd0008d0032000802be000a03be00dfac97009f
:100de000efa8970000032000c4b79f00d5b79f006d
:100df000e6b79f00f7b79f00a40007004fb2970027
:100e0000dfb297006fb39700ffb39700e10f400088
:100e1000010032008d06e8008904e900f0ff3a0085
:100e2000d9af9f000605be000404be00760037005f
:100e3000dfaa9700e08f52001800320068026600b7
:100e400016003a000802be000a03be00dfac97009d
:100e5000efa8970000022000c4b79f00d5b79f00fd
:100e6000e6b79f00f7b79f00880007004fb29700d2
:100e7000dfb297006fb39700ffb39700e10f400018
:100e8000010032008d06e8008904e900f0ff3a0015
:100e9000d9af9f000605be000404be00e202660052
:100ea00061026600e08f520006003200b0022000ae
:100eb000e00f5200010032000080e800efa8970028
:100ec00004003700e00f52004f003200efa89700f7
:100ed000000220006d000700e10f40004a003200d0
:100ee0008d06e800480037000e07e9007fab970049
:100ef00007042000870f53002d00320003003c0040
:100f0000e00f5300080032003700370004082000cb
:100f10007fae9700840f560012003200040c2000b0
:100f2000840f560030003a004372dd0080c4210077
:100f3000000242005403be004402be000800be008e
:100f40000a01be00b4010700a40020000500200033
:100f50006033b800b701070004c3b3000442400087
:100f60002000370094cf2100bfa29700e08f5200ed
:100f70000100320084ce2100c272dd000800be00f4
:100f80000a01be008502e900050033008301d1009b
:100f90000281d3008180d3000080d300f9ff3700a5
:100fa0006f00600064407800a0c79f000e0037000b
:100fb0006372b9000800be000a01be000406780092
:100fc0000c06e900050033008301d1000281d30043
:100fd0008180d3000080d300f9ff370067426000b2
:100fe0000443b000a4c79f00afc097000100fb00fe
:100ff000efa8970025000700e10f4000060032002f
:101000008d06e800040037000c0178000202b200ef
:10101000b2a79f008cbf9f00e00f5700b2ff3a00bd
:101020000fbe9700680666000c003200dfa997002b
:10103000e08f51000900340003067800efa8970004
:101040000002200011000700e10f40000100320003
:101050008d06e8000c06e900f8ff3a004faa970059
:1010600014407800a0c79f00e04f50008dfd3a006b
:101070000d0078004f0778004f06be004f05be00f8
:101080004f04be002f03b10000000600889fbe0081
:101090000104780038029000e20262008084eb00d4
:1010a0003b003200040378000620b2009802900052
:1010b00002003a00e08f520035003a000490a00090
:1010c0003404980080047800f90fb200e08f5200d9
:1010d00002003a00a8029000050c7800ea8f540044
:1010e00005003a000408b20003003a0088007800c6
:1010f000d0002000e5ff070018029000d802900001
:10110000850f52000b0032000402e800140498001e
:1011100018027800094a7800040ce80015c0b300f2
:1011200084d32100054a7800ea8f540018003a0061
:101130000500370088007800094078001700070094
:101140008004780012003700380290000410b200ca
:101150000f00320018019000a80090004800900095
:101160005200070018029000840f50000400320063
:10117000380290000403b300340498008084eb002c
:101180000002eb001404980028029000040c780080
:10119000090078004f04be00000006000200fa00bb
:1011a000889fbe00a0ff9f000104780038029000d5
:1011b000840278000504b200020032000000fb0047
:1011c00035003700e202620005003a000403b30074
:1011d00034049800150498000080eb002e003700be
:1011e000d8049000e08f540006003a00120020005e
:1011f000e6805700480090002c0007001904980072
:1012000023003700a8029000e08f520008003a0047
:10121000b5d3210025049800050c78002500200096
:1012200055049800150498000430a0003404980078
:1012300018019000a8009000480090001b000700d3
:10124000280290008082eb0015049800affa970006
:10125000054a7800040ce8002ffa9700ea4f520084
:101260000b003a00380290000410b200080032006f
:1012700018019000a8009000480090000b000700a3
:101280000002eb0014049800a8029000050c7800fe
:101290002ffa97000400fb004f04be000080fa0004
:1012a0000000060000c0da00000006000a00fa0094
:1012b000e20f500022003e00f4e98000e10f5200ee
:1012c000060032008723200046232000242320002c
:1012d00005232000e08f530004003a0087222000fd
:1012e00046222000242220000522200000002800a1
:1012f0001500600003003a00800b7800070028000a
:10130000958a7300054020009482620001003a0033
:1013100014a0a00082027800060037009403780031
:101320000710b200fdff3200b103fb00070b78008d
:101330008502e900e08f5200f8ff3a00080037000c
:1013400034002000b4bf9f00c0bf9f00d1bf9f00ea
:10135000e2bf9f006a805700d2ff07006fb9970075
:10136000020078000080fa0000000600889fbe009e
:101370008a9fbe003004be002005be000404440065
:1013800085844c0006054d0087854d000898be00f9
:101390000a90be000440e10005c8e10006d0e1006b
:1013a00007d8e10002003100680040001008e800a2
:1013b0004f05be004f04be00000006001000fa00fa
:1013c000889fbe008a9fbe000605be000404be00c2
:1013d0003002be002003be00c4b79f00d5b79f00f7
:1013e000e6b79f00f7b79f000802520089825a00b3
:1013f0000a035b008b835b0084bf9f0095bf9f0047
:10140000a6bf9f00b7bf9f000498be000698be000d
:10141000110020004fb29700dfb297006fb3970022
:10142000ffb397000820e10009a8e1000ab0e1003d
:101430000bb8e100010039008000eb0010881000bb
:101440004f05be004f04be000080fa0000000600f9
:101450001400fa00889fbe008a9fbe008c9fbe00c9
:101460003f0007000605be000404be000006eb00b6
:10147000ccb79f00bcb79f00acb79f009cb79f0044
:101480008cb79f000d0420004fb39700bfb29700a8
:10149000860343002fb29700e00f530004003d0085
:1014a0003d0007000f004000b0ff070003003700b9
:1014b000390007000f004000c0ff0700cfb29700bf
:1014c00095bf9f00e08f5200090035002b000700f8
:1014d00014002000050020006033b80000007200f6
:1014e0008180720002017300838173001c00070079
:1014f0000c06e8008d0f5600e3ff3a001fba970074
:10150000e00f520005003d000802be000a03be00c5
:1015100000fe2f000f00400094ff07004faa970025
:10152000e00f520008003a000fb497009fb49700f4
:101530002fb59700bfb59700d8b79f00e9b79f00b8
:10154000fab79f008bbf9f000c0007004f06be003c
:101550004f05be004f04be000080fa0000000600e8
:10156000010007000000060090b79f00a1b79f0090
:10157000b2b79f00c3b79f0000000600010007003c
:10158000000006001fb09700afb097003fb1970072
:10159000cfb19700000006004f2bde0087037300d9
:1015a000a7b79f004f23de008582420085027300ab
:1015b00095b79f00ffaa97004f2bde000402420060
:1015c0000402730084b79f006faa97004f23de00c8
:1015d0008582420085027300f5af9f00e9ff070096
:1015e0004f18de000402420000027200e4af9f00c8
:1015f000e4ff07000000400081804800020149002c
:1016000083814900d8ff07000802be000a03be001c
:1016100000fe2f0000000600881f78001800200040
:10162000881f78008aff07008f87e9004f04780041
:1016300000000600801feb0085ff07008f87e90090
:1016400000000600889fbe008a9fbe00e00f500089
:10165000e08f5800e00f5900e08f59000c003d006a
:101660006044b8006055b8000000540081805c0000
:1016700002015d0083815d00180020001500070055
:1016800008003d00180007000004eb0005003700cb
:101690000004eb000f00070002003d0012000700ed
:1016a00018002000dcff0700e00f540006003200a5
:1016b0006022b8006033b8000000520081805a00f8
:1016c00002015b0083815b004f05be004f04be003a
:1016d00000000600e00f5200e08f5a00e00f5b00b0
:1016e000e08f5b00000006006044b8006055b80061
:1016f0000402540085825c0006035d0087835d0060
:1017000000000600889fbe008a9fbe008c1f7800e4
:10171000e00f5000e08f5800e00f5900e08f5900b3
:101720000d003d006044b8006055b8000000540052
:1017300081805c0002015d0083815d001c0020004f
:101740000820e10009a8e1000ab0e1000bb8e100bf
:101750000d003d00080037000006eb00e00f5200ce
:10176000e08f5a00e00f5b00e08f5b0006003d0059
:101770006044b8006055b8000402540085825c00e3
:1017800006035d0087835d00aaff0700e00f560097
:10179000060032006022b8006033b800000052003a
:1017a00081805a0002015b0083815b004f06780054
:0c17b0004f05be004f04be000000060004
:020000040000fa
:1017bc00312e0000302e0000300000004d7800006b
:1017cc0000520000494e00005452000053540000d7
:1017dc00003a000000520000444100004c5600004a
:1017ec004552000000500000303100000050000055
:1017fc003032000000520000444100004c52000006
:10180c004356000000440000414c00000000000062
:10181c0025300000325800003a250000303200001c
:04182c005800000060
:020000040000fa
:101830000000fa000002eb00340888001021a90023
:1018400010c1a9001061a800840880000440a00015
:101850000450a1008408880084e0a90094e0a80056
:101860008500a9009500a80011e1a9000080fa00f8
:10187000000006000000fa008660a9006360a9006d
:1018800060e0a9009660a8000080fa000000060051
:101890001e00fa006022b80014079800250798007f
:1018a0006022b80034079800450798006022b8000d
:1018b0005407980065079800550037005e029000b5
:1018c0006622b90004027800e402420024bc210030
:1018d00004824200144278000482fb0005002000cc
:1018e00074079800050f98001601200007002000db
:1018f0003e029000ce0290000402530085825b00fd
:10190000140f9800250f98001e0b90007e02900087
:101910008e0a9000060078000000e9000300330002
:101920000402420085824a00fbff37001e0390003c
:10193000ae039000040273008582730014079800c0
:10194000250798003e029000ce02900061024200fe
:10195000e0824a0034079800450798005e02900034
:101960006622b90004027800e402420024bc21008f
:101970000482420094429000c4c6b30084cf520057
:101980001d003a0016012000070020003e029000d2
:10199000ce0290000402530085825b00140f980071
:1019a000250f98001e0b90007e0290008e0a90007a
:1019b000860078008100e900030033000402420041
:1019c00085824a00fbff37001e039000ae039000a3
:1019d000040273008582730014079800250798009d
:1019e0003e029000ce02900061024200e0824a0076
:1019f00034079800450798005e029000ee029000c0
:101a000061024200e0824a0054079800650798008e
:101a10003e039000ce03900014012000050020003a
:101a2000840f5300858f5b0009003e00e4c2210053
:101a3000144278000483fb00070020005e0290003f
:101a4000ee029000840f5300858f5b009bff3e00e9
:101a50006022b80034079800450798003800370026
:101a60003e02900075002000042add00cfa2de00b7
:101a7000340f9800450f98001e039000ae039000ad
:101a80003e0a9000ce0a9000060078000703780016
:101a900084037800050278000700600004026300f8
:101aa00005002000c022dd00040020000403be0069
:101ab0006102b8000403730085837300e00f5300d4
:101ac000e08f5b00160032001e039000ae03900012
:101ad0003e0a9000ce0a90000600780007037800c6
:101ae00084037800050278000700600004026300a8
:101af00005002000c022dd00040020000403be0019
:101b00006102b80004037300858373003e0a9000ed
:101b1000ce0a9000840f5300858f5b0002003a00cc
:101b200014002000620037003e029000ce029000b8
:101b300061024200e0824a0034079800450798009d
:101b40003e039000ce039000f4002000050020002a
:101b5000840f5300858f5b00c1ff36000002eb004d
:101b6000040f78006022b8003407980045079800f9
:101b70003d0037001e02780004024200040f780086
:101b80003e02900070021200040378001e029000d2
:101b9000ae0290000401be00060078000000e900db
:101ba000030033008301d1000281d300fbff370023
:101bb0000203be003400200005002000060078006b
:101bc00007037800840378000502780007006000ae
:101bd0000402630005002000c022dd000400200094
:101be0000403be006102b800040373008583730020
:101bf000560f9800670f98005e0a9000ee0a90005a
:101c0000e00f5200e08f5a00070032005e0b900098
:101c1000ee0b90003400200005002000840f5300dc
:101c2000858f5b0002003a0014002000200037007e
:101c30005e0b9000ee0b90001400200005002000c9
:101c4000840f5300858f5b0001003a001e00a00046
:101c50003e029000ce02900062024200e0824a0002
:101c600034079800450798003e039000ce0390008b
:101c70001401200005002000840f5300858f5b00b5
:101c8000bcff3600041020001e026200e00f52006c
:101c900002003a0014002000050037001e02780000
:101ca0000442780004407800b4fbb7000002eb0067
:101cb000040078000080fa00000006001000fa001e
:101cc0006022b800048fbe004d0037001e0278006d
:101cd0006622b9008402780024bc210004824200fc
:101ce0001403be002607980037079800160020004e
:101cf000070020003e024300ae824b006622b9007e
:101d00008402780024bc2100048242001403be0037
:101d100046079800570798004e039000de03900096
:101d20002e029000be0290000402530085825b00e8
:101d300064079800750798006e039000fe039000fa
:101d40003468200005002000840f5300858f5b005d
:101d50000f0036006e039000fe039000649c20008c
:101d600005002000840f5300858f5b0008003e00b3
:101d70001e0278006622b9008402780064bc21004b
:101d80008482420034c7b3009442980018003700a0
:101d90006e039000fe03900074d020000500200028
:101da000840f5300858f5b000f0036006e03900098
:101db000fe039000c438210005002000840f53006a
:101dc000858f5b0008003e001e0278006622b90085
:101dd0008402780064bc210084824200c4c6b3003f
:101de00094429800020037001400200014003700cd
:101df00014002000050020001e0f42005e974a00dc
:101e0000e4c22100144278000482fb000402e900cd
:101e1000cfa2de00be0f5200ae8f5a00abff3e00d5
:101e20001e0278006622b9008402780064bc21009a
:101e30008482420084c7b300944298000002eb0001
:101e4000040078000080fa00000006000000fa009c
:101e50009aff070000027800e00f520002003200f3
:101e60000002eb000700370089fe0700000278003f
:101e7000e00f5200020032000002eb0001003700c8
:101e800014002000040078000080fa000000060022
:101e90000800fa00300798006022b800048fbe00e6
:101ea000f4c0b300444798001f0037004e42900032
:101eb0000402fb0015002000042add0084027800e3
:101ec0003e02900004826200e00f52000a003200dd
:101ed0001e02be000402420085824a00048fbe003a
:101ee0001e02be000402420085824a00048fbe002a
:101ef0001e00a000090037001e02be0004024200be
:101f000085824a00048fbe001e00a0001e02be0093
:101f10000402420085824a00048fbe004e429000b7
:101f20000442e900444798004e429000e04f5200be
:101f3000deff3d001e02be000400be000080fa006d
:101f4000000006000400fa00100798000002eb00f1
:101f5000040f78001e029000e00f520003003500cd
:101f600014002000040f7800200037009e0290002b
:101f700004002e008482620004002800848f520036
:101f800003003a0024002000040f780017003700f7
:101f90009e02900004e02f008482620004e02f0083
:101fa000848f520003003a0044002000040f7800a0
:101fb0000e0037009e02900004f02f008482620021
:101fc000f4ff2900848f5200080036009e02900022
:101fd00004f02f008482620004d02f00848f52000e
:101fe00002003e0084002000040f78001e027800ea
:101ff000040078000080fa00000006000600fa00e5
:1020000010079800210798000002eb00040f7800e9
:102010002e029000e80f520011003a009e0290003c
:1020200004902a00848f52000a0032009e02900021
:1020300014f82f008482620014902b00848f5200c9
:10204000040032009e02900004b02b00848f5200e6
:102050002f003a0014002000040f78002c003700f5
:102060009e029000f41f200084826200f418200079
:10207000848f5200060036009e029000f41f20005c
:1020800084826200d4192000848f52001e00360022
:102090009e029000f41f200084826200f419200048
:1020a000848f5200060036009e029000f41f20002c
:1020b00084826200541a2000848f5200120036007d
:1020c0009e029000f41f200084826200f41a200017
:1020d000848f5200060036009e029000f41f2000fc
:1020e00084826200541c2000848f52000600360057
:1020f0009e029000f41f200084826200f41f2000e2
:10210000848f520002003a0014002000040f78006f
:102110001e027800040078000080fa00000006002b
:102120000600fa0010079800210798000002eb0053
:10213000040f78002e029000e80f52000d003a00c4
:102140009e02900004f02f008482620004502a0056
:10215000848f5200040032009e02900004702a0016
:10216000848f520011003a0014002000040f780000
:102170000e0037009e029000f41f2000848262004f
:10218000f4112000848f5200080036009e02900057
:10219000f41f20008482620014182000848f5200f3
:1021a00002003e0014002000040f78001e02780098
:1021b000040078000080fa00000006000a00fa001f
:1021c000004f780012079800230798003107980005
:1021d0004407980014002000c4dd88003e009000f1
:1021e000d0dd88001e029000ae029000f4dd880071
:1021f00005de88006360a90060e0a9001e42780047
:10220000e04f520004003a00cc82a8000042eb00ec
:102210000440780030fcb7001e427800e14f5200c5
:1022200004003a00cc42a80014c0b3000440780077
:1022300030fcb7000002eb00540888000002eb00fd
:10224000340888000002eb007408880054822000e3
:10225000640888000002eb00540888000002eb00cc
:102260003408880011e1a80000000000c4dd8000ef
:10227000e00f5200fdff3a00d4dd8000e00f520075
:102280001c003200e4c2210014427800e04f5200ea
:1022900006003a0014002000b4dd88000042eb0084
:1022a00004407800b4fbb70012003700e4dd800082
:1022b000e00f52000600320044002000b4dd880028
:1022c0000042eb0004407800b4fbb700090037007f
:1022d000defe070000027800e00f5200030032002b
:1022e00024002000b4dd8800020037003400200004
:1022f000b4dd880044bb2100144278008482fb00d6
:10230000b4dd8000851f7800841f7800e4c02800b9
:10231000841f78004e009000c2f80700e68757003f
:102320000002eb00b4dd88000080fa000000060027
:102330001000fa00204f980061079800720798007b
:102340000042eb00044f780014c0b300144798001b
:102350006e009000cefe07000002be001407980039
:10236000250798006e009000f6fe07000002780036
:1023700034079800be0090006e0090001fff070019
:102380000002780044079800be0090006e009000a4
:1023900063ff070000027800e00f52000a003200dd
:1023a00024c0b30014479800070037007e02900055
:1023b000ce0090001e019000ae0190002e489000cb
:1023c0007eff07001e4fe8001e4290009e427800ec
:1023d00084cf5200f5ff39000080fa0000000600ab
:1023e0000000fa000002eb0094dd88000042eb00e0
:1023f00004407800b4fbb7000002eb00b4dd8800b5
:102400000002eb00c4dd88000002eb00d4dd880090
:102410000002eb00e4dd88006022b800f4dd8800f3
:1024200005de88000042eb00044078002efcb70077
:10243000cc82a900cc42a900c882a900c842a90048
:10244000c8a2a800c862a800f9fc070009fd07009f
:102450000080fa00000006000a00fa00004f780031
:102460001107980022079800330798004407980046
:102470001e029000144278000482fb00c822dd0096
:102480001e0290000402e800144278000482fb005f
:102490000482720094dd880094dd80004e0190007b
:1024a000840078001e407800a1ff07000080fa0039
:1024b00000000600801f7800849fbe000400fa0020
:1024c0008500a9000002eb00540888000002eb0020
:1024d00034088800c4dd8000e10f52000d003a008e
:1024e00004c3210014427800e04f520002003a0079
:1024f000cc82a90001003700cc42a9000042eb00c9
:102500000440780031fcb70024002000c4dd8800be
:1025100093003700c4dd8000e20f520027003a002c
:10252000f4dd800005de8000e00f5200e08f5a00ed
:1025300008003d0004c3210014427800e04f52001f
:1025400002003a00cc82a90009003700cc42a90061
:102550000700370004c3210014427800e04f520006
:1025600002003a00cc82a80001003700cc42a8004b
:10257000f4dd800005de80000402420085824a000e
:10258000f4dd880005de880014c3210014427800c1
:102590000442e8000440780031fcb70015c3210074
:1025a0009542780004c2b30084cf52006c003a0018
:1025b00034002000c4dd880069003700c4dd8000dd
:1025c000e30f520026003a0004c3210014427800b1
:1025d000e04f520002003a00cc82a900010037000f
:1025e000cc42a900d4dd8000e00f52000f00320081
:1025f0000002eb0074088800440922006408880087
:102600000042eb0004407800b4fbb7000002eb008e
:10261000e4dd88000042eb00044078002efcb700a7
:1026200044002000c4dd88004d00370014c32e0094
:1026300005002000048fbe001e02be00402ade00fe
:102640000500200004027800740888001e0278004b
:102650006408880054002000c4dd88004000370072
:10266000c4dd8000e40f52000e003a000002eb00cf
:1026700074088800c4d922006408880004c32100bb
:1026800014427800e04f520002003a006360a80054
:102690000100370060e0a80064002000c4dd88006d
:1026a0002f003700c4dd8000e60f520007003a001b
:1026b0000002eb0074088800a40c2e006408880057
:1026c00074002000c4dd880025003700c4dd8000d0
:1026d000e70f52000b003a000002eb00540888009c
:1026e0000002eb003408880011e1a9006360a90032
:1026f00060e0a9008660a9000002eb00c4dd88004c
:1027000017003700c4dd8000e80f52000a003a00cd
:102710000002eb007408880034b52b0064088800c0
:102720006360a90060e0a9008660a9005400200051
:10273000c4dd88000a003700c4dd8000e50f5200c8
:1027400007003a000002eb00540888000002eb008a
:102750003408880011e1a9000002eb00c4dd880004
:102760000080fa004f02be004f00780000400600d3
:10277000801f7800849fbe00869fbe000400fa0080
:10278000c4dd8000e60f520005003a006360a90036
:1027900060e0a90014002000e4dd88006b00370031
:1027a000c4dd8000e70f520029003a000002eb0070
:1027b000540888000002eb00340888000002eb0097
:1027c0007408880044702d006408880004c3210048
:1027d00014427800e04f52000b003a00551680007a
:1027e000040220000482620004f0a7000402ea0050
:1027f0000402e9004f22de00044278000440780021
:10280000c6fbb7000900370054168000680262005a
:1028100004f0a7000402ea000402e9004f22de00ef
:102820000442780004407800c6fbb7006022b8007c
:1028300014de880025de880014c0b3000440780050
:102840002efcb70084002000c4dd88003f00370064
:10285000c4dd8000e80f52003c003a00e4c22100d1
:1028600014427800f14f520038003e00e4c22100cb
:10287000144278000482fb0005002000048fbe0093
:1028800004c3210014427800e04f52000f003a00c8
:1028900055168000040220000482620004f0a700a4
:1028a0000402ea000402e9004f22de00044378003b
:1028b0001e0278006622b9008402780064bc210000
:1028c00004824200064a78000d003700541680004a
:1028d0006802620004f0a7000402ea000402e900b2
:1028e0004f22de00044378001e0278006622b90001
:1028f0008402780064bc210004824200064a780009
:102900005408800005002000c023dd0006002000e0
:1029100034088000050020000402730085827300e3
:102920001e0378006633b9008603780026bc2100b8
:1029300006834300048bbe00e4c2210014427800e9
:102940000442e800044078002efcb7008660a9002d
:102950000080fa004f03be004f02be004f00780017
:10296000004006000800fa00000f780011079800e8
:1029700022079800330798002e029000e00f5200c3
:1029800004003a001e0090000ef7070000027800d5
:1029900024079800be02900024cfb300c4429800e0
:1029a000be02900000c2eb00d4429800be0290002c
:1029b00034cfb300e44298001e027800144278003d
:1029c000e04f5200070032003e02900064024200d5
:1029d00063024200720020009e007800040078002c
:1029e000f1f60700be02900044cfb300e44a98001d
:1029f0003e0290006f0242002e0190009e00900067
:102a000004007800e8f607002e029000ed02420074
:102a10003e029000050a78003e0290001402780001
:102a20000482e900be0290008482420054cfb300c9
:102a3000c44298003e029000140278000402e900ab
:102a4000be0290008482420054cfb300c44298007a
:102a50000080fa00000006000400fa0020479800f9
:102a60000002eb00040f78002e4290000482fb006d
:102a700005fd2f00050f4200040320009e02780090
:102a8000848f52000300340094fd2f001e0f42007b
:102a9000050037001e027800e90f520002003400e2
:102aa0009e027800678f52001e0278000442780070
:102ab000044078000080fa00000006000400fa00dc
:102ac000100798000002eb00040f78001e0290002f
:102ad0001442780004407800dfff070000427800cd
:102ae0000482fb004422dd00040f78001e029000e7
:102af0000402e8001442780004407800d6ff070082
:102b0000004278000482fb001e0f42001e02780083
:102b100004427800044078000080fa0000000600bb
:102b20000200fa00000f78009e0178000001eb001f
:102b300041be280070be28008aff07001e027800f0
:102b4000940278001e037800640243008500780038
:102b500004007800500107000002eb000400780038
:102b60000080fa00000006000400fa00000f780060
:102b7000110798001e029000e20f5200020032007e
:102b800054002000160037001e0078008df6070064
:102b9000000278001e02420022002000f1be280040
:102ba0000400780080f607001e00780085f6070014
:102bb000000278001e02420062002000e1bd2800f1
:102bc0000400780078f60700947c21007200200051
:102bd00011bf28000400780073f607000002eb0024
:102be000040078000080fa00000006000800fa00e7
:102bf00020079800310798003e029000ec0f520029
:102c000012003a002e0290000482e80094427800fc
:102c1000c4c7b30084cf52000c003a002e029000cb
:102c20006602420094427800a4c3b30084cf5200ed
:102c300006003a002e029000690242009442780099
:102c4000a4c3b30084cf520002003200540020001d
:102c5000340037002e029000630242003200200050
:102c600091bf2800040078005df60700000278009c
:102c7000e00f520003003a000042eb00044f7800de
:102c80000e0037002e029000630242003200200046
:102c9000d1bf28000400780051f607000002780038
:102ca000e00f520003003a0014c0b300044f780054
:102cb00002003700340020001a0037002e02900076
:102cc00067024200040078007cff070000427800a1
:102cd000144798002e0290006a0242000400780017
:102ce00076ff070000427800244798002e029000eb
:102cf000670242008e02e80022002000030020004c
:102d0000850078001e407800d3fd0700947c2100e8
:102d10007200200011c028000400780022f607008d
:102d20000002eb00040078000080fa0000000600ba
:102d30000200fa000002eb00041288000002eb001f
:102d4000141288000002eb00241288009540a900ac
:102d500044128000040f780040c2a9004302a8007a
:102d60004322a90042c2a90042e2a80042a2a9004f
:102d700041e2a8008540a9009540a80044058000d4
:102d80000440a1000450a0000460a0004405880095
:102d90000080fa00000006000000fa000082eb004c
:102da00064198800c402a800c422a900cde2a900c9
:102db000c022a900c9e2a900c002a900c9c2a80096
:102dc000c9a2a800c082a800c8c2a900c8e2a80081
:102dd000c902a800c9a2a8003536800004fe2f0051
:102de000048262007400b3003436880045358000e8
:102df00004fe2f00048262007400b3004435880092
:102e000045358000f40f2e0084826200048020008b
:102e100004827200443588005535800004fe2f007e
:102e200004826200d400b30054358800c0ff07005c
:102e30005536800004fe2f0004826200a400b30017
:102e4000543688006535800004fe2f00048262003d
:102e50009400b3006435880055368000f40f2e00ce
:102e60008482620004b0200004827200543688001c
:102e70006536800004fe2f0004826200c400b300a7
:102e80006436880015368000f40f2e0084826200bc
:102e9000045020000482720014368800353580000a
:102ea00004fe2f00048262000410a0003435880064
:102eb0000080fa00000006000000fa0004fd200077
:102ec0008002eb00050a78000580200004fd200048
:102ed000250298000580200004fd2000350298009e
:102ee00004fd20008002eb001502980024ff200062
:102ef000147f8800147f8000c47e880004ff2000b7
:102f0000247f8800247f8000d47e880024ff200056
:102f1000447f8800447f8000f47e880004ff200006
:102f2000547f8800547f8000047f88000002eb00fb
:102f3000e47e88000002eb00347f88000002eb0092
:102f4000647f88000002eb00747f88000080fa0034
:102f5000000006003600f800809fbe00829fbe0081
:102f6000849fbe00869fbe000200fa008540a90033
:102f700044128000044f78000512800004042000f1
:102f800004826200e00f52000100320040c2a9003a
:102f90002416800061026200e00f520033003a0004
:102fa00004fd200034029000144f78001e40780089
:102fb0000082fb004412880004fd200034029000cf
:102fc0008402e80004fd20003502980004fd200082
:102fd000b402900006802000f47c2000040243002c
:102fe000848f5200030036000580200004fd20007d
:102ff0003502980004fd2000140290008402e900cc
:1030000004fd2000150298001e427800eb4f42009c
:1030100004003a0004bb210014427800eb4f420048
:103020000400320004fd200014029000e00f520062
:103030000b003a00c422a90004fd2000140278000d
:103040008402e90004fd2000050a78000042eb003c
:1030500004407800b0fbb7009540a9000700370096
:103060001e407800b0fbb7000400370014042000b5
:10307000441288001e4078000a0107000080fa0010
:103080004f03be004f02be004f01be004f00be0006
:103090003600f900004006000600fa00100798000c
:1030a000210798002e029000e00f520033003200fa
:1030b0002e029000040f7800330007000002780011
:1030c000ae029000850f52002d0039001500370028
:1030d00004fd2000a40290001e029000144278001b
:1030e000844a78008502e80004fd2000250298004b
:1030f0001e0290000402e8001407980004fd20005e
:10310000a402900006802000f47c2000040243000a
:10311000848f5200030036000580200004fd20004b
:10312000250298002e02900004f0a7000402ea0095
:103130000402ea004f22de0004427800ae02900052
:103140008502e90025079800e04f5200e0ff3a00b1
:1031500004fd2000140278008402e80004fd200031
:10316000050a780004fd2000140290009e0242002f
:1031700004fd200015029800010037000000000047
:103180000080fa00000006000200fa00047d200022
:10319000040f780004fd2000a402900004fd20002c
:1031a00034029000848f52000800390004fd200092
:1031b000340290008402780004fd20002402900074
:1031c000048252001e0f42000700370004fd200059
:1031d000240290008402780004fd20003402900054
:1031e000048252001e0f42001e0278000400780084
:1031f0000080fa00000006000800fa00300798007e
:103200000002eb00140798000f010700000278008d
:10321000e00f520002003a000002eb0055003700b8
:10322000247f8000144278000482fb004822dd00e5
:1032300024079800247f8000037d200002ff2000e7
:1032400011002000040078007700070000027800d9
:10325000247f8800247f8000144278000482fb00d1
:10326000ae0290000482720024079800247f800040
:10327000037d200002ff20001100200004007800e0
:103280006900070000027800247f8800247f800006
:10329000037d200002ff2000ae00900004007800b3
:1032a0006100070000027800247f88002e02900051
:1032b000040f780012003700147f80001442780059
:1032c0003e0390009e02900085024300e48242008b
:1032d000844a78001e0290000402e8001407980057
:1032e000147f8000037d200002ff200011002000d9
:1032f000040078004c00070000027800147f88006a
:103300001e02780004f0a7000402ea000402ea00aa
:103310004f22de00044278001e0fe900e04f520009
:10332000e5ff3a00147f8000037d200002ff2000ab
:1033300021002000040078003b0007000002780014
:10334000147f88003e029000ae029000050a7800cb
:10335000647f80000402e900647f8800757f80003c
:103360002e029000048252000482e900747f8800db
:103370002e029000040078000080fa000000060091
:103380000200fa00000f78001e0278001402780094
:10339000ec0f520002003e000002eb001f0037005d
:1033a0001e02780044429000ee4f42001a003a009c
:1033b0001e02780064429000ed4f420016003a0071
:1033c0001e027800644a9000ec4f420012003a005e
:1033d0001e027800140278000482e9009e02780040
:1033e0006402420065427a00eb4f42000a003a0054
:1033f0001e027800140278000402e9009e027800a0
:103400006402420065427a00eb4f420002003a003b
:1034100014002000010037000002eb0004007800d7
:103420000080fa00000006000c00fa002007980057
:103430003107980042079800530798002e02900029
:10344000140798001e029000040f78003e029000be
:103450001e0f42005e0290000402e900ce029000be
:10346000048242009e0f52000a0031009e0290002a
:103470004e0390005e02900004024300048252005a
:10348000840278003e02900004824200ce02900046
:10349000048f42001e027800040078000080fa00c9
:1034a000000006000200fa00004f7800e57e800070
:1034b000747f8000048242008482e800f47c200053
:1034c000848f520004003e00e57e8000843e200090
:1034d000848f520007003600f47e8000c47e88008e
:1034e000047f8000d47e88000002eb00e47e880028
:1034f000ffff3700c47e80001e4a7800c47e800033
:10350000037d200002ff200011002000040078004d
:10351000c5ff070000027800c47e8800e47e8000ba
:103520000402e800e47e8800e4ba21001442780036
:1035300004407800affbb7001e407800aefbb70038
:10354000e4ba210014427800eb4f42003c003a00fc
:10355000f4ba210014427800eb4f420038003a00e0
:10356000757f8000e47e8000048242000482e800cf
:10357000747f8800d57e8000e47e80004822de00d3
:1035800004427800844a7800d47e8000037d2000c5
:1035900002ff20001100200004007800a2ff0700b5
:1035a00000027800d47e8800d57e8000e47e800012
:1035b00004427800844a7800d47e8000037d200095
:1035c00002ff2000110020000400780096ff070091
:1035d00000027800d47e8800e57e8000d47e8000e2
:1035e000037d200002ff20008500780004007800a1
:1035f0008dff070000027800d47e8800c47e800022
:10360000037d200002ff200021002000040078003c
:1036100085ff070000027800c47e8800d47e800009
:10362000047f8800c47e8000f47e8800647f800070
:103630000402e800647f88000002eb00e47e88005a
:103640000080fa00000006000400fa00647f800099
:10365000040f7800647f8000140798001e02900019
:103660009e027800848f5200f8ff3a001e02780014
:10367000040078000080fa00000006000a00fa004a
:10368000300798004107980064022000343a88000f
:103690000002eb00243a880000000000153a800088
:1036a0000402200004826200e00f5200fbff32009f
:1036b00040a7a800b8fd0700fffd070048fb070072
:1036c000000000001416800070026200e00f52003b
:1036d000fcff3a00207c210011fd070009003700a3
:1036e0000000000007003700000000000500370060
:1036f0000000000003003700000000000100370058
:10370000000000000060fe001416800070026200dd
:10371000e00f5200010032000000fe00241680007d
:1037200061026200e00f52000c003a002416800093
:1037300062026200e00f520008003a005516800055
:103740000400220004826200e00f520003003200f5
:1037500077fd0700c402a800c422a900207c210034
:10376000a5fe070000027800e00f52003f00320083
:10377000207c210002ff070000027800e00f5200c9
:103780003a0032003200200091c02800a07c2100c5
:103790006bf3070000027800e00f520033003a009c
:1037a0000042eb00044f78002b0037009e42780067
:1037b0000582fb006a22b9008402780024c321003c
:1037c000048242007200200084007800907c210076
:1037d00083f3070000027800e00f52001d003a005a
:1037e00014be80008482e900647c2100848242004f
:1037f0000042eb00844a78009e4278000582fb007c
:103800006a22b90004027800e802420024c32100c1
:10381000048242009402780014be80006d025200bf
:1038200084007800107d210005000100237c210028
:103830000001eb00117d2100d0c0280049fc0700e9
:1038400014be800084007800607c210012fe070016
:10385000060037001e4fe80064c4210014427800bf
:103860009e42780084cf5200d0ff39002416800099
:1038700061026200e00f520099ff3200551680008d
:103880000400220004826200e00f520096ff320022
:1038900004fd2000140278001407980004fd2000a5
:1038a00014027800240798009e0290002e029000d7
:1038b000848f52008eff3a001e029000e00f5200eb
:1038c0008dff32006516800004002800048262002b
:1038d000e00f520002003a00cde2a80089ff370055
:1038e000551680000400240004826200e00f52009c
:1038f00083ff3200c402a90041e2a9009540a9005b
:103900008540a90041e2a8001400370004fd200012
:1039100034029000144278000482fb0044128800b4
:1039200004fd2000340290008402e80004fd200021
:103930003502980004fd2000b402900006802000ab
:10394000f47c200004024300848f52000300360000
:103950000580200004fd200035029800041280003c
:1039600062026200e00f5200e8ff32009540a800ba
:0c397000c422a800cde2a90062ff3700cd
:020000040000fa
:10397c0000080000b213000000000000321c000020
:10398c001600000002000000544441004c534e004d
:10399c004400f60015514400414c560045520000bd
:1039ac00b415020000000000b21b000080000000f3
:1039bc0000000000e81c00002a00000002000000cb
:1039cc00303132003334350036373800394142005b
:1039dc004344450046003000313233003435360064
:1039ec0037383900616263006465660000286e0038
:1039fc00756c6c0029000000481c0000a000000041
:103a0c0002000000010000000000000000000a009d
:103a1c000000000000000000006400000000000036
:103a2c0000000000e803000000000000000010008f
:103a3c00270000000000000000a08600010000002c
:103a4c000000000040420f00000000000000800059
:103a5c0096980000000000000000e100f505000051
:103a6c000000000000ca9a003b00000000000000ab
:103a7c00e40b5400020000000000e8007648170038
:103a8c00000000000010a500d4e8000000000000b9
:103a9c00a0724e0018090000000040007a10f300dc
:103aac005a0000000080c600a47e8d0003000000b8
:103abc0000c16f00f2862300000000008a5d7800d0
:103acc004563010000006400a7b3b600e00d0000e0
:103adc0000e889000423c7008a000000381d00009c
:103aec000600000000000000121d0000260000006f
:103afc0002000000391d000000391d000900000003
:103b0c00000200003b1d0000003b1d000e020100e6
:103b1c00000000000000000000000000060202008f
:103b2c0000000000121d00003e1d000002000000fd
:0c3b3c000200000001000000000000007a
:020000040000fa
:0200000401f009
:04000c00fbff0000f6
:020000040000fa
:0200000401f009
:04001000bdff000030
:020000040000fa
:0200000401f009
:040014007aff00006f
:00000001FF
